S00C0000554152542E73726563DC
S315000000003820FE1FB945000055400000B5450000E8
S31500000010B5450000B5450000B545000000000000EC
S31500000020000000000000000000000000B5450000D0
S31500000030B545000000000000716A0000196B000061
S31500000040691D0000591C0000D11C0000291B00007E
S31500000050FFFFFFFFFFFFFFFFFFFFFFFFFFFFFFFFAA
S31500000060FFFFFFFFFFFFFFFFFFFFFFFFFFFFFFFF9A
S31500000070FFFFFFFFFFFFFFFFFFFFFFFFFFFFFFFF8A
S31500000080FFFFFFFFFFFFFFFFFFFFFFFFFFFFFFFF7A
S31500000400FFFFFFFFFFFDFFFFFFFFFFFFFFFFFFFFF8
S31500000410FFFFFFFFFFFFFFFFFFFFFFFFFFFFFFFFE6
S31500000420FFFFFFFFFFFFFFFFFFFFFFFFFFFFFFFFD6
S31500000430FFFFFFFFFFFFFFFFFFFFFFFFFFFFFFFFC6
S31500000440FFFFFFFFFFFFFFFFFFFFFFFFFFFFFFFFB6
S31500000450FFFFFFFFFFFFFFFFFFFFFFFFFFFFFFFFA6
S31500000460FFFFFFFFFFFFFFFFFFFFFFFFFFFFFFFF96
S31500000470FFFFFFFFFFFFFFFFFFFFFFFFFFFFFFFF86
S31500000480FFFFFFFFFFFFFFFFFFFFFFFFFFFFFFFF76
S31500000490FFFFFFFFFFFFFFFFFFFFFFFFFFFFFFFF66
S315000004A0FFFFFFFFFFFFFFFFFFFFFFFFFFFFFFFF56
S315000004B0FFFFFFFFFFFFFFFFFFFFFFFFFFFFFFFF46
S315000004C0FFFFFFFFFFFFFFFFFFFFFFFFFFFFFFFF36
S315000004D0FFFFFFFFFFFFFFFFFFFFFFFFFFFFFFFF26
S315000004E0FFFFFFFFFFFFFFFFFFFFFFFFFFFFFFFF16
S315000004F0FFFFFFFFFFFFFFFFFFFFFFFFFFFFFFFF06
S31500000500B405FE1F890D1408B805FE1F860D1410CC
S31500000510BC05FE1F880D1420C005FE1F870D14287C
S3150000052020000000200001002F0000002F00010025
S315000005300C00010011000000300000003000010036
S31500000540240000002400010024000200240003000F
S31500000550240004002400050013000000170000001A
S315000005602300000021000000210001000700000018
S31500000570070001000700020007000300070004004F
S31500000580070005000700060007000700120000002C
S3150000059044000000080000000B00000041000000BD
S315000005A0400000004000010004000000430000007D
S315000005B02B0000002B000A002B000B002B000C0068
S315000005C02B000D002B0001002B0002002B00030066
S315000005D02B0004002B0005002B0006002B00070053
S315000005E02B0008002B0009000600000006000A0088
S315000005F006000B0006000C0006000D0006000E00AB
S3150000060006000F00060001000600020006000300B7
S3150000061006000400060005000600060006000700A6
S31500000620060008000600090015000000150001007C
S3150000063015000200310000002A00000045000000FD
S315000006401000000003010000030000000300010089
S315000006500F0000000D0000002D0000004200000009
S315000006602C0000002C0001002C0002002C000300CE
S3150000067032000000280000001800000014000000EE
S31500000680140001001400020014000300140004000A
S3150000069014000500140006001400070014000800EA
S315000006A014000900340000003400010016000000A8
S315000006B0160001003500000036000000360001007B
S315000006C02200000033000000330100002900000072
S315000006D010B5054C237833B9044B13B10448AFF376
S315000006E000800123237010BDFC02FE1F00000000E5
S315000006F06C9D000008B5034B1BB103490348AFF3DB
S31500000700008008BD000000000003FE1F6C9D000075
S315000007104FF0022303600020704700BF8188B1F5C7
S31500000720807F1CD038B502290446C06818D00B0655
S3150000073000F1940505D428460022BDE8384004F0AF
S3150000074071BC002204F10801B83004F0CDFD78B97F
S31500000750A18828460022BDE8384004F063BC7047F3
S3150000076000F1700528460022BDE8384004F05ABC66
S3150000077028460022BDE838404FF4004104F052BC40
S315000007800368BBB1022970B50446154609D034206A
S3150000079000FB01400830114604F0C8FC40B90020B7
S315000007A070BD00F108061146304604F0BFFC18B1D2
S315000007B0142070BD07207047294604F13C0004F060
S315000007C0B5FC0028EBD0304604F0DAFC142070BDEE
S315000007D0036883B110B5044631B102290DD0013941
S315000007E0012918D9002010BD083004F0C9FC0028E2
S315000007F0F8D0642010BD07207047083004F0C0FC14
S31500000800034604F13C001C4604F0BAFC002CF0D16F
S315000008100028EED1E6E704F13C0004F0B1FC002824
S31500000820E7D1DFE72DE9F043044685B01E4623688D
S315000008300020039043B304F108070D4638463146BD
S31500000840904604F073FCD0B9A1460323009049F802
S31500000850703B012203AB0221484604F0C1FB6368EA
S3150000086029469D681868AB6842469847054680B198
S31500000870384604F085FC284605B0BDE8F08314250B
S31500000880284605B0BDE8F0830725284605B0BDE833
S31500000890F083009603AB01224846022104F0A0FB38
S315000008A0054630B107280DD0384604F069FC6425AA
S315000008B0E1E7384604F064FC01232846236005B0CE
S315000008C0BDE8F08363689A681868D369022198477F
S315000008D005460028CCD1384604F052FC1425CAE758
S315000008E02DE9F0411C4682B000230193236805469A
S315000008F00F46164600F1B808002201A9404613B17A
S3150000090004F0D2FC10B102B0BDE8F0816B685B6800
S315000009101B7A022B236806D0F31A019AFA5423682D
S31500000920013B2360E8E7F21A019B07F812301A0A26
S315000009302368F31A07EB43035A70F0E72DE9F04FEB
S315000009400546006885B0002868D005F13C0B88464E
S315000009505846194616461F4604F0E8FB814600280D
S3150000096038D10223CDE902062B60324603AB41465D
S315000009702846FFF7B5FF039B002B3ED005F1940AEE
S3150000098002AB012248F2BD010097504604F028FB55
S31500000990044603AB324641462846002C47D1029C0A
S315000009A0802C25D014F0200C18BF4FF00C0C14F03E
S315000009B0080F15D0630729D414F0100F0CBF4FF0A1
S315000009C0C8094FF0C909584604F0DAFB484605B095
S315000009D0BDE8F08F4FF01409484605B0BDE8F08F2A
S315000009E014F0040F12D1E4061ED4BCF1000F26D178
S315000009F0FFF776FF039B002BC2D1584604F0C0FBDD
S31500000A00012348462B6005B0BDE8F08F14F0100FA7
S31500000A100CBF4FF0CA094FF0C909D4E74FF00709D8
S31500000A20484605B0BDE8F08F4FF0C909CBE7072C63
S31500000A3007D0584604F0A4FB4FF06409C6E7E14628
S31500000A40C1E76B689A681868D3690121984781469F
S31500000A500028B8D1584604F093FB4FF01409B5E7C7
S31500000A600368EBB110B543689A6804461868536981
S31500000A70984704F1080004F043FB04F13C0004F03D
S31500000A803FFB04F1700004F095FA04F1940004F0C1
S31500000A9091FA04F1B80004F0F1FB0020206010BDCB
S31500000AA0072070472DE9F04F0E68036832684260F0
S31500000AB08FB0002B76D100F108070446484934234D
S31500000AC00122384604F0C8FA04F13C0800284FD148
S31500000AD0444934230122404604F0BEFA04F1700969
S31500000AE0002867D13E492422484604F017FA04F14B
S31500000AF0940A00285BD13B492422504604F00EFAA2
S31500000B0004F1B80B002839D13C233822CDE9003254
S31500000B10344904F1F0030122584604F04DFB68BB4A
S31500000B2033685D6805F120030DF1140E0393EB683D
S31500000B3028686968AA68F446ACE80F00039B10357C
S31500000B409D42E646F3D12868274BCCF800000C946A
S31500000B500B93336862689B6810681B6805A9984701
S31500000B60054660BB0123284623600FB0BDE8F08F21
S31500000B7004F1700904F1940A04F1B80B384604F044
S31500000B80BFFA404604F0BCFA484604F013FA504651
S31500000B9004F010FA584604F071FB642528460FB09D
S31500000BA0BDE8F08F082528460FB0BDE8F08F04F1A8
S31500000BB0B80BE3E704F1940A04F1B80BDEE7384614
S31500000BC004F09EFA404604F09BFA484604F0F2F917
S31500000BD0504604F0EFF9584604F050FBDEE700BF3C
S31500000BE0609000006C9000001D07000020B14FF0DF
S31500000BF002230360002070470120704710B5836808
S31500000C00044623B19A6812B1D26918689047E3681E
S31500000C1033B19A6822B1BDE81040D269186810470E
S31500000C2010BD00BF2DE9F04F89B0CDE9051207933D
S31500000C309DF84C303149129F314C049083F00103EA
S31500000C40020A029300230392019301228846A0FB25
S31500000C5001B91343029A93423ED1059B268803FBB2
S31500000C6006F6049BB3FBF6F2551EFF2D34D802FBA5
S31500000C7006FA334656469A4618E0039BB6FBF3F34C
S31500000C807F2B03FB00F027D90028B8BFFF300012E6
S31500000C90A0F5C330A0380028B8BF4042804522DC0A
S31500000CA0019B3B60A6EB0A06B5B1013D3246F31740
S31500000CB05846494606F0E6F9002FDED1A0F5C333C3
S31500000CC0A03B002BB8BF5B42984505DD079A01970C
S31500000CD01460069A984615700A4B0634A34209D04A
S31500000CE0E3782279B5E7079A0193069B146080465C
S31500000CF01D70D5E7404609B0BDE8F08FA08601001B
S31500000D0094900000E2900000002834D070B50E46A2
S31500000D1082B0002931D01F4B42689A42044627D13F
S31500000D200023C1E900338268002A2ED0CDE90033C2
S31500000D30936810689B6969469847E278009B02F0C1
S31500000D40030202FB03F37360E068C8B10025CDE936
S31500000D500055836800689B6969469847E278009B5E
S31500000D6002F0030202FB03F32846336002B070BDB3
S31500000D70072002B070BD01207047012002B070BD8F
S31500000D804FF0FF33336002B070BD4FF0FF334B605E
S31500000D90DAE700BF5549435300283DD070B50E46EB
S31500000DA082B049B342B3204B41689942044635D1DB
S31500000DB0C57805F00303022B21D0A3682BB305F0F9
S31500000DC00305013D22FA05F50022CDE900229A68C5
S31500000DD01868936969469847009B9D420CD8A1788C
S31500000DE0F9B9A0680123A370846800686468ABB28F
S31500000DF03246A04702B070BD012002B070BD46EA7F
S31500000E000203DB07D9D50320F7E7606B48B9C4E9CD
S31500000E100C62A06302B070BD01207047072002B0CB
S31500000E2070BD082002B070BD5549435390F83C3060
S31500000E30012B00D0704790F83D1082B029B9064BBF
S31500000E40C08F1B6A019302B01847034AC08F126A0B
S31500000E500192194602B0104708910000C378427803
S31500000E6003F00303022B036916D01978436A2AB1EB
S31500000E7089B21A79D209FCD0D98103E01A79D2094C
S31500000E80FCD0D970D0E90421C37803F00303C91A52
S31500000E901344C0E9043170471988436A002AE8D12F
S31500000EA01A79D209E8D11A79D209F9D0E4E700BF54
S31500000EB02DE9F04385B00446DDF8308043F69720EF
S31500000EC0804527D834B3002502A8894617461E4612
S31500000ED08DF8085003F09CF8114B03959B699DF81B
S31500000EE0080003A998470546A0B901230193039872
S31500000EF000963B464A462146FFF794FE40450ADDEA
S31500000F00CDE9006503983B464A462146FFF78AFE2F
S31500000F10804500DA0325284605B0BDE8F08300BF0A
S31500000F208C910000002860D070B5334B42689A421D
S31500000F3086B004461BD1456AAB7813F0030319D17A
S31500000F40C278059312F004062C4AC36A049218BFAD
S31500000F5005AEFF22009308468DF80F20334604AAFB
S31500000F600DF10F01FFF7A4FF38B106B070BD0720E1
S31500000F7006B070BD012006B070BDAB789DF80F10AD
S31500000F8003F00B03AB702061AA78049B60F30102A7
S31500000F90AA706970EA79997861F38612EA71EA793A
S31500000FA0D97861F30412EA71EA79197961F3C30217
S31500000FB0EA715A792B7862F301032B7046B13368D4
S31500000FC0FF2B14D8EA79DBB242F00402EA71AB7463
S31500000FD0AB7843F05003AB706378002BC5D1626ADF
S31500000FE0937843F020039370BFE701207047EB79B5
S31500000FF060F38203EB71EBE755494353949000008D
S315000010002DE9F04184B000287AD00E46002977D029
S31500001010002A75D04E4B41689942044640F08580BF
S31500001020C37803F00303022B74D02369002B6CD121
S31500001030A18F012905D1474BE08F1B6A0192984782
S31500001040019A676ABB7803F07B03BB70E368C4E967
S315000010500462D3B10021CDE90211616194F80380E5
S315000010609D681868AB6908F0030802A908F1FF3506
S3150000107022FA05F59847029B9D4251D86378002BCA
S3150000108059D1013DC4F8148054D194F9190003F0E4
S3150000109069F994F91930002B15DB5A092E4803F02B
S315000010A01F036032012101FA03F340F8223063780E
S315000010B04BB194F91930002B05DB5A0903F01F03D5
S315000010C0994040F82210BB7843F0A003BB706378C8
S315000010D08BB9636913B12046FFF7C0FE94F9193046
S315000010E0002B08DB1C495809012203F01F0302FAF2
S315000010F003F341F820300025284604B0BDE8F0810E
S315000011000125284604B0BDE8F0810825284604B02C
S31500001110BDE8F08146EA0203DB0786D50325F0E742
S3150000112001252046FFF782FEEBE70725284604B097
S31500001130BDE8F0814644E268ABB2956810686D6818
S3150000114031460022A847054600289ED0E9E700BFA1
S31500001150554943530891000000E100E0F8B5002826
S3150000116000F08E804E4B42689A42044640F08580DD
S3150000117011F0FD0F0E4604D00625012E68D928462B
S31500001180F8BD426A937803F07B03937090F91900D7
S3150000119003F0E8F894F91930002B1ADB5909414895
S315000011A02031012203F01F0302FA03F340F8213035
S315000011B0BFF34F8FBFF36F8F94F91930002B08DB05
S315000011C0590903F01F0302FA03F301F1600240F824
S315000011D0223094F91A0003F0C5F894F91A30002B5E
S315000011E01ADB59092F482031012203F01F0302FAA6
S315000011F003F340F82130BFF34F8FBFF36F8F94F99D
S315000012001A30002B08DB590903F01F0302FA03F317
S3150000121001F1600240F82230E568002D33D0AB685A
S315000012202868DB689847637805463BB1626A938A0B
S3150000123043F004039382938A5907FCD40023C4E93C
S3150000124004332046FFF7F2FD002D98D1012E96D8E3
S31500001250A56815B30023A370AB682868DB689847B8
S3150000126005466378002B8AD0636ADA8AD20686D06E
S315000012709A8A42F002029A8281E707252846F8BD3B
S3150000128001252846F8BD6778002FCFD1C4E9047739
S315000012902046FFF7CBFD3D466FE7A5636563E0E7B4
S315000012A05549435300E100E02DE9F0411F4682B065
S315000012B01B4B089D1B6914460022019201AA984700
S315000012C09DF904602E700546E0B9002E1EDB7309F9
S315000012D0DFF85880203306F01F0101228A4048F8C3
S315000012E02320BFF34F8FBFF36F8F2401B0443046E6
S315000012F0E4B203F037F888F800430A4B1B6853F84A
S3150000130036301F60284602B0BDE8F081304603F053
S3150000131029F82401044B06F00F02E4B29C54ECE7D2
S31500001320CC9700009C92000014ED00E000E100E084
S31500001330002879D030B53D4B42689A4283B00446C6
S315000013406FD1436A002242609A7802F00B029A70CB
S3150000135090F91820002A0DDB5109354D2031012066
S3150000136002F01F0200FA02F245F82120BFF34F8F68
S31500001370BFF36F8F94F91B20002A3FDA94F91920E6
S31500001380002A0DDB51092A4D2031012002F01F02EF
S3150000139000FA02F245F82120BFF34F8FBFF36F8F9B
S315000013A094F91A20002A0DDB5109214D2031012024
S315000013B002F01F0200FA02F245F82120BFF34F8F18
S315000013C0BFF36F8F99789A7801F0020161F30102F9
S315000013D0002520469A70FFF711FC2278E561142358
S315000013E0A56201A8ADF80620ADF8043002F016FF9C
S315000013F001A803F011F8284603B030BD51090C4D81
S315000014002031012002F01F0200FA02F245F82120E5
S31500001410BFF34F8FBFF36F8F94F91920002AB1DA0B
S31500001420BEE7072003B030BD01207047554943533E
S3150000143000E100E02DE9F04F95B0002878D00E4687
S31500001440002975D03D4B42689A42044600F07E82E0
S315000014500A78DFF8F480ADF81A2000231422CDE9CB
S315000014600B33CDE90D33ADF81820D8F80C300BA9A5
S3150000147006A89847054618B1284615B0BDE8F08F6E
S315000014800B9F676206A802F099FF05460028F3D174
S31500001490BDF832302A4A0790C3F38103D35C6370E8
S315000014A0D6F8209042F21073E362B9F1000F00F013
S315000014B0388299F80C3099F800A0002B40F0488249
S315000014C00293E27863F38202E270D9F810301D4A83
S315000014D0E3620892FF2270688DF81720BAF1000FB8
S315000014E000F0278204F11B030093F27B23460121BF
S315000014F006A8FFF7D9FE04F118030093327B2346B2
S31500001500022106A8FFF7D0FE054650B904F11903DB
S315000015100093727B2346052106A8FFF7C5FE054604
S31500001520A0B12046FFF76AFB06A802F075FFA3E705
S315000015300125284615B0BDE8F08F00BF5549435335
S31500001540E490000094900000CC97000004F11A0388
S315000015500093B27B2346042106A8FFF7A5FE0546A5
S315000015600028DED13369A360E378012262F3010328
S315000015707269E260E370337A022B00F0EC81D6F8F0
S3150000158010B0BBF1000F6BD0DBF804E00FAB9C464C
S315000015900393BEE80F00ACE80F00DEF80030CCF88D
S315000015A00030DBF80830002B00F0FD81DBF800305E
S315000015B0002B00F0FF81DBF80430002B00F0F381F4
S315000015C01B68002B00F0F6815A8822F4404222F074
S315000015D020025A80327AD978A2F10202B2FA82F255
S315000015E0520962F30511D9703378ADF82A304FF0FD
S315000015F0000B1423ADF82830CDF824B0D8F81030FD
S3150000160009AA02210AA898479DF92430213300F03F
S31500001610CA81BDF82630ADF8403033698DF842B046
S315000016205B681A686378002B00F0D581E378616AFD
S3150000163003F00303022B00F0CC8111315388516073
S3150000164023F4406323F00C0343F00803538033690B
S3150000165003999A68186813689847002840F0AB8188
S31500001660D6F814B0BBF1000F6BD0DBF804E00FAB7B
S315000016709C460393BEE80F00ACE80F00DEF800308E
S31500001680CCF80030DBF80830002B00F08C81DBF85A
S315000016900030002B00F08781DBF80430002B00F0CF
S315000016A082811A68002A00F07E815188D8F81030AD
S315000016B021F4404121F020015180317AD078A1F106
S315000016C00201B1FA81F1490961F30510D07032784F
S315000016D0ADF82A204FF000081422ADF82820CDF8E6
S315000016E0248009AA05210AA898479DF924302133A8
S315000016F000F05981BDF82630ADF8403073698DF899
S3150000170042805B681A686378002B00F06E81E1788E
S31500001710636A01F00301022900F065810F339360CB
S315000017205388039923F4406323F00C0343F40063C6
S31500001730538073699A68186813689847002840F0C0
S315000017403A8199F8143084F83C3099F8153084F8C9
S315000017503D30B9F81630E3872046FFF767FB06A849
S3150000176002F086FD00233B70BB703A7902B13B71F3
S31500001770F221B9710023FF224FF478417A70BA74CE
S31500001780FB713B727B72BB72FB723B737B733B7369
S31500001790B98240217B83F974032139770621397791
S315000017A0BAF1000F40F0DC80BA78089B9DF817105C
S315000017B06AF30102BA707970FA79997861F3861240
S315000017C0FA71FA79D97861F30412FA71FA7919790A
S315000017D061F3C302FA715A793B7862F301033B70F5
S315000017E0029B4BB11B68FF2B00F2DF80FA79DBB25C
S315000017F042F00402FA71BB746278636A1AB39A8A79
S3150000180042F001029A829A8A42F002029A82326970
S31500001810002A00F0D2809A8A6FF30B229A826278AD
S31500001820998A013A62F30F3199829A8A42F0040248
S315000018309A829A8AC2F380015207FAD49A8A61F38D
S3150000184007129A82636A1A78717A42EA0112D2B250
S315000018501A70327A012A00F09D80022A07D11A787E
S315000018606FF386121A709A796FF304129A711A78C6
S31500001870B17A61F3C3021A70F27A1AB15A7B42F056
S3150000188002025A73326A92B1D979907860F3C7111D
S31500001890D971D979D07860F34511D97100211972BF
S315000018A051789A7811439A7861F301029A703378E5
S315000018B02370F36923620023B269E261C4E9043349
S315000018C0A3706363A363BA8A63F3C302BA82BB7865
S315000018D043F01003BB7094F91830002B08DB49491C
S315000018E05809012203F01F0302FA03F341F82030DE
S315000018F094F91B30002B08DB42495809012203F0FA
S315000019001F0302FA03F341F82030BB783E4943F047
S315000019104003BB70626A937843F020039370616062
S31500001920AAE53A4A08927068CDF80890FF228DF829
S315000019301720009308AA029B0DF11701FFF7B8FACA
S31500001940054600287FF4EDAD8246CBE5082593E5F4
S3150000195007AA0292B5E5E27863F30102E2700EE6A9
S315000019607A70FA7963F38612FA71FA7963F3C3022D
S31500001970FA713A7863F301023A70BB78022262F395
S3150000198001039245BB707FF437AFFB7943F0100338
S31500001990FB7131E71A7842F040021A709A7942F0E8
S315000019A010029A7163E70125BBE5FB796AF38203AE
S315000019B0FB7121E701200546B3E56278316A013AF9
S315000019C092B2D1B109790A40998A62F30B219982C0
S315000019D025E7103132E6E378616A03F00303012B51
S315000019E0F7D105312AE60E3399E6E178636A01F00C
S315000019F003010129F7D1033391E6998A62F30B219A
S31500001A0099820CE700E100E05549435394900000A9
S31500001A104378426A3BB1107C537C43EA0023C3F30C
S31500001A2008030B607047C37803F00303022B05BF5E
S31500001A30107C537C537943EA00230B60704700BF48
S31500001A4010B584B0026A436B047803928022009436
S31500001A50ADF804202BB9C36902916846984704B0D3
S31500001A6010BD826B9342FAD9C378846B03F00302EC
S31500001A70022A03F00303026B234483631170036B92
S31500001A8010D001330363826B436B9A42E7D1002384
S31500001A900121C269836343630293ADF8041068466B
S31500001AA09047DCE75A1C090A02635970036B01333D
S31500001AB00363E8E7F0B583B04378446A002207463B
S31500001AC0019223B3FE26BF252671FB69BBB1E38ACB
S31500001AD0D8060CD0237C617C41EA0321C1F30801BE
S31500001AE038460191FFF7ACFFE38AD906F2D125719A
S31500001AF02379DB07E8D403B0F0BD237C637CE38A5B
S31500001B00DA06FAD125712379DB07DDD4F3E701A9DB
S31500001B10FFF77EFFFB69002BEDD001993846FFF7F2
S31500001B208FFF03B0F0BD00BFF0B585B0EFF30580C1
S31500001B3003F042FFEFF30383A3F1100040B20093DA
S31500001B4002F010FCEFF3038241490092A2F1100368
S31500001B5009685BB251F833301C6824B1E568676ADE
S31500001B6045B16369F3B1EFF3058005B0BDE8F04018
S31500001B7003F020BF6678002E62D0FB8AC3F30423ED
S31500001B80F61A002E07DD6369013520460BB1FFF713
S31500001B9065F9AE42F7D13B796FF3C7133B716369C1
S31500001BA0002BE0D194F91A0002F0DCFB94F91A300C
S31500001BB0002B09DB5A09274803F01F036032012175
S31500001BC001FA03F340F82230BB7803F07F0343F0B9
S31500001BD00403BB7094F91930002B0DDB5A091D481C
S31500001BE00121203203F01F0301FA03F340F82230EB
S31500001BF0BFF34F8FBFF36F8F94F91A30002B08DBBA
S31500001C0014495809012203F01F0302FA03F341F8AD
S31500001C102030E36900222261002BA4D020780090B6
S31500001C204FF480710292ADF80410226A039268465E
S31500001C309847EFF3058005B0BDE8F04003F0BABE63
S31500001C406369002BAED02046FFF708F989E700BF8D
S31500001C509C92000000E100E010B584B0EFF305802F
S31500001C6003F0AAFEEFF30383A3F1100040B2009342
S31500001C7002F078FBEFF3038214490092A2F11003FD
S31500001C8009685BB251F83330186878B18378012B54
S31500001C9013D1C2690478002181703AB1009402918F
S31500001CA0016A0391ADF8043068469047EFF305806A
S31500001CB004B0BDE8104003F07DBEFFF7FBFEEFF376
S31500001CC0058004B0BDE8104003F074BE9C9200008D
S31500001CD030B585B0EFF3058003F06EFEEFF30382B7
S31500001CE01F490092A2F1100309685BB251F8333024
S31500001CF01C681CB3626A2078937803F07B039370A8
S31500001D0094F91A30002B0DDB5A09164D20320121A9
S31500001D1003F01F0301FA03F345F82230BFF34F8F98
S31500001D20BFF36F8FE3694BB102220021009002914D
S31500001D30ADF80420226A039268469847EFF30383BE
S31500001D40A3F1100040B2009302F00CFB2046FFF70F
S31500001D506DF8EFF3058005B0BDE8304003F02ABE0C
S31500001D609C92000000E100E070B586B0EFF30580BC
S31500001D7003F022FEEFF3038222490292A2F110033E
S31500001D8009685BB251F833301C68F4B1656A26788D
S31500001D90002301A92046029301930393049305931C
S31500001DA0FFF736FE2B7999061DD52023ADF80C30AA
S31500001DB02B7903F0C7032B71E36933B1019A0296BD
S31500001DC00492226A059202A89847EFF30383A3F1CF
S31500001DD0100040B2019302F0C5FAEFF3058003F05C
S31500001DE0E9FD06B070BD2B79DA0607D52B7FDB0738
S31500001DF054BF10230823ADF80C30D9E70423ADF8FF
S31500001E000C30D5E79C92000010B40B4B1C68B4EB69
S31500001E10102F03D803205DF8044B704749B15B6867
S31500001E205DF8044B020A520104330020D3580B809C
S31500001E3070470120EFE700BFB802FE1FD2B110B411
S31500001E400D4B1C68B4EB102F4FEA102C03D803205F
S31500001E505DF8044B70475B6822EA01004FEA4C1CB0
S31500001E6008330A4042EA00424CF8032000205DF89D
S31500001E70044B704703207047B802FE1F12B310B41C
S31500001E80114B1C68B4EB102F4FEA102C03D803201B
S31500001E905DF8044B70475C684FEA4C1C02EA01038C
S31500001EA054F80C00034361EA02019AB2114054F857
S31500001EB00C20120C1204114344F80C1000205DF89B
S31500001EC0044B704703207047B802FE1F10B40B4B3B
S31500001ED01C68B4EB102F03D803205DF8044B704741
S31500001EE051B15B685DF8044B020A520104330020CD
S31500001EF0D3581B0C0B8070470120EEE7B802FE1F7B
S31500001F0010B40D4C2368B3EB102F03D803205DF8F3
S31500001F10044B7047002AF9D063684FEA102C083347
S31500001F2022EA010003EB4C130A4042EA00425A60DF
S31500001F3000205DF8044B7047B802FE1F20B14FF039
S31500001F4002230360002070470120704738B50488DB
S31500001F50002C4DD043680021043303EBC40040F24B
S31500001F6002450C4640F2034C40F2044E0FE0624537
S31500001F7030D153F8042C02F0B852B2F1807F14BF6E
S31500001F8041F0020144F002040833834211D01A885A
S31500001F90AA42ECD153F8042C02F0B852B2F1807F79
S31500001FA003F1080314BF41F0010144F00104834228
S31500001FB0EDD1C943CDB2012002F0ACFA0D4B93F836
S31500001FC0BB2414432C4083F8BB44BDE838400120B1
S31500001FD002F070BA7245D7D153F8042C02F0B85209
S31500001FE0B2F1807F0CBF44F0040441F00401CBE75A
S31500001FF0FF25E0E700E00140012958D870B42E4BD8
S315000020001A68B2EB102F4FEA102409D99A68C0B2A9
S3150000201052F8245000F110060122B2402A4202D1A1
S31500002020032070BC704700EB0410D3E9035454F846
S31500002030203000293DD043F00401204E0E40EFF33E
S31500002040108C012383F310881D4B1A8892B212B9A3
S31500002050EA704022EA701A88013292B21A808CF332
S31500002060108811F4803F54F8202007D022F48032E3
S3150000207044F82020134A0A4044F8202044F82060FF
S31500002080EFF31081012282F310881A8892B21AB1F6
S315000020901A88013A92B21A801B889BB213B9802221
S315000020A0EB70EA7081F31088002070BC7047032043
S315000020B0704723F00401C0E7B802FE1FD5FC011FDC
S315000020C01803FE1FD5FC001F70B582B0044600251C
S315000020D001A80E468DF8045001F09EFF9DF80430CD
S315000020E0DB0713D5202C0ED8012E0CD8094BDB6844
S315000020F01A780CBF22EA04041443284604F030047C
S315000021001C7002B070BD032002B070BD062002B084
S3150000211070BD00BFB802FE1F002861D02DE9F04750
S3150000212043680646002B58D0FFF710FF3388002B74
S3150000213050D02C4F2C4A4FF0000C4FF0010E4FF0B0
S31500002140400A4FF080097168F8681FFA8CF401EBB9
S31500002150C40351F834509B883C69190ADBB203EB7F
S315000021600113EFF310888EF31088118889B211B924
S31500002170C17080F803A01188013189B2118088F3FB
S31500002180108815F4803F54F8231007D021F48031CD
S3150000219044F8231025F4803144F8231044F82350E2
S315000021A0EFF310818EF3108813889BB21BB113884E
S315000021B0013B9BB2138013889BB213B9C37080F89E
S315000021C0039081F3108831880CF1010C1FFA8CF30F
S315000021D09942B8D80020BDE8F0870120BDE8F08715
S315000021E001207047B802FE1F1803FE1F00282ED0DC
S315000021F070B5436886B00446002B2AD01649174DA1
S31500002200CE68092200230192CDE90233CDE90433D9
S3150000221002A901A8B0470A238DF80430029B6B601F
S31500002220059BAB6002A9BDF80C302B6001A8B04736
S31500002230012302A98DF8053001A8029B2B61B04746
S31500002240029BEB602046FFF767FF06B070BD0120DA
S315000022507047012006B070BDCC970000B802FE1F83
S3150000226030B4124C2268B2EB102F0CD9A268030AC4
S31500002270C0B252F8235000F1100C012202FA0CFCF5
S315000022801CEA050F02D1032030BC704751B1226908
S3150000229000EB031330BC52F82330C3F34003002095
S315000022A00B707047104630BC704700BFB802FE1F67
S315000022B030B4154C2368B3EB102F0CD9A368020A6F
S315000022C0C0B253F8225000F1100C012303FA0CFCA3
S315000022D01CEA050F02D1032030BC704789B164683F
S315000022E05201043403FA00F0145982B200EA144091
S315000022F0824214BF0020002030BC0CBF0B70087057
S315000023007047184630BC7047B802FE1F10B5174A12
S315000023101468B4EB102F0DD9030A9468C0B254F8B0
S31500002320234000F1100C4FF0010E0EFA0CFC1CEAD3
S31500002330040F01D1032010BD7145FBD852680CD0A3
S31500002340083202EB43130EFA00F0596841EA0041E5
S31500002350090C09045960002010BD083202EB431332
S3150000236081405868014389B2F4E700BFB802FE1FF6
S31500002370012921D830B4124C2368B3EB102F4FEA51
S3150000238010220BD9A368C0B253F8225000F1100CEA
S31500002390012303FA0CFC1CEA050F02D1032030BC12
S315000023A0704703FA00F049B183B2616852010831FF
S315000023B00020535030BC7047032070470304F4E7F5
S315000023C0B802FE1F2DE9F0412E4D2B68B3EB102FFE
S315000023D084B00CD9AB68060AC7B253F8263007F1A9
S315000023E010024FF0010808FA02F21A4203D1032044
S315000023F004B0BDE8F08102ABADF80C0068460C46AF
S3150000240002910193ADF80080FFF7A0FDD5E90351D5
S3150000241007EB0613EFF3108688F310881A48028834
S3150000242092B212B9EA704022EA700288013292B280
S31500002430028086F31088E60351F8232007D522F49C
S31500002440803241F8232024F4803241F8232041F8D9
S315000024502340EFF31082012383F3108803889BB295
S315000024601BB10388013B9BB2038003889BB213B95F
S315000024708021EB70E97082F31088002004B0BDE87B
S31500002480F08100BFB802FE1F1803FE1F034B043085
S315000024901B6823F820100020704700BF1C03FE1F96
S315000024A0034B1A68031D002022F82300704700BF63
S315000024B01C03FE1F034B1A68137843F080030020A9
S315000024C0137070471C03FE1F034B1A6813786FF3D3
S315000024D0C7130020137070471C03FE1F20B14FF076
S315000024E002230360002070470120704770B586B054
S315000024F0002833D01B4A00230B21CDE90113CDE977
S315000025000333D2680593044602A901A890470546FD
S3150000251010B1284606B070BD134E029B336001A869
S3150000252001F0A6FE636873B130682B46A26812F804
S31500002530231002EB83020431528820F821206268BE
S3150000254001339A42F2D82378002BE2D0326813780E
S31500002550284643F08003137006B070BD0125284657
S3150000256006B070BDCC9700001C03FE1F60B10128A9
S3150000257008D1094B1B6800204021412218711971AE
S315000025801A71704701207047034B1B684021412296
S31500002590987099709A7070471C03FE1F062070474A
S315000025A00620704790B10A4B02689A420CD190F906
S315000025B00630084AC033126852F823106FF31861C8
S315000025C042F823100020704707207047012070470B
S315000025D0004354442803FE1F20B14FF0022303603A
S315000025E00020704701207047002830D0234B026836
S315000025F09A422ED159B310B4214B1B68DB890022B5
S315000026008A7113F4004F9AB290F906302AD11D4C04
S3150000261054F82320D37803F0C003802B2AD0D38923
S315000026209BB28B80D27802F0C002402A04BFDBB294
S315000026308B8090F9063054F82330D87810F0C0001B
S3150000264009D14FF480335DF8044B0B6070470120CD
S315000026507047072070474FF4807300205DF8044BE5
S315000026600B60704752B29342D1D101238B7190F91E
S315000026700630CCE793898B80DBE700BF00435444E8
S315000026802403FE1F0000FE1F10B3124A0168914288
S31500002690034619D190F9062012F1210F16D010B475
S315000026A00D490E4C0968C03251F822006FF31860CC
S315000026B041F8220093F90610002244F821201A60FE
S315000026C010465DF8044B7047072070470B20704793
S315000026D001207047004354442803FE1F0000FE1FDC
S315000026E050B31F4B02689A4228D190F9063013F175
S315000026F0210F2ED01B4A52F823209168E1B1516870
S31500002700D1B1D17801F03001102919D0202910D08B
S31500002710154AC033126852F823106FF3104142F87D
S31500002720231052F8231041F0807142F82310002044
S315000027307047916889070ED00120704707207047BF
S31500002740906810F00100F8D1506810F00100DFD059
S3150000275070470B20704752689207EDD1D8E700BF4B
S31500002760004354440000FE1F2803FE1FF0B583B04B
S315000027700191009200284AD090F90620294D55F87B
S315000027802240E17811F0C00136D1274904688C4215
S3150000279040D12649264C09682468C03251F8226087
S315000027A06FF3186641F8226022786FF304122270E4
S315000027B0019A2AB190F90620019955F82220516014
S315000027C0009A2AB190F90620009955F822209160C6
S315000027D090F9062055F82210CA7802F0C002802A25
S315000027E01ED002B9CB81FFF77BFF237843F010039D
S315000027F0237090B903B0F0BD7BB10B4E0768B742AA
S3150000280008D18029C5D1E18989B20029C1D1012029
S3150000281003B0F0BD072003B0F0BD132003B0F0BD38
S315000028208B81E0E70000FE1F004354442803FE1F8F
S315000028302403FE1FF0B583B001919DF820C0BDF8BA
S3150000284024600092002853D090F906202C4C54F8AE
S315000028502210C97801F0C00180294CD1002E47D042
S31500002860002B45D0274905688D4247D12649274D7B
S3150000287009682D68C03251F822706FF3186741F865
S3150000288022702A786FF304122A70019A2AB190F9FD
S315000028900620019954F822205160009A2AB190F935
S315000028A00620009954F82220916090F9062054F8E9
S315000028B02220968190F9062054F82220D38190F99F
S315000028C0063054F82330DA786CF30512DA7090F992
S315000028D0063054F823309A7BDA73FFF701FF2B7822
S315000028E0002843F0100318BF13202B7003B0F0BD6F
S315000028F0012003B0F0BD062003B0F0BD0720F8E7C5
S315000029000000FE1F004354442803FE1F2403FE1F3D
S3150000291000287CD02DE9F0470D4686B0002954D01A
S315000029200B68002B51D0DA7812F0C00F064647D15B
S31500002930504B32689A424CD04F4F3B78002B4CD0CC
S315000029404E4B1C68B5F804E0002302E00133702BFF
S315000029505FD003F1C00C59B254F82C20C2F3080220
S315000029609645F3D154F82C20454CC2F30802B280A8
S3150000297054F823206ABB2A68D07810F0C00F1CBF19
S31500002980907BD073907810F0C00002F11002F3D162
S315000029903C4ADFF8E0C017683A7860F304123A70F0
S315000029A02A6844F82320B171C6F800C0A879002827
S315000029B036D13B7843F010033B7006B0BDE8F08794
S315000029C0DB899BB2B3F5807FB2D9012006B0BDE8A2
S315000029D0F087082006B0BDE8F0870822CDE901237C
S315000029E0CDE903330593284B0DEB0201DC6801A802
S315000029F0A0470028EAD1DFF88C90029BC9F8003086
S31500002A0001A801F0DBFC8046A8B10A20DEE7012020
S31500002A107047D4F87C32C3F308030B20B380D5E7A4
S31500002A203046FFF75DFE3B78002843F010033B700D
S31500002A3018BF1320CAE7DFF848A001A801F018FC68
S31500002A4041464FF4E072504604F0EAFCD9F80030F3
S31500002A50C3F804A01A7B42F001021A7306238DF80C
S31500002A60043002A901A8A047044B029C1C60012364
S31500002A703B7067E7004354442003FE1F2803FE1FF4
S31500002A800000FE1F2403FE1FCC970000062070479F
S31500002A90062070470620704720B14FF002230360DE
S31500002AA0002070470120704732490B6893F82820B0
S31500002AB002F03003102B0CD0202B02D000238B61A8
S31500002AC0704790F82B302C4A9B0932F813305BB9CB
S31500002AD07047038D10B403F00303284C34F8133009
S31500002AE003BB5DF8044B704707EE903AB8EE677A81
S31500002AF0D1ED047A90F82B30F8EE676A03F01F03E5
S31500002B00C6EE877A07EE103AB8EE477AF7EE006A15
S31500002B1037EE267A67EE877AFCEEE77A17EE903A7A
S31500002B208B617047520622D5028D12F0100F0CBF32
S31500002B300322002201EB820207EE903AD2ED016AEF
S31500002B40038DF8EE677AF8EE666AC3F3052386EE20
S31500002B50A77A013307EE903AFAEEEF7A67EE277A14
S31500002B60FCEEE77AC1ED067A5DF8044B7047032266
S31500002B70E0E700BFCC02FE1F0092000010920000AA
S31500002B8051B3062810B429D005280AD004282DD020
S31500002B90D8B1012842D0022838D003282ED00320ED
S31500002BA010E0224C0023E0690B60026AC2F3027255
S31500002BB090F8263003F0070304EB830300205B68DC
S31500002BC0D3400B605DF8044B7047184C0860E06911
S31500002BD0026AC2F30232EBE701207047134C00236E
S31500002BE0E0690B60026AC2F30262E1E70F4C002360
S31500002BF0E0690B60026AC2F30242D9E70B4C00237C
S31500002C00E0690B60026A02F00702D1E7074C002375
S31500002C10E0690B60026AC2F30212C9E7034C0023A3
S31500002C20E0690B60026AC2F30222C1E7CC02FE1F12
S31500002C3038B5084BDD690446002001F06BFC95F8B9
S31500002C40303064F30003002085F8303001F032FCA8
S31500002C50002038BDCC02FE1F10B5084BDC690020F1
S31500002C6001F058FC94F8523043F00103002084F838
S31500002C70523001F01FFC002010BD00BFCC02FE1F29
S31500002C8010B5084BDC69002001F044FC94F8523082
S31500002C906FF30003002084F8523001F00BFC002093
S31500002CA010BD00BFCC02FE1F10B5084BDC6900202A
S31500002CB001F030FC94F83E3043F08003002084F8A5
S31500002CC03E3001F0F7FB002010BD00BFCC02FE1F16
S31500002CD010B5084BDC69002001F01CFC94F83E306E
S31500002CE06FF3C713002084F83E3001F0E3FB0020A9
S31500002CF010BD00BFCC02FE1F10B5084BDC690020DA
S31500002D0001F008FC94F8533043F00103002084F8E6
S31500002D10533001F0CFFB002010BD00BFCC02FE1FD8
S31500002D2010B5084BDC69002001F0F4FB94F8533031
S31500002D306FF30003002084F8533001F0BBFB002042
S31500002D4010BD00BFCC02FE1F38B5084BDD69044636
S31500002D50002001F0DFFB95F8243064F30613002011
S31500002D6085F8243001F0A6FB002038BDCC02FE1FFA
S31500002D7030B583B001F0A6F84FF0E02301901D694D
S31500002D80186910F0020028D0DDED017A164CF8EE35
S31500002D90677AF7EE006A86EEA77A0020186194F843
S31500002DA02320D1B2DFED117ADFED116A27EE277A03
S31500002DB0C6EE877AFCEEE77A17EE902A013AB2F170
S31500002DC0807F0CD25A61F02284F8232001F0F001B2
S31500002DD0072298611A6184F8231003B030BD1220CF
S31500002DE01D6103B030BD00BF00ED00E00024744952
S31500002DF000401C4608B1FFF7BBBF0320704700BF69
S31500002E00052827D070B5144B0428DD6904460E4604
S31500002E1006D195F88034DB0702D54FF4C87070BD33
S31500002E20002001F077FB95F83E306FF3C71385F865
S31500002E303E3095F83E3066F3061385F83E3095F839
S31500002E403E3064F30203002085F83E3001F032FB89
S31500002E50002070BD03207047CC02FE1F38B5002449
S31500002E6002F0070261F30E349DF810C09DF81410AD
S31500002E7062F30A2463F306140E4B6CF302041B6818
S31500002E8061F312449DF8181093F82A3061F31E740A
S31500002E909DF81C10054661F31A645B0748BF62F390
S31500002EA01244002001F036FB2C62BDE838400020B9
S31500002EB001F000BBCC02FE1F10B5174BDC6994F87D
S31500002EC04120D00706D494F84130DB074FF00000CC
S31500002ED010D410BD1A6894F8263092F828205106AE
S31500002EE003F0070313D4052B01D0032BEBD140F2DB
S31500002EF0971010BD01F00EFB94F841306FF30003FC
S31500002F00002084F8413001F0D5FA002010BD228D52
S31500002F10D206EAD4E7E700BFCC02FE1F06207047C0
S31500002F20062070470620704706207047024630B3D9
S31500002F3029B3144BDB6993F826C0CCF3020C82F854
S31500002F4000C01A6AC2F302320A701A6AC2F3022277
S31500002F504A701A6AC2F302128A701A6AC2F302022D
S31500002F60CA701A6AC2F302420A711A6AC2F302727C
S31500002F704A711B6AC3F3026300208B7170470120FC
S31500002F80704700BFCC02FE1F2DE9F84300295AD036
S31500002F90002874D03D4DEB6993F8AA4014F0010463
S31500002FA06DD193F8A020196A1C6A1F6A2E68C7F3B0
S31500002FB0021C1F6A07F0070E1F6AD3F820901B6ACF
S31500002FC0C3F30268B36802F00302C1F30231C4F32B
S31500002FD00224C7F30247C9F3027953B3032A28D15F
S31500002FE033698B422DD8A3422BD8634529D8734524
S31500002FF027D84B4525D8BB4223D8434521D801467F
S31500003000012001F01FF8EC69002001F083FA94F822
S31500003010403043F0800384F8403094F8403043F069
S315000030200103002084F8403001F044FA0020BDE896
S31500003030F883F368002BE2D0022AE0D173698B4251
S31500003040D1D90520F3E7114BDD6995F84130DB074F
S3150000305018D408460C4601F05DFA95F8403064F342
S31500003060000385F8403095F8403064F3C7132046D6
S3150000307085F8403001F01EFA2046BDE8F8830120AD
S31500003080BDE8F8834FF4CB70BDE8F883CC02FE1F91
S3150000309070B5434D88B0284600F0C6FF414A00236C
S315000030A00321CDE90433CDE906330191D26804A9A1
S315000030B001A89047049CEC614FF6FF73029394F8C5
S315000030C03630DE0754D5002001F024FA94F8A530F6
S315000030D0062262F3020384F8A530002001F0EAF923
S315000030E02B68EC69D3E906232B612F4BAB600020DC
S315000030F04FF400434FF6FF766A60A861EB606B61A0
S31500003100029601F007FA94F8803443F0010384F83C
S315000031108034002001F0CEF9EC69039694F88034EF
S31500003120D80714D5039BFBB12B68226A93F822506B
S3150000313094F82630002001F0EDF994F88034DB078E
S3150000314027D4002001F0B6F9002008B070BD039B1B
S31500003150002BE7D0039B013B039394F88034DA07F6
S31500003160F5D5039B002BDFD14FF4CD7008B070BDB1
S3150000317094F83C30D90708D4029B33B1029B013B3B
S31500003180029394F83C30D907F6D5029B002B9AD1CE
S31500003190EAE794F8813423EA050384F88134D0E71A
S315000031A0CC02FE1FCC97000000127A0005292ED80B
S315000031B0DFE801F00A11181F260390F82A0000F034
S315000031C0010080F00100704790F8360000F0010021
S315000031D080F00100704790F8380000F0010080F0A0
S315000031E00100704790F8900400F0010080F00100A3
S315000031F0704790F8320000F0010080F0010070473F
S3150000320090F8800400F0010080F001007047002073
S31500003210704700BF052867D870B5554D0446E86964
S3150000322090F8263003F007039C4282B020D0052B8D
S3150000323011D090F82A30DB070DD5012C1CD190F85F
S315000032404030DB0978D12146FFF7B0FF002866D170
S31500003250002002B070BD2B6893F828305E0669D551
S31500003260038D13F0100F0CBF032300239C42E4D1FF
S3150000327040F2911002B070BD2146FFF797FF00287B
S31500003280E6D0032CEE693CD0052C07D196F83C30ED
S315000032909B0654D440F2931002B070BD34BB96F82E
S315000032A03C30D907F6D5204601F034F996F8363089
S315000032B043F0010386F83630002001F0FBF84FF6A4
S315000032C0FF73019304E0019B43B1019B013B019312
S315000032D0E8692146FFF76AFF0028F4D1019B002B1D
S315000032E0B6D14FF4CD70B4E703207047002001F04B
S315000032F011F9631E042BDFD8DFE803F015320A2B21
S31500003300240096F83C301A07C4D5002001F002F9D3
S3150000331096F8323043F0010386F83230CCE70020CD
S31500003320EE6901F0F7F896F8383043F0010386F8B5
S315000033303830C1E7032399E740F2951089E700206A
S3150000334001F0E8F896F82A3043F0010386F82A30AF
S31500003350B2E796F8803443F0010386F88034ABE791
S3150000336096F8903443F0010386F89034A4E700BF42
S31500003370CC02FE1F05281DD808B5431E012B0146A9
S3150000338008D9042806D068B1032815D005281FD00F
S31500003390002008BD194BD869FFF708FF38B140F285
S315000033A0911008BD154AD069FFF700FFF0B94FF438
S315000033B0C87008BD03207047104AD069FFF7F6FEB3
S315000033C00028F4D0D36993F83C301B070BD512E0E4
S315000033D00A4AD069FFF7EAFE0028E8D0D36993F8D5
S315000033E03C30990607D440F2931008BDD36993F890
S315000033F03C30DA07F7D54FF4C97008BDCC02FE1F82
S3150000340030B583B04FF6FF730446012001930D4695
S3150000341001F080F800230DF103008DF8033000F071
S31500003420CBFC94F8AA30D80605D494F8A030D90677
S31500003430C3F300120AD5019B013B0193019B002BAC
S31500003440EFD1012001F036F803B030BD94F8AA3070
S315000034504FF6FF7162F3000384F8AA30019102E08F
S31500003460019B013B019394F8AA30DA0603D494F841
S31500003470A030DB0602D5019B002BF1D194F8A030D9
S31500003480042D0CBF43F0030365F3010384F8A03059
S315000034904FF6FF73019302E0019B013B019394F801
S315000034A0AA30D80603D494F8A030D90602D5019BD9
S315000034B0002BF1D194F8AA30042D0CBF43F0010380
S315000034C06FF3000384F8AA304FF6FF73019302E00E
S315000034D0019B013B019394F8AA30DA0603D494F8D1
S315000034E0A030DB0602D5019B002BF1D19DF803002D
S315000034F000F076FC012000F0DDFF03B030BD00BF18
S315000035000428124B0ED002280CD01A6892688A4200
S3150000351007D3D86990F82A30DB0702D50321FFF7D5
S315000035206FBF7047D86990F82A20D207EDD590F87A
S315000035303220D207E9D590F83620D207E5D590F8A3
S315000035403820D207E1D50421FFF75ABFCC02FE1F6F
S315000035502DE9F041052888B02BD80C46002900F04B
S31500003560AE800B788A79934223D34978994220D347
S31500003570E17899421DD8637993421AD32179914211
S3150000358017D30428074619D0674EF06990F82630FD
S3150000359003F007039F4228D0002F00F0BC80032FC2
S315000035A040F0AE8090F83C301A071ED440F29315D6
S315000035B000E00325284608B0BDE8F081134340F03B
S315000035C0A880594EF06990F84030DB0940F0A180A0
S315000035D090F8263003F00703042B06D03946FFF790
S315000035E0E5FD002800F09D80F069036A036A036A1E
S315000035F0036A036A036A036A0021C3F30268FFF7DA
S31500003600FFFE00238DF810308DF81C3006EB870383
S31500003610A2795B68D3400593F3691A6A93F826305A
S3150000362003F0070306EB8303C2F302625B6804A898
S31500003630D340069300F056FC05460028BAD1A3797C
S31500003640984541D203936379029323790193E378F2
S315000036500093A37862782178F069FFF7FFFBF4699D
S31500003660284600F057FF94F8263067F302032846F1
S3150000367084F8263000F01EFFF3691A6A93F82630A4
S3150000368003F0070306EB8306C2F3026273680121A7
S31500003690D34004A88DF81010069300F023FC0546CD
S315000036A0002887D100F00EFC204B01461860002848
S315000036B037D03846FFF724FFFFF75AFB7AE7012594
S315000036C0284608B0BDE8F081D6F81C8000F022FF3D
S315000036D098F8263067F30203284688F8263000F06B
S315000036E0E9FEA37903936379029323790193E3783F
S315000036F00093A37862782178F069FFF7AFFBBBE708
S31500003700052F7FF46BAF90F83C309B063FF56DAF0D
S315000037104CE705254EE790F83C30D9073FF565AFF5
S3150000372044E74FF4C87545E7CC02FE1F7803FE1F39
S315000037302DE9F0432DED028B042883B0044668D0B2
S31500003740012800F0498120BBB74DEE6996F83C3060
S31500003750DB0700F1538196F8AA30DF0700F15581A7
S3150000376096F8A030002000F0D5FE96F836306FF3BC
S31500003770000386F83630002000F09CFE4FF6FF73FB
S31500003780EA690193052C1BD8DFE804F0343E392F93
S315000037902016032800F0CE8005285BD0A24D00201D
S315000037A0EE6900F0B7FEA31E032BE4D8DFE813F0A2
S315000037B00D0106014400BB0092F82A30DB0709D54B
S315000037C0019B3BB1019B013B0193DBE792F88034FF
S315000037D0D907F5D4019B002B14BF00204FF4CD7000
S315000037E003B0BDEC028BBDE8F08392F83230DD0702
S315000037F0E6D4EFE792F83630DB07E1D4EAE792F851
S315000038009034DE07DCD4E5E792F83830DF07D7D40A
S31500003810E0E7854D2B68EE6993F82270002000F0F2
S3150000382079FE96F88034D9070DD4002000F042FEC8
S315000038300020EE6900F06EFE96F880346FF3000308
S3150000384086F8803497E796F8813423EA070386F8EA
S315000038508134EAE70E46002900F0EE80724D727858
S315000038602B6893F824109142C0F0DB8093F8262051
S3150000387096ED017A07EE902AF8EE677AF4EEC77AAB
S31500003880F1EE10FA00F1CD8093F8253007EE903A6C
S31500003890F8EE677AB4EEE77AF1EE10FA00F1C1803D
S315000038A03178032902D0002940F0BB80E869FFF790
S315000038B07DFC002800F0C280EF6997F83C3099063D
S315000038C000F19C8097F8AA30DA0700F1BA8097F8E1
S315000038D0A03096F80080002000F01CFE3B8DB8F169
S315000038E0030F0CBF6FF3041343F010033B85002056
S315000038F000F0E0FD2B68EF6993F8283096F8018018
S3150000390003F03003102B00F0D080202B00F09F80B6
S315000039103846FFF7C9F8E8690021FFF771FD002076
S31500003920EE6900F0F7FD96F82A306FF3000386F88B
S315000039302A3020E73C4DEF6997F83C301E075DD4EE
S3150000394097F8AA30D80771D497F8A0302B680020D2
S3150000395093F8276093F8208093F8219000F0DAFD21
S3150000396097F8133406FA09F25BB25A4002EA0802E3
S315000039705340DBB287F81334002000F09BFDEE695C
S31500003980002000F0C7FD96F813346FF3861386F80F
S315000039901334002000F08EFDEE69002000F0BAFD21
S315000039A096F8A230052262F3030386F8A2300020BF
S315000039B000F080FD0020EE6900F0ACFD96F8323094
S315000039C06FF3000386F83230D5E696F890346FF33D
S315000039D0000386F89034CEE6134DEE6996F8AA30C9
S315000039E0DA0718D496F8A030002000F093FD96F878
S315000039F038306FF3000386F83830BCE640F2931097
S31500003A0003B0BDEC028BBDE8F08330460321FFF71F
S31500003A10F7FCEE69A6E630460321FFF7F1FCEE69F6
S31500003A20E2E70320DCE600BFCC02FE1F3846214653
S31500003A30FFF7E6FCEF6989E70120D1E64FF4CA708B
S31500003A40CEE638460321FFF7DBFCEF6941E72F4B53
S31500003A50002033F8188000F05DFD97F82B3068F3EE
S31500003A60871387F82B30002000F024FD2B68EF69C0
S31500003A7093F8283096ED018A03F03003102B2ED0F0
S31500003A80202B10D1002000F045FDFCEEC87A97F8F7
S31500003A902B2017EE903A013B63F3040287F82B20A4
S31500003AA0002000F007FDEF6932E7194B002033F8DC
S31500003AB0189000F02FFD3B8D69F301033B85002034
S31500003AC000F0F8FC2B6893F8283003F03003202B25
S31500003AD0BDD0102BEF697FF41BAF96ED018A002055
S31500003AE000F018FD78EE087A3A8DFCEEE77A0020B1
S31500003AF017EE903A013B63F30D223A8500F0DAFCAB
S31500003B002B6893F8283003F03003B9E7F8910000EA
S31500003B100892000005280AD808B5194A431ED2693A
S31500003B20042B27D8DFE803F00D21171C050003201E
S31500003B30704792F82A30DB0707D5BDE80840FFF743
S31500003B40F7BD92F83830DB07F7D41046FEF7ACFF26
S31500003B5040F2911008BD92F83230DB07EDD4F4E75D
S31500003B6092F88034DB07E8D4EFE792F89034DB076D
S31500003B70E3D4EAE792F83630DB07DED4E5E700BFA8
S31500003B80CC02FE1F2DE9F04383B0012801910C46BB
S31500003B901CD0022803D0002003B0BDE8F08305291D
S31500003BA0164619D0DFF8A080D8F81C002146FFF78A
S31500003BB0FDFA00283DD1311D2046FFF7B9FD00284A
S31500003BC0E9D040F291139842E5D0E5E7084603B004
S31500003BD0BDE8F043FFF71EBB1279052A27D8DFF8A8
S31500003BE068801146D8F81C00FFF7E0FA30BB314672
S31500003BF01046FFF79DFDA8B996F804904FF6FE759E
S31500003C0040F2931701E0013DC6D04846FFF7B2FBEC
S31500003C10B842F8D00028C7D06FF4C873C318012B78
S31500003C20C2D9B9E740F291139842E5D0B4E7032030
S31500003C30B2E7D8F81C00FEF737FFACE7D8F81C004F
S31500003C40FEF732FFD8E700BFCC02FE1F2DE9F04792
S31500003C5082B0002854D0DFF85C810678D8F81C3092
S31500003C6090F815A093F826701A6A1A6A1A6A1A6AE0
S31500003C701A6A1A6A1B6AC37C8DF80230037D8DF8B6
S31500003C800130C37D8DF803308146837D007E8DF83B
S31500003C9000A0052E07F007078DF804308DF8050003
S31500003CA029D806F108036B4413F8083C012B22D0EF
S31500003CB0022809D199F80430052B1CD808336B4427
S31500003CC013F8083C012B16D04A460521FFF75AFF88
S31500003CD00446002849D140F29115E1B24A465046C1
S31500003CE00134FFF74FFF08B1A84249D1052C0CD08B
S31500003CF01DF804A0F1E70324204602B0BDE8F087D2
S31500003D000124204602B0BDE8F0874FF6FE7540F26A
S31500003D10931A01E0013DEFD03046FFF72BFB5045EB
S31500003D200446F7D020B16FF4C8754319012BE3D8C8
S31500003D30042E27D0002509F10C013046FFF708FCB8
S31500003D4004460028D8D1BE4206D007F108036B44CA
S31500003D5013F8083C012B0ED0002DCDD000F0B2F8A0
S31500003D6001463046FFF7CCFBC6E740F29113984276
S31500003D70C2D10024AFE73846FFF74CFA0028EBD053
S31500003D800446B9E7D8F81C3093F82A20D0070ED598
S31500003D9093F83220D1070AD593F83620D20706D5F4
S31500003DA093F8385005F0010585F00105C3E70125B4
S31500003DB0C1E700BFCC02FE1F034668B1074AB2F84E
S31500003DC00011C1F30001197092F800316FF300037E
S31500003DD0002082F8003170470120704700C0014082
S31500003DE0104991F8043143F0010381F80431B1F828
S31500003DF004318446D8070AD54FF0FF3300E07BB183
S31500003E00B1F80421D20703F1FF33F8D443B1054AD0
S31500003E1092F800316CF30003002082F800317047FD
S31500003E201420704700C0014070B5244D82B02B6845
S31500003E3098470120FFF7D4FFAE6800210320B04762
S31500003E401F4AEC69019240F20313ADF800300320DB
S31500003E50A047B0F5C97FFAD169460520B04728B119
S31500003E6040F29113984201D000BEEC690520A047AC
S31500003E70B0F5C97FFAD10123022200218DF8061080
S31500003E802C698DF800308DF801208DF802208DF810
S31500003E9003308DF805208DF8043069460520A047CB
S31500003EA000B100BE2B6E04209847AB6A01209847EC
S31500003EB0EB6A9847AB6D984702B070BD8C910000D5
S31500003EC00000A04100B5064B83B000229B69019219
S31500003ED001A906209847019803B05DF804FB00BFCE
S31500003EE08C91000010B403782BB1012B3BD000203D
S31500003EF05DF8044B704742683F498A424CD93F4BB4
S31500003F003F4C4FF0F10C83F804C0197A41F00401DC
S31500003F101972197A41F008011972197A41F00101F2
S31500003F201972197A41F002011972A2424FF0F0019A
S31500003F3019715BD983F804C01A7A42F010021A721A
S31500003F401971022303732F4991F81C2102F007020D
S31500003F509A423EBF91F81C2163F3020281F81C21AC
S31500003F600378012BC3D18368234A93421FD9244A7D
S31500003F70934231D9234A017B92F81C3103F007039F
S31500003F809942B4D092F81C3161F3020382F81C31D5
S31500003F9000205DF8044B70471B498A4229D8194A0C
S31500003FA0037392F81C315DF8044B00207047134BE5
S31500003FB0F1221A711A7A6FF382021A721A7A6FF361
S31500003FC0C3021A721A7A6FF300021A721A7AF02171
S31500003FD06FF341021A721971084BF1221A711A7A9B
S31500003FE0F0216FF304121A721971C3E7074B9A4254
S31500003FF0A7D801230373A6E7000E27070020004079
S3150000400000C2EB0B00C0014000B4C404006889097B
S3150000401000230370704700BF037823F0030343F0C7
S3150000402003030370704700BF014B0360704700BF76
S315000040301892000002483022002103F0F1B900BFB7
S315000040402C03FE1F024B43F820100020704700BFD0
S315000040502C03FE1F08B56F4BB3F84031D80700F1AB
S31500004060CB806C4BB3F84031990700F1B880694BAF
S31500004070B3F840315A0700F1A580664BB3F84031DA
S315000040801B0700F19280634BB3F84031D8067FD40A
S31500004090604BB3F840315906C3F380106CD45D4BC6
S315000040A0B3F840311A065AD45A4BB3F84031DB05FF
S315000040B048D4584BB3F84031980536D4554BB3F82D
S315000040C04031590524D4534BB3F840311A0512D464
S315000040D0504BB3F84031DB0400D408BD4E4BDB6ACD
S315000040E00BB10B2098474B4AB2F8303143F480535A
S315000040F0A2F8303108BD484B9B6A0BB10A2098479D
S31500004100444AB2F8303143F40063A2F83031DFE7B5
S31500004110414B5B6A0BB1092098473E4AB2F83031F1
S3150000412043F48063A2F83031CDE73B4B1B6A0BB1F9
S3150000413008209847374AB2F8303143F40073A2F8A2
S315000041403031BBE7344BDB690BB107209847314A66
S31500004150B2F8303143F48073A2F83031A9E72E4B20
S315000041601B680BB1002098472A4AB2F8303143F059
S315000041708003A2F8303197E7274B5B6803B1984775
S31500004180244AB2F8303143F04003A2F8303186E7D2
S31500004190214B9B690BB1062098471E4AB2F8303175
S315000041A043F01003A2F8303172E71B4B5B690BB189
S315000041B005209847174AB2F8303143F00803A2F8B1
S315000041C0303160E7144B1B690BB104209847114A44
S315000041D0B2F8303143F00403A2F830314DE70E4B0C
S315000041E09B680BB1022098470A4AB2F8303143F077
S315000041F00203A2F830313AE7074BDB680BB1032024
S315000042009847044AB2F8303143F00103A2F830313E
S3150000421027E700BF006000402C03FE1F0378452BF4
S3150000422020D8114AD35CFF2B05D090F801C04288F4
S3150000423013F0200001D00320704710B503F01F01D2
S315000042400A4C9B0954F82340EFF3108E012383F3A5
S31500004250108862448A1A93402268134323608EF3BF
S31500004260108810BD01207047449200008C92000017
S315000042700278452A30D81E4B9B5CFF2B35D010B5F3
S3150000428090F801E0B0F802C0980603F01F0115D4BB
S31500004290F444A1EB0C01012088409B09154A52F811
S315000042A02320EFF31081012383F31088136823EA98
S315000042B00003136081F31088002010BD01242B2A0F
S315000042C004FA01F00AD0332AE7D1BEF1010F04BF88
S315000042D001310EFA01F0E0E701207047BCF1070F4B
S315000042E0DBD9013104FA01F0D7E70320704700BF9C
S315000042F0449200008C920000A0F101000028FBD13E
S31500004300704700BF10B501FB00F4FFF7DBFD4FF46B
S315000043107A72A4FB02CE4FF0FF331149B1FBF0F0E5
S3150000432063454FF0000171EB0E0E07D3BCFBF0F0B6
S31500004330800878B1BDE81040FFF7DEBF8000B4FB0F
S31500004340F0F4A4FB0242A34271EB020203D320461F
S315000043500028EFD110BDBDE810401846FFF7CCBFCE
S3150000436000CA9A3B002808DB800000F1804000F577
S31500004370C64003686FF31043036070470B4A0C4B4B
S3150000438010B49B1A0B4CDB08236063B10A4800216A
S315000043909388C3F3090340F8043B236801318B4239
S315000043A002F10802F4D85DF8044B704700050000DE
S315000043B0200500005C03FE1F0063004010B4134B91
S315000043C01C68FCB1124B00681A680023043A02E02C
S315000043D00133A34216D052F8041F8842F8D10D4A81
S315000043E012680121134402E0C3E8401F58B1D3E824
S315000043F04F2FD2B2002AF7D0BFF32F8F08205DF8D7
S31500004400044B704703205DF8044B70476003FE1FA2
S315000044106403FE1F6803FE1F10B40B4B1C6884B1B7
S315000044200A4B00681A680023043A02E00133A342EB
S3150000443007D052F8041F8842F8D1054A12680021B5
S31500004440D1545DF8044B70476003FE1F6403FE1FE2
S315000044506803FE1FF0B5114D114C1249124A134B59
S31500004460134E0E60641BA40815601C6084B105EB36
S31500004470840EAC4600275CF8040B2A46002352F84B
S31500004480041B884205D001339C42F8D1F445F2D191
S31500004490F0BDF445F754EED1FAE700BF2005000061
S315000044A0D00600006803FE1F6403FE1F6003FE1FA4
S315000044B04802FE1FEFF31081012383F31088124B8D
S315000044C033F8102092B22AB133F81020013A92B292
S315000044D023F8102033F810309BB293B910B40B4A6E
S315000044E00B4CB2F8FE3334F810009BB243F425436C
S315000044F023EA0003A2F8FE3381F310885DF8044B2B
S31500004500704781F3108870476C03FE1F00E001407E
S31500004510A092000030B4EFF31081012383F31088DA
S315000045200E4A32F810309BB26BB90D4C0D4DB4F8F3
S31500004530FE3335F810C09BB243EA0C0343F425431F
S315000045409BB2A4F8FE3332F8103001339BB222F846
S31500004550103081F3108830BC704700BF6C03FE1F1B
S3150000456000E00140A0920000024B00221A805A800F
S315000045709A8070476C03FE1F08B50B4A0346106805
S3150000458040B10333094923F0030303448B4204D8A3
S31500004590136008BD06481060F3E702F02DFF0C23F8
S315000045A003604FF0FF3008BD7403FE1F3818FE1F6E
S315000045B03808FE1F00BE704708B500F005F800F089
S315000045C069FAFEE7704700BFF8B5414AD2F888306D
S315000045D043F47003C2F8883000200446FFF7F2FF68
S315000045E0FFF728FD3B4B1B689847FFF7BDFFFFF71A
S315000045F01BFC394A394B148039481B689847394A9D
S315000046003948121A02D0214602F00AFF374A3848C2
S31500004610121A02D0374902F0F5FE374B37493848AF
S31500004620384A00244FF425459C801D809860DA6046
S31500004630B1F8202192B2012542F48052A1F820213E
S315000046409D80FFF73FFC304B024628461A602F4DEF
S31500004650FFF7B8FF2E4B5B1BA3424FEAA30605DD0F
S3150000466055F8043B01349847A642F9DCFFF7F2FE01
S31500004670FFF784FE274B284C1B682848284D98478F
S31500004680D4E90001D4E90023584002F05FFFD4E9E1
S3150000469000232449561845EB0307C4E90067D4E90B
S315000046A0006786F01E4287F07D4382F4120283F48F
S315000046B02D0382F4384283F4A44383F02B0382F063
S315000046C03702C4E900230020BDE8F84000F02CB80A
S315000046D000ED00E0CC9700001803FE1F08910000D3
S315000046E0549300003408FE1FFC02FE1FB402FE1F96
S315000046F0C001FE1F789D0000000D004000600040D4
S315000047003818FE1F3720FE1F7803FE1F4002FE1FCB
S315000047104402FE1F44910000F002FE1FA892000012
S31500004720E34FE6F41654E7A100F02CB882B04FF040
S31500004730C8429369D907FCD400210091009B5369B4
S3150000474061F300035361936A4FF0200C6CF30F235F
S315000047509362936A4FF0C04043F08003936203680C
S31500004760009340F6FF714FF0C842019104E0019BAF
S31500004770013B0193019B13B1936A5B06F7D502B027
S31500004780704700BFF8B5684A11684FF0C844002367
S315000047906FF38611102011602063A36123626363A7
S315000047A0C4F80438A26863F30402A2606369FF20B8
S315000047B043F00103636120616369662143F00103ED
S315000047C063612161636901210B439922636122615F
S315000047D063690B4323206361FFF794FD9F232361E5
S315000047E02269524BD2B21A702169C9B25970206936
S315000047F0C0B298706569EF2A45F00105656101D17F
S31500004800402903D000221A809A70F8BD1728F9D1E2
S315000048100521216125696269352742F0010262613D
S315000048202761434A20691070606940F001006061A9
S31500004830A66A042060F30306A662666860F30306B0
S31500004840666050262661666946F00106666192F842
S3150000485000C00126EDB24CF0020C82F800C02661C1
S315000048602561157825616569354365612061606953
S3150000487030436061206861F3020020602161206995
S315000048806069304360612761206910706269324354
S3150000489062619B78182B3AD9062323616369B72294
S315000048A03343636122616369334363612161226932
S315000048B0636943F001036361D307F7D4636A43F086
S315000048C003036362636A062243F010036362226194
S315000048D06269E92142F0010262612161626942F086
S315000048E001024FF0C8430520626118611A695969CF
S315000048F012F0010241F001015961F6D1596A022014
S3150000490060F301015962596A62F3041159624FF06A
S31500004910C844236843F040032360FFF707FF636939
S315000049206FF300036361F8BD007004407C03FE1F53
S315000049308003FE1F00BE704700B583B000F078F814
S315000049400A4B0B491B680B489847019020B903B0E6
S315000049505DF804EB00F0A4B8074801A9FFF7EAFFE9
S3150000496003B05DF804EB00F09BB800BF7890000040
S31500004970D09200003804FE1FC492000030B5104CDF
S31500004980104D226889B00123D018B4214FF48062FB
S31500004990CDE90433CDE902330691019220600A4A3B
S315000049A00A490B480095002300F030FD08B909B00C
S315000049B030BD0748002109B0BDE8304000F010B80E
S315000049C0E405FE1F3820FE1F39490000B49200009E
S315000049D08403FE1F704700BFFFF7FCBF704700BF90
S315000049E000BE70470E4A0F4970B500250E4E157071
S315000049F004461C230D483560012200F095FC28B9B9
S31500004A00FFF7BCFF2046FFF7E9FF70BD07482946C0
S31500004A10FFF7E6FFFFF7B2FF2046FFF7DFFF70BDA7
S31500004A20C405FE1F40930000E405FE1FC805FE1FD7
S31500004A3038B515484FF0FF3100F0C6FCF0B9134BFE
S31500004A401A7802B138BD124C01221A70FFF7C4FF62
S31500004A502368013B2360002BF4D00B4D04E0236850
S31500004A60013B2360002BEDD0284600F0C3FC002854
S31500004A70F5D000212846FFF7B3FFF0E702480021F2
S31500004A80FFF7AEFFDBE700BFC805FE1FC405FE1F2C
S31500004A90E405FE1F08B572B600F068FF002008BDE9
S31500004AA02DE9F0439DB004F0E3F92048DFF8889043
S31500004AB0DFF8888002F042FD1D4BD3E900519F6864
S31500004AC028463B689847DFF878E0BEE80F000DF10E
S31500004AD0140CACE80F00BEE80F00ACE80F009EE82F
S31500004AE003004CF8040B00240FAEACF8001005AB25
S31500004AF000944A463221304602F056FDBB680396C2
S31500004B00042203A9284698472146039A404602F004
S31500004B108FFC7B68042204A9284698472146049AFC
S31500004B200448013402F084FCE4B2E0E7CC960000CD
S31500004B30F892000004970000E8960000F096000046
S31500004B401C970000034678B10849094A0968914252
S31500004B5008D1084AD2F89C21516802EB8102002054
S31500004B601A6070471220704701207047F802FE1F36
S31500004B70494D460000B07F4020B14FF0022303604C
S31500004B800020704701207047B0B10C4A0C4B1268E8
S31500004B909A420FD10B4BD3F89C315A6800F11001A1
S31500004BA003EB820353F8042F40F8042B8842F9D113
S31500004BB0002070471220704701207047F802FE1F40
S31500004BC0494D460000B07F4098B392B3F0B51D4CF6
S31500004BD01D4B24689C4201D01220F0BD1B4B1C6863
S31500004BE04CB31B4B05781B684FF0000C05E00CF12D
S31500004BF0010CA44503F108031DD093F806E0AE4569
S31500004C00F5D15E79B0F802E0BEEB960FEFD1DE7912
S31500004C1090F801E006F007077745E8D1B1EBD60F2B
S31500004C20E5D182F800C09B88C3F3090300205380B6
S31500004C30F0BD01207047DF21FF23117053800B2048
S31500004C40F0BD00BFF802FE1F494D46005C03FE1F83
S31500004C509C9200001E4B1A689AB103F57F710020E2
S31500004C6001E053F8042F8B421044FAD148B9194B8E
S31500004C70D3F89C311A0CB2F5807F05D000BE00BE79
S31500004C80FCE700BE00BEFCE71A68013A033208D80A
S31500004C90114A93F8241092F800C08C4504D000BE47
S31500004CA0FDE700BE00BEFCE7517893F825C06145DC
S31500004CB0F5D1917893F826C06145F0D1D27893F872
S31500004CC027309A42EBD1054B054A1A60704700BF60
S31500004CD0E497000000B07F4008980000F802FE1F2D
S31500004CE0494D4600002861D000295FD0864A874B8F
S31500004CF012689A4201D0122070472DE9F041844D86
S31500004D000278AC6805EB8404A3789A4280F0C980E7
S31500004D10170904EB870E02F00F0CBEF8086026FA9E
S31500004D200CF818F0010F00F0BC8012F0080F9EF886
S31500004D300AE008D004EB870702F0070CFA7A02F0C3
S31500004D400F02360A9644734A12F80CC0724A0CEAED
S31500004D5006061B09925D023372449B0003EB420375
S31500004D60E218E35A92F90160C3F30903002E05EB3A
S31500004D7083021DDB4678002E40F08F806668D4786B
S31500004D804088C4F303144C72D478C4F303048C72C1
S31500004D9001248C80002833D135F823409378CB80CA
S31500004DA006EB04260E600872C86078E001207047A2
S31500004DB015F8233044785B082CBB032B79D059D8DF
S31500004DC073D0D4784088C4F303144C72D478C4F3F7
S31500004DD003048C7214798C80A04211D2D68895680F
S31500004DE0012B00FB06550D6000F08580022B73D069
S31500004DF0B2F80150CD8000230B72CB60002D56D146
S31500004E0040F27A504BE002254FF0010C4FF0040EB1
S31500004E101678F60704F1FF343FD5052B72D8DFE884
S31500004E2003F003231914120A0C231A4413785B089F
S31500004E30002CEDD1C1E79378DE1C15FB03C303EB11
S31500004E4096039B00F1E70823EFE793781EFB03C365
S31500004E509B00EAE71679937813FB06F303330336D0
S31500004E6003EB96039B00E0E71379033303F4FE7329
S31500004E700C33DAE7042B18D1D078547852680A60DC
S31500004E80C0F303038B720023C0F303128B800B72F3
S31500004E90CB60A3074A72CC8009D440F27950BDE8B2
S31500004EA0F0814FF4AF60BDE8F0816420F7E70020A1
S31500004EB0F5E7D07854780346C3F30303C0F3031031
S31500004EC0042548728B72002093788B802A440D72D9
S31500004ED0CC800860CA60E2E7131803341D7B937820
S31500004EE00B7200FB03F3033303EB940402EB84021F
S31500004EF0CD80CA6082E702440023157BCD800B7209
S31500004F00CB607BE7002390E7F802FE1F494D460081
S31500004F10E4970000C49700004497000008B1242AD3
S31500004F2001D00620704770B50E460546EFF3108295
S31500004F3072B61C490B6801330B6082F310881A4A5B
S31500004F401A4B12681C684AB1A04207D0002301E040
S31500004F50A54203D001339342A469F9D1EFF310823D
S31500004F6072B60B68013B0B6082F3108801F012FBEE
S31500004F70A54212D0EFF305830D4A11680B4306D004
S31500004F80EFF3058113680B43B3F1F03F07D33146C6
S31500004F902846BDE8704000F0DFBA062070BD132039
S31500004FA070BD00BF3806FE1FF805FE1FFC05FE1F7C
S31500004FB0D001FE1F18B1084A0368934201D00620AB
S31500004FC07047EFF30583054A1268134301D0132097
S31500004FD0704700F0E9BA00BF4E445644D001FE1FA8
S31500004FE070B4039C18B10D4D0668AE4202D006207F
S31500004FF070BC704763B12CB1EFF30585084E366877
S31500005000354307D1032A07D8039470BC00F018BBB8
S315000050100320EDE70420EBE70820E9E74E44564479
S31500005020D001FE1F78B110B40A4B04689C4203D02D
S3150000503006205DF8044B704732F0020305D15DF897
S31500005040044B00F06FBB0620704708205DF8044B48
S31500005050704700BF4E44564408B1342B01D01C2083
S3150000506070472DE9F0410F4616468046EFF3108152
S3150000507072B61F4A13680133136081F310881D4B03
S315000050801C681D4B1D684DB1A04207D0002301E0EE
S31500005090A04503D00133AB42246AF9D1EFF3108166
S315000050A072B61368013B136081F3108801F072FA3F
S315000050B0A04503D0012E04D91F2000E01C20BDE826
S315000050C0F081EFF305820D4B19680A4306D0EFF322
S315000050D005821B681343B3F1F03F06D332463946C7
S315000050E04046BDE8F04100F069BC1320E7E700BF89
S315000050F03806FE1F0806FE1F0406FE1FD001FE1F0F
S3150000510018B1084A0368934201D01C207047EFF398
S315000051100583054A1268134301D01320704700F037
S315000051207DBC00BF4554554DD001FE1F18B1124B32
S3150000513002689A4201D01C20704710B481B90F4B07
S31500005140EFF305821C68224306D0EFF305821B6845
S315000051501343B3F1F03F0DD35DF8044B00F0B8BC38
S31500005160EFF30582054B1C682243E9D004205DF865
S31500005170044B70471320FAE74554554DD001FE1FE6
S3150000518018B10B4B02689A4201D01C207047EFF30E
S315000051900583084A11680B4306D0EFF305811368AF
S315000051A00B43B3F1F03F01D300F06CBD1320704701
S315000051B04554554DD001FE1F2DE9F047DDF82090EE
S315000051C01E46099B08B1382B02D00920BDE8F0879E
S315000051D0884617460546EFF3108172B6234B1A68C8
S315000051E001321A6081F31088214A1068214A146836
S315000051F058B1A54209D04FF0000C01E0A54204D0F9
S315000052000CF1010C8445246BF8D1EFF3108172B6D2
S315000052101A68013A1A6081F3108801F0BBF9A542B9
S31500005220D3D00EB37B1E0F2B11D8B7EB990F0ED828
S31500005230EFF30582104B19680A430BD0EFF3058292
S315000052401B681343B3F1F03F04D21320BEE70520D9
S31500005250BDE8F087CDF8209033463A4641462846C9
S31500005260BDE8F04700F012BE0320AFE73806FE1F88
S315000052700C06FE1F1006FE1FD001FE1F18B1084ABD
S315000052800368934201D009207047EFF30583054A6E
S315000052901268134301D01320704700F02DBE00BFE3
S315000052A055455551D001FE1FB0B110B40C4B0468E2
S315000052B09C4203D009205DF8044B704771B12AB1B6
S315000052C0EFF30583074C2468234303D15DF8044BB1
S315000052D000F05EBE0420EEE7092070470320EAE7EF
S315000052E055455551D001FE1FB0B110B40C4B0468A2
S315000052F09C4203D009205DF8044B704771B12AB176
S31500005300EFF30583074C2468234303D15DF8044B70
S3150000531000F026BF0420EEE7092070470320EAE7E5
S3150000532055455551D001FE1F08B11C2B01D00C204C
S3150000533070472DE9F0410F4616468046EFF310817F
S3150000534072B61D4A13680133136081F310881B4B34
S315000053501C681B4B1D684DB1A04207D0002301E01D
S31500005360A04503D00133AB426469F9D1EFF3108154
S3150000537072B61368013B136081F3108801F00AF9D5
S31500005380A04513D0EFF305820E4B19680A4306D0E9
S31500005390EFF305821B681343B3F1F03F09D332469E
S315000053A039464046BDE8F04100F068BF0C20BDE834
S315000053B0F0811320FBE700BF3806FE1F1806FE1F0C
S315000053C01406FE1FD001FE1F18B1084B02689A4250
S315000053D001D00C20704729B1EFF30583044A126807
S315000053E0134301D100F074BF04207047414D45536B
S315000053F0D001FE1F18B1044A0368934201D00C2065
S31500005400704700F0A7BF00BF414D45532DE9F04F4F
S3150000541085B09A46119B0193129B0393139B0293AB
S31500005420DDE90F890E9D149B08B1B42B03D00E2025
S3150000543005B0BDE8F08F8B4617460646EFF310829F
S3150000544072B6DFF810C1DCF800300133CCF800305A
S3150000545082F310883C4B1A683C4B08F1FF301C68FD
S315000054602844DAB1A64219D000230097D4F80CE0FC
S31500005470AE454FF0000106D82769AF424FF0010153
S315000054808CBF00250021864503F1010343D8276917
S31500005490874240D9009FD4F888400025EFF3108258
S315000054A072B6DCF80030013BCCF8003082F310888D
S315000054B001F070F8A642BAD0002D38D0002F36D0B1
S315000054C0B8F1C70F31D9B9F11F0F36D8019B9945ED
S315000054D035D3029B012B2ED8EFF305821C4B19689E
S315000054E00A4306D0EFF305821B681343B3F1F03F7E
S315000054F027D3029B1393039B1293019B3A46CDE954
S315000055001093594653463046CDE90E5805B0BDE8CE
S31500005510F04F00F049BF9342D4F8884003D0A6422A
S3150000552001D00029A2D0009FB8E7052080E703201C
S3150000553005B0BDE8F08F10207AE70F2078E7182035
S3150000554076E7132074E700BF2006FE1F2406FE1F21
S31500005550D001FE1F3806FE1F38B504460D4624222C
S31500005560002101F05DFF6560EFF3108172B60B4A12
S315000055700B48136820600B4843B9A4610460E461DA
S315000055800133136081F31088002038BD0068C569B7
S31500005590C461AC61C4E90605F2E700BFF805FE1F69
S315000055A04E445644FC05FE1F2DE9F041EFF31081F1
S315000055B072B6204A13680024013B04601360002B76
S315000055C02ED11D4A13601D4E0469336845690027B4
S315000055D0013333600761476181F310889DB14FF055
S315000055E00108013DEFF3108272B63368A7660133F6
S315000055F0C4F8848020463360246F82F3108800F05C
S31500005600E7FF002DEDD1EFF3108272B63368013B50
S31500005610336082F3108800F0BDFF0020BDE8F08102
S31500005620D0E90632044CDA6193612268824208BFEF
S315000056302360C8E7F805FE1FFC05FE1F3806FE1F9F
S3150000564070B50446EFF3108C72B68068256A20EABE
S3150000565005051D60256A02F002060DB120EA050067
S31500005660002E38D000EA010631EA000035D0049851
S31500005670002843D028480568002D3FD100293DD099
S31500005680264D2E68C6E91F32D6F8B030244AB167D7
S315000056900133C6F8B0306369F466B266002B31D1C7
S315000056A02661C6E91C66013363610722036832631B
S315000056B001220133B263049AF26403608CF310880A
S315000056C0304600F0FBFFEFF3108C72B6D6F884007C
S315000056D08CF3108870BD00EA0106002EC7D012F0C8
S315000056E001000CD063690BB1206990B1A56825EA69
S315000056F001050020A5608CF3108870BD07208CF38F
S31500005700108870BD22693267516F71670E675667E0
S31500005710C9E70D432562F2E73806FE1F2806FE1F7D
S315000057202D6C00002DE9F84FEFF3108C72B6970739
S3150000573011D543693BB98368194081608CF31088A1
S315000057400020BDE8F88F0369002BF4D1036A63EAF1
S3150000575001010162F2E78568036A0D43856013B1B2
S3150000576023EA01010162D0E90432002B00F09280A5
S31500005770012A00F09580604E00218846016131685B
S31500005780013131609B464446C2462AE00023C3608D
S31500005790836842691D43DE46DEF88010DEF87880B5
S315000057A0DEF870308F0705EA080924D538EA0507C0
S315000057B021D0DEF83010072911D09E4532D0DEF810
S315000057C074105967DE450B675BD041690139416149
S315000057D07CB30021CAF870E0CEF87010F246013AA8
S315000057E02DD08CF31088EFF3108C72B6C1680029A7
S315000057F0CCD19E46D0E7DEF83070072FDDD1B9F167
S31500005800000FECD0DEF87C70C9073D6003D58168D7
S3150000581021EA0801816000219E45CEF86810CEF885
S315000058208410CCD1416901394FF0000B4161002C45
S31500005830CFD1013ACEF87040F2467446D1D1036A10
S31500005840C0F810B003BB8CF310886CB12046246FEF
S31500005850EFF3108272B633680133336082F3108837
S3150000586000F0B6FE002CF1D1EFF3108272B6336869
S31500005870013B336082F3108800F08CFE0020BDE807
