S00B00005553422E737265632F
S315000000004066FE1FC1580000D1530000BD580000D5
S31500000010BD580000BD580000BD580000000000009B
S31500000020000000000000000000000000BD580000B5
S31500000030BD5800000000000081770000297800000C
S31500000040710A0000FFFFFFFFFFFFFFFFFFFFFFFF3B
S31500000050FFFFFFFFFFFFFFFFFFFFFFFFFFFFFFFFAA
S31500000060FFFFFFFFFFFFFFFFFFFFFFFFFFFFFFFF9A
S31500000070FFFFFFFFFFFFFFFFFFFFFFFFFFFFFFFF8A
S31500000080FFFFFFFFFFFFFFFFFFFFFFFFFFFFFFFF7A
S31500000400FFFFFFFFFFFDFFFFFFFFFFFFFFFFFFFFF8
S31500000410FFFFFFFFFFFFFFFFFFFFFFFFFFFFFFFFE6
S31500000420FFFFFFFFFFFFFFFFFFFFFFFFFFFFFFFFD6
S31500000430FFFFFFFFFFFFFFFFFFFFFFFFFFFFFFFFC6
S31500000440FFFFFFFFFFFFFFFFFFFFFFFFFFFFFFFFB6
S31500000450FFFFFFFFFFFFFFFFFFFFFFFFFFFFFFFFA6
S31500000460FFFFFFFFFFFFFFFFFFFFFFFFFFFFFFFF96
S31500000470FFFFFFFFFFFFFFFFFFFFFFFFFFFFFFFF86
S31500000480FFFFFFFFFFFFFFFFFFFFFFFFFFFFFFFF76
S31500000490FFFFFFFFFFFFFFFFFFFFFFFFFFFFFFFF66
S315000004A0FFFFFFFFFFFFFFFFFFFFFFFFFFFFFFFF56
S315000004B0FFFFFFFFFFFFFFFFFFFFFFFFFFFFFFFF46
S315000004C0FFFFFFFFFFFFFFFFFFFFFFFFFFFFFFFF36
S315000004D0FFFFFFFFFFFFFFFFFFFFFFFFFFFFFFFF26
S315000004E0FFFFFFFFFFFFFFFFFFFFFFFFFFFFFFFF16
S315000004F0FFFFFFFFFFFFFFFFFFFFFFFFFFFFFFFF06
S31500000500C84BFE1F610033102000000020000100D0
S315000005102F0000002F0001000C0001001100000058
S31500000520300000003000010024000000240001001B
S315000005302400020024000300240004002400050017
S315000005401300000017000000230000002100000037
S31500000550210001000700000007000100070002005B
S315000005600700030007000400070005000700060057
S315000005700700070012000000440000000800000009
S315000005800B00000041000000400000004000010098
S3150000059004000000430000002B0000002B000A00AE
S315000005A02B000B002B000C002B000D002B00010074
S315000005B02B0002002B0003002B0004002B0005007B
S315000005C02B0006002B0007002B0008002B0009005B
S315000005D00600000006000A0006000B0006000C00DC
S315000005E006000D0006000E0006000F0006000100C2
S315000005F006000200060003000600040006000500CF
S3150000060006000600060007000600080006000900AE
S315000006101500000015000100150002003100000061
S315000006202A00000045000000100000000301000041
S3150000063003000000030001000F0000000D00000091
S315000006402D000000420000002C0000002C000100DC
S315000006502C0002002C0003003200000028000000DD
S31500000660180000001400000014000100140002002D
S315000006701400030014000400140005001400060012
S3150000068014000700140008001400090034000000DC
S3150000069034000100160000001600010035000000BD
S315000006A03600000036000100220000003300000082
S315000006B0330100002900000010B5054C237833B93A
S315000006C0044B13B10448AFF300800123237010BD1F
S315000006D07401FE1F00000000A8BB000008B5034B14
S315000006E01BB103490348AFF3008008BD00000000BA
S315000006F07801FE1FA8BB000020B14FF00223036063
S3150000070000207047012070472DE9F04F85B0002882
S315000007104BD08846002948D017461C460268414BF4
S315000007209A4206463BD1D0F88830002B77D000F1AC
S31500000730380B2146584605F029FF8146002859D135
S315000007402246D6F88800082108F00EFED6F88C401E
S315000007508CBB3C46FCB106F194014FF0000A03AB9A
S31500000760D6F88800CDF80CA08022019108F072FE20
S31500000770039D0346381B4044002D41D00199002BB0
S315000007803ED1A5422ED92D1B381BC6E92354404421
S31500000790224608F009F9584605F022FF01E04FF01D
S315000007A00709484605B0BDE8F08F4FF001094846F5
S315000007B005B0BDE8F08FD6F89010BC4228BF3C4685
S315000007C0943122463144404608F0EEF8D6F88C3093
S315000007D01B1BC6F88C30D6F890302344C6F89030F0
S315000007E03C1BB7E72A46019108F0DEF8641B019925
S315000007F0B5D1D0E74FF01409484605B0BDE8F08FF3
S315000008005846019305F0ECFE019B0D2B0CBF4FF0F3
S3150000081014094FF06409484605B0BDE8F08F4FF063
S315000008206409BEE74D43585598B338B51C4B02686A
S315000008309A4204462BD005F04FFAD4F888204AB1E4
S31500000840251D184934230122284605F035FE98B1A6
S31500000850642038BD04F16C0513491C23284605F0B5
S31500000860F3FE0028F4D14FF47A71284605F052FFC2
S315000008700028E5D0142038BD0C493423012204F1A8
S31500000880380005F019FE30B9054B236038BD082045
S3150000089038BD01207047284605F062FED8E700BF44
S315000008A04D435855E8AE0000FCAE000010AF000006
S315000008B038B558B10E4B02689A42044602D0072555
S315000008C0284638BD05F0F0F9054610B10125284641
S315000008D038BD201D05F044FE04F1380005F040FE49
S315000008E004F16C0005F000FF2560284638BD00BF06
S315000008F04D435855E0B170B5144B154602689A42FF
S3150000090004460BD102290BD0342000FB01400430F1
S31500000910294605F03BFE48B9002070BD072070BD92
S31500000920061D2946304605F031FE18B1142070BD6B
S3150000093001207047294604F1380005F027FE0028FB
S31500000940EAD0304605F04CFE142070BD4D43585594
S31500000950E8B110B5164B02689A4204460ED131B181
S31500000960022916D0013901290AD9002010BD043008
S3150000097005F036FE0028F8D0642010BD072010BD13
S3150000098004F1380005F02CFE0028F5D1EDE7012032
S315000009907047043005F024FE034604F138001C4677
S315000009A005F01EFE002CE7D10028E5D1DDE700BFEB
S315000009B04D4358552DE9F04383B000283AD00D46F3
S315000009C0C1B317461E460268284B9A4204462CD1EC
S315000009D0D0F88830002B46D093F87F2012B993F8D0
S315000009E08030EBB104F104093146484605F0CEFDEE
S315000009F08046A8B932460921D4F8880008F0B4FC2C
S31500000A00D4F88800CDF804803A4601AB294608F0B0
S31500000A1097FD064698B1484605F0E2FD0D2E22D117
S31500000A201424204603B0BDE8F0830724204603B013
S31500000A30BDE8F0830124204603B0BDE8F083D4F876
S31500000A40880001AB3246294608F07AFD044648463E
S31500000A5005F0C6FD0D2CE3D0002C18BF64242046FB
S31500000A6003B0BDE8F0836424E0E700BF4D4358556A
S31500000A7010B582B0EFF3058005F072FFEFF3038344
S31500000A80A3F1100040B2019304F03CFE104B1B682A
S31500000A909968A1B11B690F4C002002E00130884221
S31500000AA00DD0DA6EA24203F19403F7D102F0E2FB15
S31500000AB0EFF3058002B0BDE8104005F04FBF01F02E
S31500000AC007FBEFF3058002B0BDE8104005F046BF16
S31500000AD0844DFE1F00000940F8B50F46302104463C
S31500000AE0154601F073FC4FF4E062302106462046BD
S31500000AF001F05CFC3A21204601F068FC012D10D083
S31500000B00BB6801229A4020EA0202204692B23A21AC
S31500000B1001F066FCB2B220463021BDE8F84001F093
S31500000B205FBCBA6805FA02F20243EEE7F8B50F4673
S31500000B3030210446154601F049FC4FF4E0623021AD
S31500000B400646204601F032FC3821204601F03EFCE4
S31500000B50012D10D0BB6801229A4020EA02022046ED
S31500000B6092B2382101F03CFCB2B220463021BDE8F9
S31500000B70F84001F035BCBA6805FA02F20243EEE726
S31500000B80F8B50F4630210446154601F01FFC4FF418
S31500000B90E06230210646204601F008FC3621204658
S31500000BA001F014FC012D10D0BB6801229A4020EA06
S31500000BB00202204692B2362101F012FCB2B2204661
S31500000BC03021BDE8F84001F00BBCBA6805FA02F224
S31500000BD00243EEE7A1B338B5CB68012B05460C46B8
S31500000BE01FD9042B11D100F06BFE04280BD8022864
S31500000BF01AD80AD1A3682BB3284601222146FFF74B
S31500000C00BFFF002038BD0528FCD02146284600221B
S31500000C10FFF7B6FF284600222146FFF75DFFFF20BB
S31500000C2038BD00F0C9FEE0E7214628460022FFF75E
S31500000C30A7FF284601222146FFF74EFF002038BDB8
S31500000C40FF207047012221462846FFF745FFD3E7DC
S31500000C5070B5CB680C4605461646042B12D8DFE85D
S31500000C6003F02C1D03033B00202101F0AFFBA2681B
S31500000C7020F4406020F00F00024392B22021284663
S31500000C8001F0AEFB04240021284601F09FFB04215D
S31500000C90284601F09BFB013CF5D170BD2C2101F0EB
S31500000CA095FBA26820F4406020F00F00024392B248
S31500000CB02C21284601F094FBE4E7282101F086FB6D
S31500000CC0A26820F4406020F00F00024392B228216F
S31500000CD0284601F085FBD5E7202101F077FBA268C5
S31500000CE020F4426020F00F003243C5E738B58B6828
S31500000CF00C463BB95C2101F069FBC30513D4A36A1A
S31500000D00D86938BD05460F22642101F04FFB2289C0
S31500000D106421284601F064FB5C21284601F056FB5D
S31500000D20A36AD869EDE74FF4807038BD2DE9F04F1E
S31500000D304D6925F0800505EBC5030F4600EBC301A1
S31500000D4083B04A6812F0010A18D1DB000433C618D2
S31500000D5042F001024A60BE60CF62BB6903F0030342
S31500000D60022B04464FEAC50842D0032B21D05BB1C3
S31500000D704FF0FF0A504603B0BDE8F08F4FF0140A5B
S31500000D80504603B0BDE8F08FC1F824A0FB69C1F856
S31500000D900CA09B098B6204230B61BA8B5E2101F0C8
S31500000DA01FFB3946204600F065F9504603B0BDE802
S31500000DB0F08F00F53B7B4FF006091FFA89F264219C
S31500000DC0204601F00DFB5BF8043B019368212046A9
S31500000DD001F0FCFA019BC0F381301843A9F102022D
S31500000DE000F0AF8009F10109B9F10A0FE5D1BFE7BB
S31500000DF000F5367B4FF001091FFA89F2642120467F
S31500000E0001F0EEFA5BF8043B01936821204601F0FD
S31500000E10DDFA019BC0F38130034305D009F10109D6
S31500000E20B9F1060FE8D1A3E704EB890308EB050245
S31500000E30B9F1050FC3F8D45204EBC2024CD0082115
S31500000E404FEAC90353629162D4F8FC12434A9142B5
S31500000E504BD04FF4804B08EB050304EBC303C3F8F8
S31500000E600C907A69120650D4D4F80C23002A5AD072
S31500000E70B9F1050F57D8D4F88023002A57D101229B
S31500000E801A61C4F880237B69314613F0800F20462F
S31500000E9014BF1026002600F0D1F8EFF3108972B6C1
S31500000EA0454404EBC5052046AA89642101F098FA59
S31500000EB07A6902F00F0232434BEA0202204642F000
S31500000EC08002682101F08CFABA8B6C21204601F071
S31500000ED087FA89F3108864E708212823C2E90931D3
S31500000EE01E4AD4F8FC129142B3D143F4E0539AB2AD
S31500000EF06A21204601F074FA08EB050304EBC303EC
S31500000F005B6A872B3FF634AFA3E7D4F808238AB190
S31500000F10B9F1050F0ED8D4F87C237AB91A610123EA
S31500000F20C4F87C33AFE708EB050304EBC3030322E5
S31500000F301A61A8E708EB050304EBC30302221A6152
S31500000F40A1E708EB050304EB890104EBC303C1F831
S31500000F50D4524FF4004BC3E909207CE70000064059
S31500000F60F8B58C6864212289054601F039FAA36830
S31500000F706BB9E368002222601BB9C5F87C330020F8
S31500000F80F8BD012B08BFC5F880230020F8BDB43397
S31500000F9005EB830300265E60A168373132464900BF
S31500000FA0284601F017FAA268012707FA02F292B260
S31500000FB04A21284601F002FAA26807FA02F292B222
S31500000FC04621284601F0FAF9A26807FA02F292B21F
S31500000FD04821284601F0F2F9324621462846FFF715
S31500000FE0CFFD324621462846FFF776FD324621469A
S31500000FF02846FFF79BFDE3689A1E022A0FD93BB1EC
S31500001000012B13D022896821284601F0E9F9B0E7BF
S315000010104FF480422A21284601F0DCF9F2E74FF42A
S3150000102080422221284601F0D5F9EBE74FF48042B1
S315000010302E21284601F0CEF9E4E700BF38B58D68C9
S31500001040044655B90322602101F0B0F9602120461B
S3150000105001F0BCF98206F9D438BD37356D0003229C
S31500001060294601F0A3F92946204601F0AFF9830687
S31500001070F9D438BD00296ED070B58E680D46B168BA
S31500001080044600293ED037314900032201F08EF98B
S31500001090B16837314FF480724900204601F09AF961
S315000010A02821204601F092F9B36800F00F0098421B
S315000010B04AD02C21204601F089F9B36800F00F00D0
S315000010C098423AD02021204601F080F94FF6F0727E
S315000010D01040328920210243204601F081F94FF465
S315000010E080422221204601F075F9EB6A1B69022B2A
S315000010F01DD12B6B012B1AD1696D05F1300007F05C
S315000011005FFA14E00322602101F050F920464FF403
S315000011108072602101F05EF920460F22202101F045
S315000011205FF94FF480422221204601F053F93368DB
S3150000113023F004033360002070BD4FF480422E215B
S31500001140204601F047F9D0E74FF480422A21204695
S3150000115001F040F9C9E71420704700BF10B54021DF
S31500001160044601F033F900F07003702B01D0FF2024
S3150000117010BD052007F02CFB20464FF48072082195
S3150000118001F028F9002010BD99B110B58C68A1684E
S3150000119049B90222602101F01DF9236843F00403D6
S315000011A02360002010BD37310222490001F012F9F8
S315000011B0F3E71420704700BF01EBC10100EBC1014A
S315000011C04868C3074CBFC0F38000FF20704700BFCC
S315000011D070B506460D46FFF73BFD0824EB68012B6C
S315000011E013D04FF02A013046A3F1020308D801F0CC
S315000011F0EDF800F4005313B9013CEFD1FF2070BDA8
S31500001200022B4FF02201F2D9F6E72E21304601F0EB
S31500001210DDF800F40053EEE710B58C461146DCF815
S315000012200020D20722D40222CCF80C205A08CCF88F
S315000012300820DCF80420B2FBF3F3CCF81030D0F829
S315000012402433DA78012464F30512DA70D0F82433F3
S31500001250BCF80820DA81D0F82433BCF810209A8133
S31500001260BDE810404FF4806201F0B4B80122CCF81A
S315000012700830CCF80C20DCF80420B2FBF3F3CCF8F1
S315000012801030D0F82433DC786FF30514DC70D0F816
S315000012902433BCF80840DC81D0F82433BCF8104075
S315000012A09C81BDE81040002201F094B84368DBB190
S315000012B010B4C268042A83B017D00A88002B92B2F1
S315000012C001920DDD036801A9002211F801CB83F814
S315000012D000C0036844680132013394420360F4DCC1
S315000012E003B05DF8044B704770470A680192002B03
S315000012F0F6DD036801A9002211F801CB83F800C0CE
S315000013000368446801320133A2420360F4DB03B090
S315000013105DF8044B704700BF70B50C46194623684C
S31500001320DB070646154623D463680222E2605A08A4
S31500001330A3EB4203C4E901324FF4806201F04AF89C
S315000013401B4BD6F8FC229A422DD0A36853B12368D2
S315000013502A881A802368A068023301382360A060B7
S315000013600028F5D129462046BDE87040FFF79EBF0C
S31500001370002201F02FF80E4BD6F8FC229A420DD02F
S31500001380636853B123682A781A70D4E900300133B0
S315000013900138C4E900300028F5D170BD6368033513
S315000013A0002BEFD1F9E7A3680235002BCFD1D9E79F
S315000013B0000006402DE9F041184ED0F8FC72B74205
S315000013C001D0BDE8F0810E68B5070C4621D19C46D8
S315000013D04B6815469A08A3EB8203C4E9013204233D
S315000013E0E36061464FF4006200F0F4FFA36853B176
S315000013F023682A681A602368A068043301382360CA
S31500001400A0600028F5D129462046BDE8F041FFF747
S315000014104DBFBDE8F041FFF77FBF00BF00000640AB
S315000014202DE9F041002286B0D0F8FC6205460F4651
S31500001430FFF7CEFEFF28044617D0BB6AC0F30B04A5
S31500001440D3F81C80BC61394628460294FFF7F6FDA6
S315000014503C69029B9C420CD2029444BB07244FF485
S3150000146080422221284600F0BBFF204606B0BDE898
S31500001470F081BBB1B3FBF8F208FB1233002B14BFAB
S31500001480042402240B4BD5F8FC12FA690192994206
S3150000149006F114024FF0200301A9284604D0FFF7F5
S315000014A03BFFDCE70424DAE7FFF784FFD7E70724EE
S315000014B0E8E700BF000006402DE9F047CB68D0F80A
S315000014C0FC6286B089460546002B4BD0012B44D0E2
S315000014D0222714364FF02008002249462846FFF7F7
S315000014E077FEFF2804461AD0D9F82830C0F30B043B
S315000014F0D3F81CA0C9F81840494628460294FFF7BD
S315000015009DFDD9F81020029B9A420CD20292072424
S31500001510A2B94FF480423946284600F061FF2046C2
S3150000152006B0BDE8F0870BB90424F2E7B3FBFAF284
S315000015300AFB1233002B14BF04240224D9F81C30F2
S31500001540D5F8FC2201930B4B9A4201A94346324639
S3150000155028460CD0FFF7E0FEDBE72E271C364FF0BF
S315000015602C08B9E72A2718364FF02808B4E7FFF702
S3150000157021FFCEE7000006402DE9F0430D4689B075
S31500001580164620220446FFF763FBEB689A1E022AE2
S3150000159040F2A180002B00F08B80012B00F0E1804F
S315000015A0D4F8FC224FF0220802F114092027002368
S315000015B00496C4F87833002E70D06E48AB6AE96999
S315000015C0DB690391824200F097803A4603A92046E0
S315000015D0FFF722FE294601222046FFF7D1FA654B86
S315000015E0D4F8FC22039D9A4200F0A880414620468A
S315000015F000F0ECFE3946C4F87803204600F0E6FE1B
S3150000160080B2ADF80A00BDF80A3003F00F03ADF85A
S315000016100A30BDF80A309BB2C4F878330F22394637
S31500001620204600F0C3FE2A46D4F82453D4F80CC34F
S31500001630EB89AE89DCF80000DCF808C0B6B201968A
S31500001640ED78C5F301150095DCF824509BB24946A8
S31500001650A8474FF480523946204600F0BBFEBDF83D
S315000016600A20394692B2204600F0B4FEBDF80A10B0
S3150000167089B2012237319140204600F0ABFE4FF08F
S31500001680FF3104F5577007F057FA4FF480520546BC
S315000016903946204600F08AFE002D5ED120464FF4E2
S315000016A08042414600F09CFE002009B0BDE8F08370
S315000016B04FF480422A21204600F08CFEEB689BB155
S315000016C0012B7FF46DAFD4F8FC224FF02E0802F107
S315000016D01C092C276BE74FF480422221204600F09C
S315000016E079FEEB68002BEBD1D4F8FC224FF02A08E8
S315000016F002F1180928275AE78A077FF466AFB6FB76
S31500001700F3F69B0805930422D4F824330796069231
S31500001710DA78022161F30512DA70D4F82433BDF8C1
S315000017201420DA81D4F82433BDF81C209A81394676
S315000017304FF40062204600F04DFE4BE7D4F8243308
S31500001740DB7803F03003202B3FF450AF102B0CBF97
S3150000175009F1020909F1030948E7FF2009B0BDE8CC
S31500001760F0834FF480422E21204600F033FEEB68D2
S31500001770A5E700BF0000064070B50C461946236871
S31500001780DB070646154631D463680222E2605A0832
S31500001790A3EB4203C4E901324FF4806200F01AFE63
S315000017A0234BD6F8FC229A42A3683BD07BB1236830
S315000017B01B882B802368A2680233013A2360A2604B
S315000017C0002AF5D11A4BD6F8FC229A422DD063682E
S315000017D05BB123681B7805F80139D4E9003201337F
S315000017E0013AC4E90032002AF4D170BD002200F0AB
S315000017F0F1FD0F4BD6F8FC229A420ED06368002BFF
S31500001800F3D023681B782B70D4E9003101330139FA
S31500001810C4E900310029F5D170BD63680335002B9A
S31500001820EFD1E2E70235002BC1D10335CFE700BF88
S315000018300000064070B50C461546D0F8FC121F4A4B
S315000018409142064606D02A4621463046BDE87040FB
S31500001850FFF792BF22689207F5D119466368042202
S31500001860E2609A08A3EB8203C4E901324FF40062F6
S3150000187000F0B0FDA36853B123681B682B60236892
S31500001880A2680433013A2360A260002AF5D10B4B0B
S31500001890D6F8FC229A420ED063685BB123681B78A7
S315000018A005F80139D4E900320133013AC4E90032BE
S315000018B0002AF4D170BD0335EEE700BF00000640F4
S315000018C030B5202287B005460C46FFF781FCFF287D
S315000018D017D0A36A2069D969884214D86061E16982
S315000018E0D5F8FC22CDE901102023143201A928469F
S315000018F0FFF7A0FF28464FF40042222100F070FDBA
S31500001900032007B030BD6161D5F8FC22E4692846A2
S31500001910CDE901412023143201A9FFF78BFF0220F4
S3150000192007B030BD10B58C461146DCF80020D20752
S3150000193022D40222CCF80C205A08CCF80820DCF875
S315000019400420B2FBF3F3CCF81030D0F81033DA7879
S31500001950012464F30512DA70D0F81033BCF80820BD
S31500001960DA81D0F81033BCF810209A81BDE8104017
S315000019704FF4806200F02EBD0122CCF80830CCF87E
S315000019800C20DCF80420B2FBF3F3CCF81030D0F8CE
S315000019901033DC786FF30514DC70D0F81033BCF824
S315000019A00840DC81D0F81033BCF810409C81BDE8BB
S315000019B01040002200F00EBD2DE9F041002286B055
S315000019C006460C46FFF704FCFF28054621D02146B3
S315000019D03046FFF78BF9A26A2369D769D6F8FC224D
S315000019E0BB4298BF1846E36802908CBF02250325C8
S315000019F003B3012B23D0143220234FF02208E169D0
S31500001A0060610191304601A9FFF714FF2369BB42CB
S31500001A1003D3284606B0BDE8F0814146304600F0C3
S31500001A20D5FC0304F5D44FF400424146304600F09D
S31500001A30D1FCEEE7183228234FF02A08DFE71C32E4
S31500001A402C234FF02E08DAE710B58E46D0F8FC426C
S31500001A5018498C42844605D071466046BDE8104060
S31500001A60FFF760BFDEF800108907F5D111460422A2
S31500001A70CEF80C209A08CEF80820DEF80420B2FB37
S31500001A80F3F3CEF81030D0F81033DA78022464F38A
S31500001A900512DA70D0F81033BEF80820DA81D0F8D3
S31500001AA01033BEF810209A81BDE810404FF4006252
S31500001AB000F090BC000006402DE9F041884616462D
S31500001AC01946D0F8FC222C4B84B09A420A9D044653
S31500001AD045D0204600F07AFC2946C4F87803204613
S31500001AE000F074FC80B2ADF80E00BDF80E30294649
S31500001AF003F00F0320460F22ADF80E3000F056FC1F
S31500001B00D4F81073D4F808C3FB89DCF80000DCF8BD
S31500001B1008C03246BE89B6B20196FE78C6F30116F3
S31500001B200096DCF824609BB24146B0472946204621
S31500001B304FF4805200F04EFCBDF80E202946204698
S31500001B4092B200F047FCBDF80E1089B2012237317F
S31500001B509140204604B0BDE8F04100F03BBCD0F80F
S31500001B601033DB7803F03003202BB2D0102B0CBFE0
S31500001B7002360336ADE700BF00000640002900F03C
S31500001B8090802DE9F047CB688F6A15469A1E022A87
S31500001B9088B006460C4672D9002B76D0012B7AD037
S31500001BA0002221463046FFF713FBFF2863D0E36887
S31500001BB00495D6F8FC52002B56D14FF0280818355C
S31500001BC04FF02A0AC146A36AE269DB69039203A9B8
S31500001BD04A463046FFF738FF2A460399CDF800807B
S31500001BE053463046FFF768FFF96F06F5507006F06A
S31500001BF0A3FF4FF4805205462821304600F0D6FB5D
S31500001C0065BB7B6D262B29D04946304600F0DEFBAE
S31500001C10A16837313046490000F0D8FB4FF4FA6529
S31500001C20034607E0A3683733590000F0CFFB013DB8
S31500001C30034638D05B043046F4D4D6F808339A68A5
S31500001C401868936A9847A1683731304603224900DD
S31500001C5000F0ACFB032008B0BDE8F08700230620A7
S31500001C607B6508B0BDE8F0874FF02C081C354FF0B7
S31500001C702E0AC146A7E7FF2008B0BDE8F0874FF45B
S31500001C808042222100F0A6FB8AE74FF480422A21F7
S31500001C9000F0A0FB84E74FF480422E2100F09AFB6F
S31500001CA07EE7FF2070470620D5E700BF10B50C463B
S31500001CB04C2100F08BFBC0F30A002060002010BD11
S31500001CC00B46114602685AB10A3BC0690B2B09D86C
S31500001CD0DFE803F010081216181A1C0C080A140E76
S31500001CE05520704754207047082911D000207047AE
S31500001CF0FFF762BAFFF7DABF00F0F2BDFFF744BAAA
S31500001D0000F072BBFFF712B8FFF72AB9FFF7B2B9B6
S31500001D10FFF724BA2DE9F047B44B8AB000213322ED
S31500001D208046CDE903210FCB0DF1180989E80F0094
S31500001D30AF4B984500F08B80AE4B984540F0CC8079
S31500001D400324022103A8019103F050FCAA4B019938
S31500001D501B6903A804AA98479DF9103013F1210FB7
S31500001D6064D1A64B1C680021802363604FF4647223
S31500001D70084606F05FFD0546002800F0F48006469A
S31500001D80E061C4F81080C0F8FC8246F8784B9C4BA2
S31500001D90A361B246012404F13003504600224946AD
S31500001DA08DF8263006F0B6FE0AF1480A07460028E6
S31500001DB053D101340A2CEED18E4B98455ED00146A4
S31500001DC00122284600F0F2FA40223946284600F061
S31500001DD0EDFA874B984500F089804021284600F0AF
S31500001DE0F5FA40210646284600F0F0FA044606F0C9
S31500001DF080064021284604F0800400F0E7FAA64257
S31500001E00EBD100F080008642E7D1002E5ED1794BFF
S31500001E10984552D020220021284600F0C7FA744B7C
S31500001E2098457BD038460AB0BDE8F087002B3CDBEE
S31500001E3074492401CA18E4B282F800430122580901
S31500001E4003F01F0302FA03F341F8203089E7012368
S31500001E508DF80D30FF24042174E7012CE2D03035D3
S31500001E6004EBC40405EBC4043046483606F062FEB3
S31500001E70B442F9D138460AB0BDE8F08701464FF4BE
S31500001E808062284600F0A6FA0021284600F09EFA55
S31500001E904205F9D528460122002100F087FA4022A2
S31500001EA00021284600F082FA97E7574A03F00F030D
S31500001EB01A442401E3B2137653E728460822002188
S31500001EC000F074FA38460AB0BDE8F0871022002107
S31500001ED0284600F07FFA9AE702210846322206F0E9
S31500001EE00DFC322738460AB0BDE8F08705A803F096
S31500001EF059FA0F220221284600F072FA4FF40042E6
S31500001F003E21284600F052FA059B404ADB6993427F
S31500001F102BD03F4A93425ED0322783E700240F221C
S31500001F2028460221059400F041FA3A4B05A99B691F
S31500001F3020469847059B384A3848A2FB0312520DA3
S31500001F40A0FB030302EB82015B0CB3EB410F88BFDE
S31500001F500132022A86BF023A92B2002202212846A4
S31500001F6000F038FA5EE712275CE710223E21284689
S31500001F7000F01CFA20223E21284600F02BFA062407
S31500001F800421284600F022FA013CF9D101223E2123
S31500001F90284600F00BFA41F270740421284600F03E
S31500001FA015FA013CF9D102223E21284600F0FEF93D
S31500001FB04FF480424FF48171284600F00BFA062157
S31500001FC0284600F003FAC307F9D5802200212846E7
S31500001FD000F000FA01E7284610223E2100F0FAF947
S31500001FE020223E21284600F0F5F9C8E740AF000060
S31500001FF0000006400000094040B50000804DFE1F6D
S31500002000C11C000000E100E0FCEC00E0002D310105
S3150000201000366E01A8AF0000B945511FDBC9921307
S3150000202030B583B0FFF776FE044610B1204603B004
S3150000203030BD094B1D6801460122E869019000F098
S31500002040C9F901984FF45F42302100F0C3F901232A
S3150000205020462B6003B030BD804DFE1F38B51A4DAB
S315000020601A492C68D4F8A031012B0CBFD4E94C03D3
S31500002070D4E94E030E22C4E94A0304F1240306F010
S31500002080B3FBE36BD4F89810C4F89C1004F15C021F
S315000020904FF47A70C4F8D800C4F89420A367C4F843
S315000020A0A0300E21A3692046984700232A6823669C
S315000020B00221C4F8B410C4F8EC30D2F8C4310BB124
S315000020C001209847002038BD804DFE1F2C00FE1FC2
S315000020D02DE9F047DFF8D092D9F80080D8F81C50E7
S315000020E04021284600F072F9430407460CD5D9F87A
S315000020F00030D3F8C4310BB1052098474BF6FF7278
S315000021004021284600F06CF93E0400F1D880FC041A
S3150000211000F1A980780576D4F90545D4BA0514D41A
S315000021203B0501D4BDE8F087E96A4FF4006230311F
S3150000213007F00703284600F0C9F928464FF2FF7258
S31500002140BDE8F047402100F04BB94821284600F091
S315000021503DF938218046284600F038F905F53576F0
S31500002160824605F53F79012404E004364E454FEAE0
S315000021704404D5D018EA040FF7D01AEA040FF4D0B5
S31500002180E243284692B2482100F02AF9336803EB6D
S31500002190C30305EBC3034FF40072D96A28463031F6
S315000021A0002300F093F9E0E74621284600F00EF9F7
S315000021B036218046284600F009F905F5357682462F
S315000021C005F53F79012404E004364E454FEA440400
S315000021D0A4D018EA040FF7D01AEA040FF4D0E243A9
S315000021E0284692B2462100F0FBF8336803EBC3039E
S315000021F005EBC3034FF48072D96A284630310023B9
S3150000220000F064F9E0E74A21284600F0DFF83A21B9
S315000022108046284600F0DAF805F53576824605F55B
S315000022203F79012405E004364E454FEA44043FF465
S3150000223073AF18EA040FF6D01AEA040FF3D0E2439C
S31500002240284692B24A2100F0CBF8336803EBC30369
S3150000225005EBC3034FF48062D96A28463031002368
S3150000226000F034F9DFE74EF6FF724021284600F011
S31500002270B7F807F07003202B62D01AD8002B3FF472
S3150000228049AF102B4FD1D8F82030032B71D008213D
S31500002290284600F09BF800F00700022863D00328C8
S315000022A05BD0012853D0FFF7D9FE0123C8F82030B0
S315000022B030E7302B37D10323C5F804332AE747F636
S315000022C0FF724021284600F08BF84021284600F096
S315000022D07DF840210646284600F078F8044606F0C8
S315000022E080064021284604F0800400F06FF8A642DC
S315000022F0EBD100F080008642E7D12A4BD8F81020B7
S315000023003EB19A4238D010220021284600F062F8E9
S31500002310FDE69A4237D010220021284600F046F802
S3150000232005F056FFF3E6D8F82030002B3FF4F2AE66
S31500002330D9F80020D2F8C43163B304209847E9E6FF
S315000023405021284600F042F8C8F81400E2E6D9F811
S3150000235000300022C3F8A021A5E7D9F800300222F8
S31500002360C3F8A0219FE7D9F800300122C3F8A021C5
S3150000237099E705F02DFF8AE74FF480720021284681
S3150000238000F028F8BFE731464FF48072284600F087
S315000023900DF8C0E7D2F8AC31002B7FF4BBAE05F0E8
S315000023A017FFB7E600000640804DFE1FD0F8FC027E
S315000023B00B5A23EA02020A52704700BFD0F8FC32D9
S315000023C0D243C2F309025A52704700BFD0F8FC321A
S315000023D0585A7047D0F8FC32C85A0243CA5270475E
S315000023E0D0F8FC325A527047F8B58B689D680E4695
S315000023F02A8964210446FFF7F3FFAB680BB9002076
S31500002400F8BD29462046FEF719FEA96837314FF474
S31500002410007249002046FFF7DDFFA96837314FF407
S31500002420007249002046FFF7C1FF4FF48042222187
S315000024302046FFF7CFFF4FF480422A212046FFF7C0
S31500002440C9FF002229462046FEF702FC0022294643
S315000024502046FEF795FB002229462046FEF73CFB68
S31500002460002229462046FEF761FBAA68012707FAE3
S3150000247002F292B24A212046FFF7A0FFAA6807FAA5
S3150000248002F292B246212046FFF798FFAA6807FAA1
S3150000249002F292B248212046FFF790FFF36C013317
S315000024A00ED03368012BAAD1B36A032BA7D1D4F877
S315000024B00833002BA3D004F5507006F061FB9EE7AD
S315000024C005F12C0006F05CFBEBE700BF2DE9F843B5
S315000024D08F68B2F5006FBE680C4605464CD0B2F563
S315000024E0807F07D0B2F5806F04D04FF000084046D9
S315000024F0BDE8F883A36A022B00F00581D4F81C809E
S31500002500B8F1000F00F0D380FB69B768984528BF83
S315000025109846C6F814802369F36131462846002F91
S3150000252040F04E81FFF7CCF902280CBF01223A4653
S3150000253031462846FEF724FB012231462846FEF79F
S31500002540CBFA3369A3EB0803336123694344236160
S31500002550E369A3EB0803E361A3694344A361B1689C
S31500002560002900F025810122373191402846FFF7E6
S3150000257031FF4FF00008BAE7013B052BB5D801A2A1
S3150000258052F823F09D250000EB2400009D25000055
S31500002590EB2400009D250000FD2600004FF6F77293
S315000025A04021FFF71DFF54212846FFF70FFF81B298
S315000025B004F1540006F0E8FA56212846FFF706FF14
S315000025C081B204F1560006F0DFFA58212846FFF7DB
S315000025D0FDFE81B204F1580006F0D6FA5A212846CB
S315000025E0FFF7F4FE04F15A0781B2384606F0CCFA3A
S315000025F00023A361636294F954300122002B6260C8
S31500002600C0F2388194F85A3023B994F85B30002B25
S3150000261000F030814FF002083846C4F8288006F0F2
S31500002620B1FA4FF00009E36823616061032260217B
S315000026302846C4F81890FFF7B9FEB268012707FAD2
S3150000264002F292B24A212846FFF7B8FEB26807FAAC
S3150000265002F292B246212846FFF7B0FE4FF48042BE
S3150000266022212846FFF7BCFE4A4631462846FEF799
S31500002670EFFA3A4631462846FEF782FA3A46602194
S315000026802846FFF7A7FEC6F8048094F95430002BBD
S31500002690C0F2F48094F85A3023B994F85B70002F96
S315000026A000F00681022373604FF000081FE7276DD4
S315000026B0012F40F08880B368C6F81080314628465E
S315000026C0002B00F09F80FFF777F9022800F0EA80E0
S315000026D0424631462846FEF753FA3A4631462846E0
S315000026E0FEF7FAF9B168002940F0CD800122602199
S315000026F02846FFF76FFE00232365F8E60023736084
S315000027004FF0FF08F3E695F88833D6F80880FF2BDC
S3150000271000F08F8061693161FB698B4228BF0B46EF
S3150000272033612369F36131462846B8F1000F5FD162
S31500002730FEF776FE02285FD0002231462846FEF7D5
S315000027401FFAB2692369616913442361E3699B1A1D
S31500002750E361A36913448B42A36103D0FB699342EF
S315000027603FF4FDAE002767623A4631462846FEF73B
S3150000277007FAD6F80880B8F1000F40F08B8073682E
S31500002780022B7FF4B2AE204605F0F8FA03237360FD
S31500002790E36A0BB1204698470023E3616361032394
S315000027A0A3620522736060212846FFF713FE9EE6AA
S315000027B0012260212846FFF70DFE4FF0000896E63D
S315000027C0FFF7FAF8B8E6C4F82480424631462846B0
S315000027D0FEF782F9B3682BBB7268012A74D0E36AEC
S315000027E0002B3FF482AE204698474FF000087EE665
S315000027F0FEF762FE02289FD1012231462846FEF7E7
S31500002800BFF99EE7FFF75CF802280CBF3A4642463E
S3150000281031462846FEF7B4F9012231462846FEF72E
S315000028205BF95FE70223236006F12C0006F0A8F9A6
S315000028305DE6D5F88C3343457FF46CAFD5F8783335
S315000028403733590003222846FFF7B0FD4FF4805274
S315000028502C212846FFF7AAFD002231462846FEF71E
S315000028608FF90023C5F8843385F88833C5F88C338F
S3150000287098463CE6204605F081FA06E70123736098
S315000028804FF0000833E60122373191402846FFF722
S31500002890A1FD30E70223236006F12C0006F070F953
S315000028A0B84624E63A4631462846FEF769F919E75E
S315000028B00323E7616761A3620522736060212846EE
S315000028C0FFF788FDB84612E60322A262E361636160
S315000028D02846726060210522FFF77CFD7FE700BF76
S315000028E02DE9F84FD1F80890D9F808500E46A96896
S315000028F00446002940F0B38003226021FFF756FD0D
S31500002900AA68012707FA02F292B24A212046FFF787
S3150000291055FDAA6807FA02F292B246212046FFF751
S315000029204DFD6B6B002B40F02582B36A032B40F004
S315000029302081D4F80833002B00F0CD80EB689A1E76
S31500002940022A40F2C880012B7769D9F81C3040F280
S31500002950CD829B02B7FBF3F7C4F83C73D4F83C3343
S315000029600133C4F83C33D4F83C33002B00F0278302
S315000029704FF0000AF269D046D9F81C30B2EB832F2B
S3150000298008F101084FEA832705D2B2FBF3FA03FBED
S315000029901A2AA2EB0A07002F40F01782D4F83C331C
S315000029A04345E9D8AB68012707FA03F39AB24A21EF
S315000029B02046FFF703FDAB6807FA03F39AB24621F8
S315000029C02046FFF7FBFCBAF1000F00F0F881F3692F
S315000029D02B61D9F81C20934228BF134698463369C9
S315000029E0EB61202229462046FEF732F94FF4804259
S315000029F02A212046FFF7EEFC3369EB612946204683
S31500002A00FEF7E8F8FF28834600F0B0802B69A3EBB9
S31500002A1008032B61336943443361B3694344B361AB
S31500002A20F369A3EB0803F361AB68002B40F0A482C3
S31500002A303A4660212046FFF7CDFCAB68002B00F03C
S31500002A409380F16C05F12C0006F076F88346002899
S31500002A5000F0EF8131462046FFF7C6FC86E03731AD
S31500002A604900FFF7B3FC40042DD54FF00008DFF80E
S31500002A7074A5C346A968373120464900FFF7A6FC6E
S31500002A80F36C013307461AD0BBF5006F08EA0A0358
S31500002A9015D9D5E902104FF4804241EA030800280F
S31500002AA000F00981012800F06B8122212046FFF702
S31500002AB091FC1FFA88F220212046FFF791FC790449
S31500002AC00BF1010BD6D4A968373149000322204601
S31500002AD0FFF76CFC14E777692F61D9F81C309F4229
S31500002AE028BF1F46F368EB61202229462046FEF7E1
S31500002AF0AFF8EB689A1E022A40F2AA81002B00F07A
S31500002B004C81012B00F01F82D5F80880294620460B
S31500002B10B8F1000F40F09281FEF7D2FE02280CBFFA
S31500002B200122424629462046FEF72AF82946012276
S31500002B302046FDF7D1FF2B69DB1B2B6133693B4434
S31500002B403361B3693B44B361F369DB1BF361A96885
S31500002B50002940F05C81012260212046FFF73AFC03
S31500002B60AB68002B40F05D814FF0000B5846BDE886
S31500002B70F88F002229462046FEF702F80022294651
S31500002B802046FDF7A9FFD4F80C33002B00F0B780E0
S31500002B90EB689A1E022A40F2B280012BD9F81C205B
S31500002BA0736940F2A9809202B3FBF2F3C4F83C3396
S31500002BB0D4F83C330133C4F83C33D4F83C33002B0F
S31500002BC000F0FD804FF0000AD04606E0D4F83C3312
S31500002BD008F10108434540F2EE80D9F81C30F2694D
S31500002BE0B2EB832F4FEA832705D2B2FBF3FA03FB3E
S31500002BF01A2AA2EB0A074FF0FF32B7FBF3F384F869
S31500002C008823C4F88433A968C4F88C132331890057
S31500002C104FF480722046FFF7DDFB2A8964212046A7
S31500002C20FFF7DEFB4FF4806268212046FFF7D2FBF8
S31500002C30A968B4F8842389008E312046FFF7D0FBBB
S31500002C40A968233189004FF400722046FFF7C2FBC2
S31500002C50002FBBD03A4629462046FEF78DFCAA68CF
S31500002C608346002A40F01E81373251002046FFF786
S31500002C70ADFB420407D5A968373149002046FFF766
S31500002C80A5FB4304F7D4A96837314900032220463F
S31500002C90FFF78CFBBBF1000F7FF468AF2B69DB1BE2
S31500002CA02B6133693B443361F369DB1BF361B36921
S31500002CB03B44B3618AE73731204649004FF400723E
S31500002CC0FFF788FBA9683731204649004FF40072A8
S31500002CD0FFF76CFB2A8920462821FFF77BFB20465D
S31500002CE04FF480422A21FFF775FB1FFA88F228214C
S31500002CF02046FFF775FBE2E693423FF654AFAA681B
S31500002D00002A40F0B380002229462046FDF7A0FFA6
S31500002D10EB689A1E022A40F2A280002B44D0012BB7
S31500002D2000F01881294601222046FDF729FFA968EF
S31500002D30002940F08680012260212046FFF74AFBE9
S31500002D40AB68002B3FF410AFF16C05F12C0005F0D9
S31500002D50F3FE8346002840F0C280D6F824B0BBF1CB
S31500002D60000F7FF403AF3368232B7FF4FDAE4FF0E3
S31500002D70230BFBE6F16C05F12C0005F0DDFED4E536
S31500002D8020464FF480422E21FFF724FB1FFA88F2DB
S31500002D902C212046FFF724FB91E64FF480422A219E
S31500002DA02046FFF717FBAFE64FF480422A21204664
S31500002DB0FFF710FBB6E7BAF1000F40F09B8000204A
S31500002DC00223706233608346D0E6202229462046DD
S31500002DD0FDF73EFF4FF480422A212046FFF7FAFA1C
S31500002DE03369EB613A4629462046FEF7C7FE0628B8
S31500002DF000F0B7802B69DB1B2B613369F2693B441A
S31500002E003361B369D21B3B44F261B361C6E501226B
S31500002E10373191402046FFF7DDFAAB68002B3FF4CF
S31500002E20A3AEF16C05F12C0005F086FE8346002862
S31500002E3055D1D6F824B05846BDE8F88FFEF7BCFD4C
S31500002E4074E60122373191402046FFF7C3FA77E74F
S31500002E504FF4804222212046FFF7BCFA54E64FF495
S31500002E60804222212046FFF7B5FA5BE7204692B260
S31500002E706421FFF7B5FA20464FF480626821FFF718
S31500002E8095FAA968233120464FF480728900FFF72E
S31500002E90A1FAA96823314FF4007289002046FFF792
S31500002EA085FA30E792B264212046FFF799FA4FF48B
S31500002EB0806268212046FFF779FAAA6823329100DA
S31500002EC020464FF48072FFF785FAAA6823329100F4
S31500002ED020464FF40072FFF769FAAA68C4E6314645
S31500002EE02046FFF781FA042232603FE69F423FF612
S31500002EF030ADF1E5AA68002A45D1002229462046D0
S31500002F00FDF7A6FE4FF480422E212046FFF762FA17
S31500002F10012229462046FDF733FEAB6823BB01227A
S31500002F2060212046FFF756FAAB68002B3FF41CAE33
S31500002F304FF0FF3105F12C0005F0FEFD8346002819
S31500002F403FF40BAF12E64FF480422E212046FFF7E6
S31500002F5041FAD9E54FF480422E212046FFF73AFA8E
S31500002F60E0E64FF00D0B01E63733012203FA02F1DA
S31500002F702046FFF72FFAD7E737333A46590020465F
S31500002F80FFF728FA59E5204692B26421FFF728FA9E
S31500002F9020464FF480626821FFF708FAAB682333B6
S31500002FA0990020464FF48072FFF714FAAB6823337A
S31500002FB04FF4007299002046FFF7F8F99DE7AB68D9
S31500002FC0012707FA03F39AB220464A21FFF7F6F9DA
S31500002FD0AA6807FA02F2462192B22046FFF7EEF9F6
S31500002FE0EDE600BFF0F3FFFF10B50C4B1B68DC6984
S31500002FF0102220460021FFF7D9F9D4F8FC22084B0D
S315000030009A4220460CBF082220220021FFF7CEF963
S31500003010BDE81040142005F0DBBB00BF804DFE1F4D
S315000030200000094038B5354B1B68DC69D4F80853F5
S315000030307DB304F5507005F07DFDD4F808339A6829
S315000030401868D3699847D4F810339A786FF38302D7
S315000030509A70D4F81033DA786FF38302DA70D4F802
S3150000306010339A786FF304129A70D4F81033DA7822
S315000030706FF38712DA70D4F81023917800236FF378
S3150000308045119170C4E9C533C4E9C733051E18BF9D
S315000030903425D4F80C337BB304F5577005F04AFD9C
S315000030A0D4F80C339A681868D3699847D4F824334F
S315000030B09A786FF383029A70D4F82433DA786FF330
S315000030C08302DA70D4F824339A786FF304129A7074
S315000030D0D4F82423D17800236FF38711D170C4E983
S315000030E0CA33C4E9CC33D4F824239178002863F397
S315000030F0451118BF34259170284638BD804DFE1FF6
S315000031002DE9F041574A82B000239042CDE90033C1
S31500003110054602D0544B98427BD1544BD3F80080DD
S31500003120D8F81C604FF41F4230213046FFF73EF9B5
S31500003130D6F80833002B50D02846FFF773FF002837
S3150000314048D106F1780406F540772046483405F064
S31500003150F1FCA742F9D1444B9D4248D001220021FF
S315000031603046FFF723F9009B3E4A03F47F4343F0C2
S3150000317033039542009355D000238DF80130022188
S315000031803B4B01AA1B69684698479DF90430002B02
S3150000319011DB03F01F015B099B0003F1604303F59C
S315000031A0614301228A40C3F88021C3F88020BFF31F
S315000031B04F8FBFF36F8F684602F0EEF9304605F089
S315000031C0FDFB0020C8E90000C8F81C00C8F8100084
S315000031D0C8F8180002B0BDE8F081D6F80C33002B11
S315000031E0AFD02846FFF71EFF0028AAD0F2E74FF41B
S315000031F0806200213046FFF7D9F8012200213046CF
S31500003200FFF7D4F8009B03F47F4343F033030093A6
S31500003210B2E702210846342205F070FA342002B0E3
S31500003220BDE8F0814FF480424FF481713046FFF7DC
S31500003230BDF8802200213046FFF7B8F810223E2163
S315000032403046FFF7B3F820223E213046FFF7AEF8AE
S3150000325002210F223046FFF7BDF801238DF8013019
S3150000326004218DE70000064000000940804DFE1F46
S3150000327040B500002DE9F047B14E33681B69942430
S3150000328004FB0034636C43B9656FD5F8C83001336D
S31500003290C5F8C830236C022B01D0BDE8F087302179
S315000032A0284600F0DFF932218046284600F0DAF998
S315000032B040210746284600F0D5F900EA0800C5F87F
S315000032C0CC004221284600F0CDF9D5F8CC30384064
S315000032D09A04C5F8D00000F19981030400F18A81AF
S315000032E0D5F8CC305F0500F15A81D80500F12C8164
S315000032F0990500F1FC80D5F8D0301A0500F1B680AA
S31500003300DF0476D4580447D4590630D4DA0617D4E5
S315000033109B06C2D528464FF6DF72422100F0ACF973
S31500003320D5F8DC30306843F02003C5F8DC30636E36
S3150000333001336366BDE8F04700F5DC7005F020BC9C
S315000033404FF6EF724221284600F096F9D5F8DC30A8
S31500003350306843F04003C5F8DC30636E01336366C2
S3150000336000F5DC7005F00CFCD5F8D030D0E74FF650
S31500003370BF724221284600F07FF9236D3068013381
S315000033802365002203232B61E030C5F8D42005F025
S31500003390F7FBD5F8D030B9E74BF6FF724221284645
S315000033A000F06AF9D5F8D47007BB2B69012B1DD044
S315000033B04FF480423221284600F04EF94FF48052F5
S315000033C03221284600F052F9236D0133236501238B
S315000033D0C5F8D43028463A465E2100F047F93068F1
S315000033E04FF0FF33AB61E03005F0CAFBD5F8D030C3
S315000033F08AE74EF6FF724221284600F03DF94FF269
S31500003400FF724221284600F037F94FF480523221EC
S31500003410284600F021F932214FF40062284600F0D8
S3150000342025F905F5807305F5947153F8042F2AB133
S3150000343053F8282C42F0800243F8282C9942F4D104
S31500003440636E30680133636600F5DC7005F098FB47
S31500003450236D3068013300222365E030C5F8D4209F
S315000034602A6105F08DFBD5F8D0304BE74FF2FF729D
S315000034704221284600F000F94EF6FF724221284606
S3150000348000F0FAF80421284600F0ECF810F00207E4
S315000034904FF480724FF03C01284600F0C88000F0DF
S315000034A0E5F8284B6A689A4200F0CE804FF4006235
S315000034B03221284600F0D0F84FF4805232212846B7
S315000034C000F0D4F8236D0122134423655E21C5F86C
S315000034D0D4202846002200F0C9F830684FF0FF33A8
S315000034E0AB61E03005F04CFBD5F8D03008E7482159
S315000034F0284600F0B7F805F1DC07814605F5827A23
S315000035004FF001086FEA080219EA080F92B24FEA73
S31500003510480809D0BB6A1BB13B6843F002033B6015
S315000035204821284600F0A8F80437BA45EAD1636E68
S3150000353030680133636600F5DC7005F021FBDAE6DE
S31500003540844DFE1F000006404621284600F08AF8FA
S3150000355005F1DC07814605F5827A4FF001086FEA2E
S31500003560080219EA080F92B24FEA480809D0BB6A66
S315000035701BB13B6843F001033B604621284600F03F
S315000035807BF80437BA45EAD1636E30680133636667
S3150000359000F5DC7005F0F4FAD5F8CC30A8E64A213F
S315000035A0284600F05FF805F1DC07814605F5827ACA
S315000035B04FF001086FEA080219EA080F92B24FEAC3
S315000035C0480809D0BB6A1BB13B6843F004033B6063
S315000035D04A21284600F050F804375745EAD1636E71
S315000035E030680133636600F5DC7005F0C9FAD5F87A
S315000035F0CC307AE6284647F6FF72422100F03CF8C6
S3150000360001214322084605F079F869E64DF6FF7276
S315000036104021284600F030F8636E30680133636657
S3150000362000F5DC7005F0ACFAD5F8D00055E600F0F0
S3150000363013F8084B6A689A427FF438AF80223946FD
S31500003640284600F013F831E780220021284600F0D2
S3150000365003F82BE70000064040680B5A23EA0202F3
S315000036600A5270474368585A704700BF4368C85AA1
S315000036700243CA52704700BF43685A52704700BFA0
S3150000368010B40B4B1C68B4EB102F03D803205DF865
S31500003690044B704749B15B685DF8044B020A52015E
S315000036A004330020D3580B8070470120EFE700BF9A
S315000036B03001FE1FD2B110B40D4B1C68B4EB102FB5
S315000036C04FEA102C03D803205DF8044B70475B6863
S315000036D022EA01004FEA4C1C08330A4042EA004243
S315000036E04CF8032000205DF8044B70470320704718
S315000036F03001FE1F12B310B4114B1C68B4EB102F2F
S315000037004FEA102C03D803205DF8044B70475C6821
S315000037104FEA4C1C02EA010354F80C00034361EA29
S3150000372002019AB2114054F80C20120C12041143F3
S3150000373044F80C1000205DF8044B704703207047D6
S315000037403001FE1F10B40B4B1C68B4EB102F03D8CE
S3150000375003205DF8044B704751B15B685DF8044B7C
S31500003760020A520104330020D3581B0C0B80704709
S315000037700120EEE73001FE1F10B40D4C2368B3EBB9
S31500003780102F03D803205DF8044B7047002AF9D0A8
S3150000379063684FEA102C083322EA010003EB4C134E
S315000037A00A4042EA00425A6000205DF8044B704726
S315000037B03001FE1F20B14FF0022303600020704746
S315000037C00120704738B50488002C4DD0436800218D
S315000037D0043303EBC40040F202450C4640F2034CAE
S315000037E040F2044E0FE0624530D153F8042C02F04B
S315000037F0B852B2F1807F14BF41F0020144F00204D6
S315000038000833834211D01A88AA42ECD153F8042C0B
S3150000381002F0B852B2F1807F03F1080314BF41F001
S31500003820010144F001048342EDD1C943CDB2012028
S3150000383001F0F4FF0D4B93F8BB2414432C4083F89E
S31500003840BB44BDE83840012001F0B8BF7245D7D16E
S3150000385053F8042C02F0B852B2F1807F0CBF44F04A
S31500003860040441F00401CBE7FF25E0E700E0014056
S31500003870012958D870B42E4B1A68B2EB102F4FEAB4
S31500003880102409D99A68C0B252F8245000F11006E3
S315000038900122B2402A4202D1032070BC704700EBDD
S315000038A00410D3E9035454F8203000293DD043F0E6
S315000038B00401204E0E40EFF3108C012383F3108891
S315000038C01D4B1A8892B212B9EA704022EA701A8821
S315000038D0013292B21A808CF3108811F4803F54F8AA
S315000038E0202007D022F4803244F82020134A0A40D0
S315000038F044F8202044F82060EFF31081012282F37F
S3150000390010881A8892B21AB11A88013A92B21A80AD
S315000039101B889BB213B98022EB70EA7081F3108882
S31500003920002070BC70470320704723F00401C0E7F5
S315000039303001FE1FD5FC011F9001FE1FD5FC001FA4
S3150000394070B582B00446002501A80E468DF80450D5
S3150000395001F020FD9DF80430DB0713D5202C0ED88E
S31500003960012E0CD8094BDB681A780CBF22EA040436
S315000039701443284604F030041C7002B070BD0320C6
S3150000398002B070BD062002B070BD00BF3001FE1F40
S31500003990002861D02DE9F04743680646002B58D031
S315000039A0FFF710FF3388002B50D02C4F2C4A4FF0D6
S315000039B0000C4FF0010E4FF0400A4FF0800971687D
S315000039C0F8681FFA8CF401EBC40351F834509B8855
S315000039D03C69190ADBB203EB0113EFF310888EF38F
S315000039E01088118889B211B9C17080F803A01188B6
S315000039F0013189B2118088F3108815F4803F54F89C
S31500003A00231007D021F4803144F8231025F48031A7
S31500003A1044F8231044F82350EFF310818EF31088F6
S31500003A2013889BB21BB11388013B9BB2138013888A
S31500003A309BB213B9C37080F8039081F31088318864
S31500003A400CF1010C1FFA8CF39942B8D80020BDE89E
S31500003A50F0870120BDE8F087012070473001FE1F86
S31500003A609001FE1F00282ED070B5436886B004462C
S31500003A70002B2AD01649174DCE6809220023019241
S31500003A80CDE90233CDE9043302A901A8B0470A23E0
S31500003A908DF80430029B6B60059BAB6002A9BDF8F4
S31500003AA00C302B6001A8B047012302A98DF8053020
S31500003AB001A8029B2B61B047029BEB602046FFF7F3
S31500003AC067FF06B070BD01207047012006B070BDCB
S31500003AD040B500003001FE1F30B4124C2268B2EB34
S31500003AE0102F0CD9A268030AC0B252F8235000F175
S31500003AF0100C012202FA0CFC1CEA050F02D103206D
S31500003B0030BC704751B1226900EB031330BC52F848
S31500003B102330C3F3400300200B707047104630BCBF
S31500003B20704700BF3001FE1F30B4154C2368B3EB5D
S31500003B30102F0CD9A368020AC0B253F8225000F124
S31500003B40100C012303FA0CFC1CEA050F02D103201A
S31500003B5030BC704789B164685201043403FA00F03E
S31500003B60145982B200EA1440824214BF0020002099
S31500003B7030BC0CBF0B7008707047184630BC7047DD
S31500003B803001FE1F10B5174A1468B4EB102F0DD97B
S31500003B90030A9468C0B254F8234000F1100C4FF0A9
S31500003BA0010E0EFA0CFC1CEA040F01D1032010BD15
S31500003BB07145FBD852680CD0083202EB43130EFA5B
S31500003BC000F0596841EA0041090C090459600020D7
S31500003BD010BD083202EB431381405868014389B295
S31500003BE0F4E700BF3001FE1F012921D830B4124C82
S31500003BF02368B3EB102F4FEA10220BD9A368C0B28B
S31500003C0053F8225000F1100C012303FA0CFC1CEAB5
S31500003C10050F02D1032030BC704703FA00F049B10A
S31500003C2083B26168520108310020535030BC70479E
S31500003C30032070470304F4E73001FE1F2DE9F0412D
S31500003C402E4D2B68B3EB102F84B00CD9AB68060A47
S31500003C50C7B253F8263007F110024FF0010808FAF0
S31500003C6002F21A4203D1032004B0BDE8F08102AB90
S31500003C70ADF80C0068460C4602910193ADF8008041
S31500003C80FFF7A0FDD5E9035107EB0613EFF3108606
S31500003C9088F310881A48028892B212B9EA70402254
S31500003CA0EA700288013292B2028086F31088E60337
S31500003CB051F8232007D522F4803241F8232024F43A
S31500003CC0803241F8232041F82340EFF3108201238C
S31500003CD083F3108803889BB21BB10388013B9BB218
S31500003CE0038003889BB213B98021EB70E97082F3DD
S31500003CF01088002004B0BDE8F08100BF3001FE1F2F
S31500003D009001FE1F034B04301B6823F8201000208F
S31500003D10704700BF9401FE1F034B1A68031D002065
S31500003D2022F82300704700BF9401FE1F034B1A6858
S31500003D30137843F080030020137070479401FE1F30
S31500003D40034B1A6813786FF3C7130020137070477C
S31500003D509401FE1F20B14FF002230360002070473C
S31500003D600120704770B586B0002833D01B4A002367
S31500003D700B21CDE90113CDE90333D268059304463F
S31500003D8002A901A89047054610B1284606B070BDA5
S31500003D90134E029B336001A801F028FC636873B1DF
S31500003DA030682B46A26812F8231002EB8302043116
S31500003DB0528820F82120626801339A42F2D823788B
S31500003DC0002BE2D032681378284643F08003137044
S31500003DD006B070BD0125284606B070BD40B500008E
S31500003DE09401FE1F60B1012808D1094B1B68002011
S31500003DF040214122187119711A71704701207047CC
S31500003E00034B1B6840214122987099709A70704745
S31500003E109401FE1F062070470620704720B14FF020
S31500003E2002230360002070470120704732490B6867
S31500003E3093F8282002F03003102B0CD0202B02D050
S31500003E4000238B61704790F82B302C4A9B0932F87F
S31500003E5013305BB97047038D10B403F00303284C8D
S31500003E6034F8133003BB5DF8044B704707EE903A05
S31500003E70B8EE677AD1ED047A90F82B30F8EE676ADF
S31500003E8003F01F03C6EE877A07EE103AB8EE477ABC
S31500003E90F7EE006A37EE267A67EE877AFCEEE77A67
S31500003EA017EE903A8B617047520622D5028D12F0BA
S31500003EB0100F0CBF0322002201EB820207EE903A9C
S31500003EC0D2ED016A038DF8EE677AF8EE666AC3F3FF
S31500003ED0052386EEA77A013307EE903AFAEEEF7ADB
S31500003EE067EE277AFCEEE77AC1ED067A5DF8044BB9
S31500003EF070470322E0E700BF4401FE1F1CB000002C
S31500003F002CB0000051B3062810B429D005280AD0D9
S31500003F1004282DD0D8B1012842D0022838D0032851
S31500003F202ED0032010E0224C0023E0690B60026AC9
S31500003F30C2F3027290F8263003F0070304EB830302
S31500003F4000205B68D3400B605DF8044B7047184C4B
S31500003F500860E069026AC2F30232EBE701207047AB
S31500003F60134C0023E0690B60026AC2F30262E1E7C8
S31500003F700F4C0023E0690B60026AC2F30242D9E7E4
S31500003F800B4C0023E0690B60026A02F00702D1E7DE
S31500003F90074C0023E0690B60026AC2F30212C9E70C
S31500003FA0034C0023E0690B60026AC2F30222C1E7F8
S31500003FB04401FE1F38B5084BDD690446002001F0B8
S31500003FC02DFC95F8303064F30003002085F830307E
S31500003FD001F0F4FB002038BD4401FE1F10B5084B6C
S31500003FE0DC69002001F01AFC94F8523043F001031A
S31500003FF0002084F8523001F0E1FB002010BD00BF24
S315000040004401FE1F10B5084BDC69002001F006FCD8
S3150000401094F852306FF30003002084F8523001F018
S31500004020CDFB002010BD00BF4401FE1F10B5084B9C
S31500004030DC69002001F0F2FB94F83E3043F0800387
S31500004040002084F83E3001F0B9FB002010BD00BF0F
S315000040504401FE1F10B5084BDC69002001F0DEFBB1
S3150000406094F83E306FF3C713002084F83E3001F019
S31500004070A5FB002010BD00BF4401FE1F10B5084B74
S31500004080DC69002001F0CAFB94F8533043F00103C9
S31500004090002084F8533001F091FB002010BD00BFD2
S315000040A04401FE1F10B5084BDC69002001F0B6FB89
S315000040B094F853306FF30003002084F8533001F076
S315000040C07DFB002010BD00BF4401FE1F38B5084B24
S315000040D0DD690446002001F0A1FB95F8243064F365
S315000040E00613002085F8243001F068FB002038BD57
S315000040F04401FE1F30B583B001F0A6F84FF0E0236F
S3150000410001901D69186910F0020028D0DDED017AD2
S31500004110164CF8EE677AF7EE006A86EEA77A00206C
S31500004120186194F82320D1B2DFED117ADFED116A20
S3150000413027EE277AC6EE877AFCEEE77A17EE902A04
S31500004140013AB2F1807F0CD25A61F02284F8232022
S3150000415001F0F001072298611A6184F8231003B078
S3150000416030BD12201D6103B030BD00BF00ED00E080
S315000041700024744900401C4608B1FFF7BBBF03206A
S31500004180704700BF052827D070B5144B0428DD6999
S3150000419004460E4606D195F88034DB0702D54FF467
S315000041A0C87070BD002001F039FB95F83E306FF302
S315000041B0C71385F83E3095F83E3066F3061385F84A
S315000041C03E3095F83E3064F30203002085F83E3019
S315000041D001F0F4FA002070BD032070474401FE1F71
S315000041E038B5002402F0070261F30E349DF810C0C2
S315000041F09DF8141062F30A2463F306140E4B6CF355
S3150000420002041B6861F312449DF8181093F82A30D3
S3150000421061F31E749DF81C10054661F31A645B0772
S3150000422048BF62F31244002001F0F8FA2C62BDE8A0
S315000042303840002001F0C2BA4401FE1F10B5174BEA
S31500004240DC6994F84120D00706D494F84130DB07A6
S315000042504FF0000010D410BD1A6894F8263092F87A
S315000042602820510603F0070313D4052B01D0032B96
S31500004270EBD140F2971010BD01F0D0FA94F841301E
S315000042806FF30003002084F8413001F097FA002014
S3150000429010BD228DD206EAD4E7E700BF4401FE1F17
S315000042A00620704706207047062070470620704794
S315000042B0024630B329B3144BDB6993F826C0CCF31E
S315000042C0020C82F800C01A6AC2F302320A701A6A35
S315000042D0C2F302224A701A6AC2F302128A701A6A7A
S315000042E0C2F30202CA701A6AC2F302420A711A6A59
S315000042F0C2F302724A711B6AC3F3026300208B7118
S3150000430070470120704700BF4401FE1F2DE9F843A6
S3150000431000295AD0002874D03D4DEB6993F8AA4085
S3150000432014F001046DD193F8A020196A1C6A1F6A63
S315000043302E68C7F3021C1F6A07F0070E1F6AD3F820
S3150000434020901B6AC3F30268B36802F00302C1F34C
S315000043500231C4F30224C7F30247C9F3027953B307
S31500004360032A28D133698B422DD8A3422BD8634523
S3150000437029D8734527D84B4525D8BB4223D8434572
S3150000438021D80146012001F01BF8EC69002001F05C
S3150000439045FA94F8403043F0800384F8403094F8AE
S315000043A0403043F00103002084F8403001F006FA63
S315000043B00020BDE8F883F368002BE2D0022AE0D1A2
S315000043C073698B42D1D90520F3E7114BDD6995F866
S315000043D04130DB0718D408460C4601F01FFA95F861
S315000043E0403064F3000385F8403095F8403064F3BC
S315000043F0C713204685F8403001F0E0F92046BDE8B5
S31500004400F8830120BDE8F8834FF4CB70BDE8F8834C
S315000044104401FE1F70B5434D88B0284600F0C2FF28
S31500004420414A00230321CDE90433CDE90633019146
S31500004430D26804A901A89047049CEC614FF6FF736B
S31500004440029394F83630DE0754D5002001F0E6F9E1
S3150000445094F8A530062262F3020384F8A530002002
S3150000446001F0ACF92B68EC69D3E906232B612F4BDD
S31500004470AB6000204FF400434FF6FF766A60A861F8
S31500004480EB606B61029601F0C9F994F8803443F051
S31500004490010384F88034002001F090F9EC6903965A
S315000044A094F88034D80714D5039BFBB12B68226A95
S315000044B093F8225094F82630002001F0AFF994F8D2
S315000044C08034DB0727D4002001F078F9002008B0FB
S315000044D070BD039B002BE7D0039B013B039394F82D
S315000044E08034DA07F5D5039B002BDFD14FF4CD706E
S315000044F008B070BD94F83C30D90708D4029B33B19C
S31500004500029B013B029394F83C30D907F6D5029BF7
S31500004510002B9AD1EAE794F8813423EA050384F85C
S315000045208134D0E74401FE1F40B5000000127A0036
S3150000453005292ED8DFE801F00A11181F260390F886
S315000045402A0000F0010080F00100704790F8360064
S3150000455000F0010080F00100704790F8380000F08C
S31500004560010080F00100704790F8900400F001000F
S3150000457080F00100704790F8320000F0010080F0F2
S315000045800100704790F8800400F0010080F00100FF
S3150000459070470020704700BF052867D870B5554D95
S315000045A00446E86990F8263003F007039C4282B07F
S315000045B020D0052B11D090F82A30DB070DD5012C21
S315000045C01CD190F84030DB0978D12146FFF7B0FFC7
S315000045D0002866D1002002B070BD2B6893F8283001
S315000045E05E0669D5038D13F0100F0CBF032300235D
S315000045F09C42E4D140F2911002B070BD2146FFF713
S3150000460097FF0028E6D0032CEE693CD0052C07D195
S3150000461096F83C309B0654D440F2931002B070BD1D
S3150000462034BB96F83C30D907F6D5204601F0F6F8AB
S3150000463096F8363043F0010386F83630002001F054
S31500004640BDF84FF6FF73019304E0019B43B1019B54
S31500004650013B0193E8692146FFF76AFF0028F4D180
S31500004660019B002BB6D14FF4CD70B4E70320704701
S31500004670002001F0D3F8631E042BDFD8DFE803F037
S3150000468015320A2B240096F83C301A07C4D50020B0
S3150000469001F0C4F896F8323043F0010386F8323060
S315000046A0CCE70020EE6901F0B9F896F8383043F00F
S315000046B0010386F83830C1E7032399E740F29510E5
S315000046C089E7002001F0AAF896F82A3043F00103A2
S315000046D086F82A30B2E796F8803443F0010386F86C
S315000046E08034ABE796F8903443F0010386F89034B3
S315000046F0A4E700BF4401FE1F05281DD808B5431EC8
S31500004700012B014608D9042806D068B1032815D024
S3150000471005281FD0002008BD194BD869FFF708FFF0
S3150000472038B140F2911008BD154AD069FFF700FF75
S31500004730F0B94FF4C87008BD03207047104AD0691D
S31500004740FFF7F6FE0028F4D0D36993F83C301B0738
S315000047500BD512E00A4AD069FFF7EAFE0028E8D036
S31500004760D36993F83C30990607D440F2931008BDFC
S31500004770D36993F83C30DA07F7D54FF4C97008BD12
S315000047804401FE1F30B583B04FF6FF730446012087
S3150000479001930D4601F042F800230DF103008DF858
S315000047A0033000F0CBFC94F8AA30D80605D494F870
S315000047B0A030D906C3F300120AD5019B013B019331
S315000047C0019B002BEFD1012000F0F8FF03B030BDB4
S315000047D094F8AA304FF6FF7162F3000384F8AA300A
S315000047E0019102E0019B013B019394F8AA30DA069D
S315000047F003D494F8A030DB0602D5019B002BF1D13F
S3150000480094F8A030042D0CBF43F0030365F30103B5
S3150000481084F8A0304FF6FF73019302E0019B013B41
S31500004820019394F8AA30D80603D494F8A030D90698
S3150000483002D5019B002BF1D194F8AA30042D0CBFB0
S3150000484043F001036FF3000384F8AA304FF6FF73B9
S31500004850019302E0019B013B019394F8AA30DA062A
S3150000486003D494F8A030DB0602D5019B002BF1D1CE
S315000048709DF8030000F076FC012000F09FFF03B0D6
S3150000488030BD00BF0428124B0ED002280CD01A6887
S3150000489092688A4207D3D86990F82A30DB0702D596
S315000048A00321FFF76FBF7047D86990F82A20D20717
S315000048B0EDD590F83220D207E9D590F83620D20708
S315000048C0E5D590F83820D207E1D50421FFF75ABF85
S315000048D04401FE1F2DE9F041052888B02BD80C466F
S315000048E0002900F0AE800B788A79934223D3497869
S315000048F0994220D3E17899421DD8637993421AD31D
S315000049002179914217D30428074619D0674EF069DA
S3150000491090F8263003F007039F4228D0002F00F0BE
S31500004920BC80032F40F0AE8090F83C301A071ED4AE
S3150000493040F2931500E00325284608B0BDE8F08153
S31500004940134340F0A880594EF06990F84030DB09D7
S3150000495040F0A18090F8263003F00703042B06D020
S315000049603946FFF7E5FD002800F09D80F069036AEF
S31500004970036A036A036A036A036A036A0021C3F3CC
S315000049800268FFF7FFFE00238DF810308DF81C300B
S3150000499006EB8703A2795B68D3400593F3691A6A2D
S315000049A093F8263003F0070306EB8303C2F3026293
S315000049B05B6804A8D340069300F056FC0546002821
S315000049C0BAD1A379984541D20393637902932379A7
S315000049D00193E3780093A37862782178F069FFF772
S315000049E0FFFBF469284600F019FF94F8263067F3B8
S315000049F00203284684F8263000F0E0FEF3691A6ABE
S31500004A0093F8263003F0070306EB8306C2F302622F
S31500004A1073680121D34004A88DF81010069300F0A6
S31500004A2023FC0546002887D100F00EFC204B0146EA
S31500004A301860002837D03846FFF724FFFFF75AFBE7
S31500004A407AE70125284608B0BDE8F081D6F81C8033
S31500004A5000F0E4FE98F8263067F30203284688F84B
S31500004A60263000F0ABFEA379039363790293237992
S31500004A700193E3780093A37862782178F069FFF7D1
S31500004A80AFFBBBE7052F7FF46BAF90F83C309B067E
S31500004A903FF56DAF4CE705254EE790F83C30D9075A
S31500004AA03FF565AF44E74FF4C87545E74401FE1F7F
S31500004AB0E401FE1F2DE9F0432DED028B042883B09F
S31500004AC0044668D0012800F0498120BBB74DEE6945
S31500004AD096F83C30DB0700F1538196F8AA30DF07E1
S31500004AE000F1558196F8A030002000F097FE96F868
S31500004AF036306FF3000386F83630002000F05EFE95
S31500004B004FF6FF73EA690193052C1BD8DFE804F022
S31500004B10343E392F2016032800F0CE8005285BD0BE
S31500004B20A24D0020EE6900F079FEA31E032BE4D807
S31500004B30DFE813F00D0106014400BB0092F82A30AD
S31500004B40DB0709D5019B3BB1019B013B0193DBE7E9
S31500004B5092F88034D907F5D4019B002B14BF0020AE
S31500004B604FF4CD7003B0BDEC028BBDE8F08392F834
S31500004B703230DD07E6D4EFE792F83630DB07E1D4D2
S31500004B80EAE792F89034DE07DCD4E5E792F83830AD
S31500004B90DF07D7D4E0E7854D2B68EE6993F82270DE
S31500004BA0002000F03BFE96F88034D9070DD4002093
S31500004BB000F004FE0020EE6900F030FE96F8803426
S31500004BC06FF3000386F8803497E796F8813423EA7A
S31500004BD0070386F88134EAE70E46002900F0EE80E6
S31500004BE0724D72782B6893F824109142C0F0DB80E6
S31500004BF093F8262096ED017A07EE902AF8EE677A6A
S31500004C00F4EEC77AF1EE10FA00F1CD8093F8253074
S31500004C1007EE903AF8EE677AB4EEE77AF1EE10FA1C
S31500004C2000F1C1803178032902D0002940F0BB8011
S31500004C30E869FFF77DFC002800F0C280EF6997F86D
S31500004C403C30990600F19C8097F8AA30DA0700F10B
S31500004C50BA8097F8A03096F80080002000F0DEFDBC
S31500004C603B8DB8F1030F0CBF6FF3041343F0100331
S31500004C703B85002000F0A2FD2B68EF6993F82830F1
S31500004C8096F8018003F03003102B00F0D080202B23
S31500004C9000F09F803846FFF7C9F8E8690021FFF762
S31500004CA071FD0020EE6900F0B9FD96F82A306FF329
S31500004CB0000386F82A3020E73C4DEF6997F83C3030
S31500004CC01E075DD497F8AA30D80771D497F8A0309C
S31500004CD02B68002093F8276093F8208093F82190A2
S31500004CE000F09CFD97F8133406FA09F25BB25A40BD
S31500004CF002EA08025340DBB287F81334002000F0C2
S31500004D005DFDEE69002000F089FD96F813346FF31F
S31500004D10861386F81334002000F050FDEE6900205B
S31500004D2000F07CFD96F8A230052262F3030386F8B4
S31500004D30A230002000F042FD0020EE6900F06EFD7A
S31500004D4096F832306FF3000386F83230D5E696F8DF
S31500004D5090346FF3000386F89034CEE6134DEE6977
S31500004D6096F8AA30DA0718D496F8A030002000F09A
S31500004D7055FD96F838306FF3000386F83830BCE6F8
S31500004D8040F2931003B0BDEC028BBDE8F0833046D1
S31500004D900321FFF7F7FCEE69A6E630460321FFF78D
S31500004DA0F1FCEE69E2E70320DCE600BF4401FE1FEA
S31500004DB038462146FFF7E6FCEF6989E70120D1E690
S31500004DC04FF4CA70CEE638460321FFF7DBFCEF69E5
S31500004DD041E72F4B002033F8188000F01FFD97F8AD
S31500004DE02B3068F3871387F82B30002000F0E6FCA1
S31500004DF02B68EF6993F8283096ED018A03F03003AB
S31500004E00102B2ED0202B10D1002000F007FDFCEE39
S31500004E10C87A97F82B2017EE903A013B63F3040209
S31500004E2087F82B20002000F0C9FCEF6932E7194B08
S31500004E30002033F8189000F0F1FC3B8D69F3010374
S31500004E403B85002000F0BAFC2B6893F8283003F06D
S31500004E503003202BBDD0102BEF697FF41BAF96EDEE
S31500004E60018A002000F0DAFC78EE087A3A8DFCEE32
S31500004E70E77A002017EE903A013B63F30D223A855C
S31500004E8000F09CFC2B6893F8283003F03003B9E758
S31500004E9014B0000024B0000005280AD808B5194A45
S31500004EA0431ED269042B27D8DFE803F00D21171C17
S31500004EB005000320704792F82A30DB0707D5BDE8C6
S31500004EC00840FFF7F7BD92F83830DB07F7D41046F5
S31500004ED0FEF7ACFF40F2911008BD92F83230DB07C6
S31500004EE0EDD4F4E792F88034DB07E8D4EFE792F8E4
S31500004EF09034DB07E3D4EAE792F83630DB07DED4FA
S31500004F00E5E700BF4401FE1F2DE9F04383B0012809
S31500004F1001910C461CD0022803D0002003B0BDE846
S31500004F20F0830529164619D0DFF8A080D8F81C00B2
S31500004F302146FFF7FDFA00283DD1311D2046FFF737
S31500004F40B9FD0028E9D040F291139842E5D0E5E793
S31500004F50084603B0BDE8F043FFF71EBB1279052AE9
S31500004F6027D8DFF868801146D8F81C00FFF7E0FA6A
S31500004F7030BB31461046FFF79DFDA8B996F8049060
S31500004F804FF6FE7540F2931701E0013DC6D0484644
S31500004F90FFF7B2FBB842F8D00028C7D06FF4C87349
S31500004FA0C318012BC2D9B9E740F291139842E5D054
S31500004FB0B4E70320B2E7D8F81C00FEF737FFACE7EA
S31500004FC0D8F81C00FEF732FFD8E700BF4401FE1FE9
S31500004FD02DE9F04782B0002854D0DFF85C810678CE
S31500004FE0D8F81C3090F815A093F826701A6A1A6A39
S31500004FF01A6A1A6A1A6A1A6A1B6AC37C8DF8023020
S31500005000037D8DF80130C37D8DF803308146837DA5
S31500005010007E8DF800A0052E07F007078DF80430F6
S315000050208DF8050029D806F108036B4413F8083CEF
S31500005030012B22D0022809D199F80430052B1CD85F
S3150000504008336B4413F8083C012B16D04A46052159
S31500005050FFF75AFF0446002849D140F29115E1B204
S315000050604A4650460134FFF74FFF08B1A84249D1DE
S31500005070052C0CD01DF804A0F1E70324204602B04D
S31500005080BDE8F0870124204602B0BDE8F0874FF660
S31500005090FE7540F2931A01E0013DEFD03046FFF76E
S315000050A02BFB50450446F7D020B16FF4C875431961
S315000050B0012BE3D8042E27D0002509F10C01304638
S315000050C0FFF708FC04460028D8D1BE4206D007F1F7
S315000050D008036B4413F8083C012B0ED0002DCDD0ED
S315000050E000F0B2F801463046FFF7CCFBC6E740F2C7
S315000050F091139842C2D10024AFE73846FFF74CFA25
S315000051000028EBD00446B9E7D8F81C3093F82A20DB
S31500005110D0070ED593F83220D1070AD593F836205A
S31500005120D20706D593F8385005F0010585F001053C
S31500005130C3E70125C1E700BF4401FE1F034668B16E
S31500005140074AB2F80011C1F30001197092F8003154
S315000051506FF30003002082F800317047012070478A
S3150000516000C00140104991F8043143F0010381F871
S315000051700431B1F804318446D8070AD54FF0FF331D
S3150000518000E07BB1B1F80421D20703F1FF33F8D474
S3150000519043B1054A92F800316CF30003002082F80F
S315000051A0003170471420704700C0014070B5244D8F
S315000051B082B02B6898470120FFF7D4FFAE68002124
S315000051C00320B0471F4AEC69019240F20313ADF881
S315000051D000300320A047B0F5C97FFAD16946052003
S315000051E0B04728B140F29113984201D000BEEC6955
S315000051F00520A047B0F5C97FFAD10123022200217C
S315000052008DF806102C698DF800308DF801208DF888
S3150000521002208DF803308DF805208DF8043069469C
S315000052200520A04700B100BE2B6E04209847AB6A4C
S3150000523001209847EB6A9847AB6D984702B070BD5E
S31500005240A8AF00000000A04100B5064B83B00022C5
S315000052509B69019201A906209847019803B05DF861
S3150000526004FB00BFA8AF000010B403782BB1012BDC
S315000052703BD000205DF8044B704742683F498A42A4
S315000052804CD93F4B3F4C4FF0F10C83F804C0197AD0
S3150000529041F004011972197A41F008011972197A5C
S315000052A041F001011972197A41F002011972A24204
S315000052B04FF0F00119715BD983F804C01A7A42F0F5
S315000052C010021A721971022303732F4991F81C21D7
S315000052D002F007029A423EBF91F81C2163F30202D4
S315000052E081F81C210378012BC3D18368234A93429A
S315000052F01FD9244A934231D9234A017B92F81C31A3
S3150000530003F007039942B4D092F81C3161F302030B
S3150000531082F81C3100205DF8044B70471B498A4215
S3150000532029D8194A037392F81C315DF8044B002002
S315000053307047134BF1221A711A7A6FF382021A72AE
S315000053401A7A6FF3C3021A721A7A6FF300021A728C
S315000053501A7AF0216FF341021A721971084BF12281
S315000053601A711A7AF0216FF304121A721971C3E7CF
S31500005370074B9A42A7D801230373A6E7000E270717
S315000053800020004000C2EB0B00C0014000B4C40482
S3150000539000688909037823F0030343F003030370CD
S315000053A0704700BF014B0360704700BF34B0000078
S315000053B002483022002104F055BA00BF9801FE1FB2
S315000053C0024B43F820100020704700BF9801FE1FD3
S315000053D008B56F4BB3F84031D80700F1CB806C4B62
S315000053E0B3F84031990700F1B880694BB3F8403102
S315000053F05A0700F1A580664BB3F840311B0700F150
S315000054009280634BB3F84031D8067FD4604BB3F833
S3150000541040315906C3F380106CD45D4BB3F840316C
S315000054201A065AD45A4BB3F84031DB0548D4584BC8
S31500005430B3F84031980536D4554BB3F84031590589
S3150000544024D4534BB3F840311A0512D4504BB3F859
S315000054504031DB0400D408BD4E4BDB6A0BB10B2098
S3150000546098474B4AB2F8303143F48053A2F83031B2
S3150000547008BD484B9B6A0BB10A209847444AB2F8CC
S31500005480303143F40063A2F83031DFE7414B5B6A09
S315000054900BB1092098473E4AB2F8303143F4806395
S315000054A0A2F83031CDE73B4B1B6A0BB10820984779
S315000054B0374AB2F8303143F40073A2F83031BBE713
S315000054C0344BDB690BB107209847314AB2F83031CB
S315000054D043F48073A2F83031A9E72E4B1B680BB159
S315000054E0002098472A4AB2F8303143F08003A2F8E8
S315000054F0303197E7274B5B6803B19847244AB2F8E7
S31500005500303143F04003A2F8303186E7214B9B69E6
S315000055100BB1062098471E4AB2F8303143F010030B
S31500005520A2F8303172E71B4B5B690BB10520984737
S31500005530174AB2F8303143F00803A2F8303160E779
S31500005540144B1B690BB104209847114AB2F830314D
S3150000555043F00403A2F830314DE70E4B9B680BB1C4
S31500005560022098470A4AB2F8303143F00203A2F803
S3150000557030313AE7074BDB680BB103209847044A02
S31500005580B2F8303143F00103A2F8303127E700BF0B
S31500005590006000409801FE1F0378452B20D8114A71
S315000055A0D35CFF2B05D090F801C0428813F0200091
S315000055B001D00320704710B503F01F010A4C9B0968
S315000055C054F82340EFF3108E012383F310886244CE
S315000055D08A1A93402268134323608EF3108810BD05
S315000055E00120704760B00000A8B000000278452A8C
S315000055F030D81E4B9B5CFF2B35D010B590F801E0E0
S31500005600B0F802C0980603F01F0115D4F444A1EBCC
S315000056100C01012088409B09154A52F82320EFF31C
S315000056201081012383F31088136823EA00031360B3
S3150000563081F31088002010BD01242B2A04FA01F002
S315000056400AD0332AE7D1BEF1010F04BF01310EFAA9
S3150000565001F0E0E701207047BCF1070FDBD901310B
S3150000566004FA01F0D7E70320704700BF60B00000DE
S31500005670A8B00000034640B1064A92E803004FF086
S31500005680000C83E80300604670474FF0010C60464B
S31500005690704700BFD0B00000A0F101000028FBD188
S315000056A0704700BF10B501FB00F4FFF7CDFD4FF4C6
S315000056B07A72A4FB02CE4FF0FF331149B1FBF0F032
S315000056C063454FF0000171EB0E0E07D3BCFBF0F003
S315000056D0800878B1BDE81040FFF7DEBF8000B4FB5C
S315000056E0F0F4A4FB0242A34271EB020203D320466C
S315000056F00028EFD110BDBDE810401846FFF7CCBF1B
S3150000570000CA9A3B002808DB800000F1804000F5C3
S31500005710C64003686FF31043036070470B4A0C4B97
S3150000572010B49B1A0B4CDB08236063B10A480021B6
S315000057309388C3F3090340F8043B236801318B4285
S3150000574002F10802F4D85DF8044B7047000500002A
S3150000575008050000C801FE1F00630040F0B5114DAA
S31500005760114C1249124A134B134E0E60641BA408C7
S3150000577015601C6084B105EB840EAC4600275CF80E
S31500005780040B2A46002352F8041B884205D0013335
S315000057909C42F8D1F445F2D1F0BDF445F754EED170
S315000057A0FAE700BF08050000B8060000D401FE1F96
S315000057B0D001FE1FCC01FE1FC400FE1FEFF31081B7
S315000057C0012383F31088124B33F8102092B22AB1CA
S315000057D033F81020013A92B223F8102033F8103033
S315000057E09BB293B910B40B4A0B4CB2F8FE3334F8A3
S315000057F010009BB243F4254323EA0003A2F8FE33CC
S3150000580081F310885DF8044B704781F31088704768
S31500005810D801FE1F00E00140BCB0000030B4EFF339
S315000058201081012383F310880E4A32F810309BB2A0
S315000058306BB90D4C0D4DB4F8FE3335F810C09BB264
S3150000584043EA0C0343F425439BB2A4F8FE3332F833
S31500005850103001339BB222F8103081F3108830BC2F
S31500005860704700BFD801FE1F00E00140BCB0000039
S31500005870024B00221A805A809A807047D801FE1F78
