S00C00006C6162372E73726563B2
S31500000000681FFE1FA1280000412400009D28000053
S315000000109D2800009D2800009D280000000000008B
S315000000200000000000000000000000009D28000005
S315000000309D2800000000000021490000C949000079
S31500000040FFFFFFFFFFFFFFFFFFFFFFFFFFFFFFFFBA
S31500000050FFFFFFFFFFFFFFFFFFFFFFFFFFFFFFFFAA
S31500000060FFFFFFFFFFFFFFFFFFFFFFFFFFFFFFFF9A
S31500000070FFFFFFFFFFFFFFFFFFFFFFFFFFFFFFFF8A
S31500000400FFFFFFFFFFFDFFFFFFFFFFFFFFFFFFFFF8
S31500000410FFFFFFFFFFFFFFFFFFFFFFFFFFFFFFFFE6
S31500000420FFFFFFFFFFFFFFFFFFFFFFFFFFFFFFFFD6
S31500000430FFFFFFFFFFFFFFFFFFFFFFFFFFFFFFFFC6
S31500000440FFFFFFFFFFFFFFFFFFFFFFFFFFFFFFFFB6
S31500000450FFFFFFFFFFFFFFFFFFFFFFFFFFFFFFFFA6
S31500000460FFFFFFFFFFFFFFFFFFFFFFFFFFFFFFFF96
S31500000470FFFFFFFFFFFFFFFFFFFFFFFFFFFFFFFF86
S31500000480FFFFFFFFFFFFFFFFFFFFFFFFFFFFFFFF76
S31500000490FFFFFFFFFFFFFFFFFFFFFFFFFFFFFFFF66
S315000004A0FFFFFFFFFFFFFFFFFFFFFFFFFFFFFFFF56
S315000004B0FFFFFFFFFFFFFFFFFFFFFFFFFFFFFFFF46
S315000004C0FFFFFFFFFFFFFFFFFFFFFFFFFFFFFFFF36
S315000004D0FFFFFFFFFFFFFFFFFFFFFFFFFFFFFFFF26
S315000004E0FFFFFFFFFFFFFFFFFFFFFFFFFFFFFFFF16
S315000004F0FFFFFFFFFFFFFFFFFFFFFFFFFFFFFFFF06
S3150000050020000000200001002F0000002F00010045
S315000005100C00010011000000300000003000010056
S31500000520240000002400010024000200240003002F
S31500000530240004002400050013000000170000003A
S315000005402300000021000000210001000700000038
S31500000550070001000700020007000300070004006F
S31500000560070005000700060007000700120000004C
S3150000057044000000080000000B00000041000000DD
S31500000580400000004000010004000000430000009D
S315000005902B0000002B000A002B000B002B000C0088
S315000005A02B000D002B0001002B0002002B00030086
S315000005B02B0004002B0005002B0006002B00070073
S315000005C02B0008002B0009000600000006000A00A8
S315000005D006000B0006000C0006000D0006000E00CB
S315000005E006000F00060001000600020006000300D8
S315000005F006000400060005000600060006000700C7
S31500000600060008000600090015000000150001009C
S3150000061015000200310000002A000000450000001D
S3150000062010000000030100000300000003000100A9
S315000006300F0000000D0000002D0000004200000029
S315000006402C0000002C0001002C0002002C000300EE
S31500000650320000002800000018000000140000000E
S31500000660140001001400020014000300140004002A
S31500000670140005001400060014000700140008000A
S3150000068014000900340000003400010016000000C8
S31500000690160001003500000036000000360001009B
S315000006A02200000033000000330100002900000092
S315000006B010B5054C237833B9044B13B10448AFF396
S315000006C000800123237010BD2C01FE1F00000000D6
S315000006D0EC72000008B5034B1BB103490348AFF3A6
S315000006E0008008BD000000003001FE1FEC72000013
S315000006F010B40B4B1C68B4EB102F03D803205DF825
S31500000700044B704749B15B685DF8044B020A52011D
S3150000071004330020D3580B8070470120EFE700BF59
S31500000720E800FE1FD2B110B40D4B1C68B4EB102FBD
S315000007304FEA102C03D803205DF8044B70475B6822
S3150000074022EA01004FEA4C1C08330A4042EA004202
S315000007504CF8032000205DF8044B704703207047D7
S31500000760E800FE1F12B310B4114B1C68B4EB102F37
S315000007704FEA102C03D803205DF8044B70475C68E1
S315000007804FEA4C1C02EA010354F80C00034361EAE9
S3150000079002019AB2114054F80C20120C12041143B3
S315000007A044F80C1000205DF8044B70470320704796
S315000007B0E800FE1F10B40B4B1C68B4EB102F03D8D7
S315000007C003205DF8044B704751B15B685DF8044B3C
S315000007D0020A520104330020D3581B0C0B807047C9
S315000007E00120EEE7E800FE1F10B40D4C2368B3EBC2
S315000007F0102F03D803205DF8044B7047002AF9D068
S3150000080063684FEA102C083322EA010003EB4C130D
S315000008100A4042EA00425A6000205DF8044B7047E5
S31500000820E800FE1F20B14FF002230360002070474E
S315000008300120704738B50488002C4DD0436800214C
S31500000840043303EBC40040F202450C4640F2034C6D
S3150000085040F2044E0FE0624530D153F8042C02F00A
S31500000860B852B2F1807F14BF41F0020144F0020495
S315000008700833834211D01A88AA42ECD153F8042CCB
S3150000088002F0B852B2F1807F03F1080314BF41F0C1
S31500000890010144F001048342EDD1C943CDB20120E8
S315000008A001F0ACFF0D4B93F8BB2414432C4083F8A6
S315000008B0BB44BDE83840012001F070BF7245D7D176
S315000008C053F8042C02F0B852B2F1807F0CBF44F00A
S315000008D0040441F00401CBE7FF25E0E700E0014016
S315000008E0012958D870B42E4B1A68B2EB102F4FEA74
S315000008F0102409D99A68C0B252F8245000F11006A3
S315000009000122B2402A4202D1032070BC704700EB9C
S315000009100410D3E9035454F8203000293DD043F0A5
S315000009200401204E0E40EFF3108C012383F3108850
S315000009301D4B1A8892B212B9EA704022EA701A88E0
S31500000940013292B21A808CF3108811F4803F54F869
S31500000950202007D022F4803244F82020134A0A408F
S3150000096044F8202044F82060EFF31081012282F33E
S3150000097010881A8892B21AB11A88013A92B21A806D
S315000009801B889BB213B98022EB70EA7081F3108842
S31500000990002070BC70470320704723F00401C0E7B5
S315000009A0E800FE1FD5FC011F4801FE1FD5FC001FF5
S315000009B070B582B00446002501A80E468DF8045095
S315000009C001F020FD9DF80430DB0713D5202C0ED84E
S315000009D0012E0CD8094BDB681A780CBF22EA0404F6
S315000009E01443284604F030041C7002B070BD032086
S315000009F002B070BD062002B070BD00BFE800FE1F49
S31500000A00002861D02DE9F04743680646002B58D0F0
S31500000A10FFF710FF3388002B50D02C4F2C4A4FF095
S31500000A20000C4FF0010E4FF0400A4FF0800971683C
S31500000A30F8681FFA8CF401EBC40351F834509B8814
S31500000A403C69190ADBB203EB0113EFF310888EF34E
S31500000A501088118889B211B9C17080F803A0118875
S31500000A60013189B2118088F3108815F4803F54F85B
S31500000A70231007D021F4803144F8231025F4803167
S31500000A8044F8231044F82350EFF310818EF31088B6
S31500000A9013889BB21BB11388013B9BB2138013884A
S31500000AA09BB213B9C37080F8039081F31088318824
S31500000AB00CF1010C1FFA8CF39942B8D80020BDE85E
S31500000AC0F0870120BDE8F08701207047E800FE1F8F
S31500000AD04801FE1F00282ED070B5436886B0044634
S31500000AE0002B2AD01649174DCE6809220023019201
S31500000AF0CDE90233CDE9043302A901A8B0470A23A0
S31500000B008DF80430029B6B60059BAB6002A9BDF8B3
S31500000B100C302B6001A8B047012302A98DF80530DF
S31500000B2001A8029B2B61B047029BEB602046FFF7B2
S31500000B3067FF06B070BD01207047012006B070BD8A
S31500000B404C6D0000E800FE1F30B4124C2268B2EB78
S31500000B50102F0CD9A268030AC0B252F8235000F134
S31500000B60100C012202FA0CFC1CEA050F02D103202C
S31500000B7030BC704751B1226900EB031330BC52F808
S31500000B802330C3F3400300200B707047104630BC7F
S31500000B90704700BFE800FE1F30B4154C2368B3EB66
S31500000BA0102F0CD9A368020AC0B253F8225000F1E4
S31500000BB0100C012303FA0CFC1CEA050F02D10320DA
S31500000BC030BC704789B164685201043403FA00F0FE
S31500000BD0145982B200EA1440824214BF0020002059
S31500000BE030BC0CBF0B7008707047184630BC70479D
S31500000BF0E800FE1F10B5174A1468B4EB102F0DD984
S31500000C00030A9468C0B254F8234000F1100C4FF068
S31500000C10010E0EFA0CFC1CEA040F01D1032010BDD4
S31500000C207145FBD852680CD0083202EB43130EFA1A
S31500000C3000F0596841EA0041090C09045960002096
S31500000C4010BD083202EB431381405868014389B254
S31500000C50F4E700BFE800FE1F012921D830B4124C8A
S31500000C602368B3EB102F4FEA10220BD9A368C0B24A
S31500000C7053F8225000F1100C012303FA0CFC1CEA75
S31500000C80050F02D1032030BC704703FA00F049B1CA
S31500000C9083B26168520108310020535030BC70475E
S31500000CA0032070470304F4E7E800FE1F2DE9F04136
S31500000CB02E4D2B68B3EB102F84B00CD9AB68060A07
S31500000CC0C7B253F8263007F110024FF0010808FAB0
S31500000CD002F21A4203D1032004B0BDE8F08102AB50
S31500000CE0ADF80C0068460C4602910193ADF8008001
S31500000CF0FFF7A0FDD5E9035107EB0613EFF31086C6
S31500000D0088F310881A48028892B212B9EA70402213
S31500000D10EA700288013292B2028086F31088E603F6
S31500000D2051F8232007D522F4803241F8232024F4F9
S31500000D30803241F8232041F82340EFF3108201234B
S31500000D4083F3108803889BB21BB10388013B9BB2D7
S31500000D50038003889BB213B98021EB70E97082F39C
S31500000D601088002004B0BDE8F08100BFE800FE1F37
S31500000D704801FE1F034B04301B6823F82010002097
S31500000D80704700BF4C01FE1F034B1A68031D00206D
S31500000D9022F82300704700BF4C01FE1F034B1A6860
S31500000DA0137843F080030020137070474C01FE1F38
S31500000DB0034B1A6813786FF3C7130020137070473C
S31500000DC04C01FE1F20B14FF0022303600020704744
S31500000DD00120704770B586B0002833D01B4A002327
S31500000DE00B21CDE90113CDE90333D26805930446FF
S31500000DF002A901A89047054610B1284606B070BD65
S31500000E00134E029B336001A801F0FEFB636873B1C9
S31500000E1030682B46A26812F8231002EB83020431D5
S31500000E20528820F82120626801339A42F2D823784A
S31500000E30002BE2D032681378284643F08003137003
S31500000E4006B070BD0125284606B070BD4C6D000089
S31500000E504C01FE1F60B1012808D1094B1B68002018
S31500000E6040214122187119711A717047012070478B
S31500000E70034B1B6840214122987099709A70704705
S31500000E804C01FE1F062070470620704720B14FF028
S31500000E9002230360002070470120704732490B6827
S31500000EA093F8282002F03003102B0CD0202B02D010
S31500000EB000238B61704790F82B302C4A9B0932F83F
S31500000EC013305BB97047038D10B403F00303284C4D
S31500000ED034F8133003BB5DF8044B704707EE903AC5
S31500000EE0B8EE677AD1ED047A90F82B30F8EE676A9F
S31500000EF003F01F03C6EE877A07EE103AB8EE477A7C
S31500000F00F7EE006A37EE267A67EE877AFCEEE77A26
S31500000F1017EE903A8B617047520622D5028D12F079
S31500000F20100F0CBF0322002201EB820207EE903A5B
S31500000F30D2ED016A038DF8EE677AF8EE666AC3F3BE
S31500000F40052386EEA77A013307EE903AFAEEEF7A9A
S31500000F5067EE277AFCEEE77AC1ED067A5DF8044B78
S31500000F6070470322E0E700BFFC00FE1FE8670000B1
S31500000F70F867000051B3062810B429D005280AD016
S31500000F8004282DD0D8B1012842D0022838D0032811
S31500000F902ED0032010E0224C0023E0690B60026A89
S31500000FA0C2F3027290F8263003F0070304EB8303C2
S31500000FB000205B68D3400B605DF8044B7047184C0B
S31500000FC00860E069026AC2F30232EBE7012070476B
S31500000FD0134C0023E0690B60026AC2F30262E1E788
S31500000FE00F4C0023E0690B60026AC2F30242D9E7A4
S31500000FF00B4C0023E0690B60026A02F00702D1E79E
S31500001000074C0023E0690B60026AC2F30212C9E7CB
S31500001010034C0023E0690B60026AC2F30222C1E7B7
S31500001020FC00FE1F38B5084BDD690446002001F0C0
S31500001030E5FB95F8303064F30003002085F8303086
S3150000104001F0ACFB002038BDFC00FE1F10B5084BBC
S31500001050DC69002001F0D2FB94F8523043F0010322
S31500001060002084F8523001F099FB002010BD00BF2B
S31500001070FC00FE1F10B5084BDC69002001F0BEFB2A
S3150000108094F852306FF30003002084F8523001F0D8
S3150000109085FB002010BD00BFFC00FE1F10B5084BED
S315000010A0DC69002001F0AAFB94F83E3043F080038F
S315000010B0002084F83E3001F071FB002010BD00BF17
S315000010C0FC00FE1F10B5084BDC69002001F096FB02
S315000010D094F83E306FF3C713002084F83E3001F0D9
S315000010E05DFB002010BD00BFFC00FE1F10B5084BC5
S315000010F0DC69002001F082FB94F8533043F00103D1
S31500001100002084F8533001F049FB002010BD00BFD9
S31500001110FC00FE1F10B5084BDC69002001F06EFBD9
S3150000112094F853306FF30003002084F8533001F035
S3150000113035FB002010BD00BFFC00FE1F38B5084B74
S31500001140DD690446002001F059FB95F8243064F36C
S315000011500613002085F8243001F020FB002038BD5E
S31500001160FC00FE1F30B583B001F0A6F84FF0E02377
S3150000117001901D69186910F0020028D0DDED017A92
S31500001180164CF8EE677AF7EE006A86EEA77A00202C
S31500001190186194F82320D1B2DFED117ADFED116AE0
S315000011A027EE277AC6EE877AFCEEE77A17EE902AC4
S315000011B0013AB2F1807F0CD25A61F02284F82320E2
S315000011C001F0F001072298611A6184F8231003B038
S315000011D030BD12201D6103B030BD00BF00ED00E040
S315000011E00024744900401C4608B1FFF7BBBF03202A
S315000011F0704700BF052827D070B5144B0428DD6959
S3150000120004460E4606D195F88034DB0702D54FF426
S31500001210C87070BD002001F0F1FA95F83E306FF30A
S31500001220C71385F83E3095F83E3066F3061385F809
S315000012303E3095F83E3064F30203002085F83E30D8
S3150000124001F0ACFA002070BD03207047FC00FE1FC1
S3150000125038B5002402F0070261F30E349DF810C081
S315000012609DF8141062F30A2463F306140E4B6CF314
S3150000127002041B6861F312449DF8181093F82A3093
S3150000128061F31E749DF81C10054661F31A645B0732
S3150000129048BF62F31244002001F0B0FA2C62BDE8A8
S315000012A03840002001F07ABAFC00FE1F10B5174B3B
S315000012B0DC6994F84120D00706D494F84130DB0766
S315000012C04FF0000010D410BD1A6894F8263092F83A
S315000012D02820510603F0070313D4052B01D0032B56
S315000012E0EBD140F2971010BD01F088FA94F8413026
S315000012F06FF30003002084F8413001F04FFA00201C
S3150000130010BD228DD206EAD4E7E700BFFC00FE1F1F
S315000013100620704706207047062070470620704753
S31500001320024630B329B3144BDB6993F826C0CCF3DD
S31500001330020C82F800C01A6AC2F302320A701A6AF4
S31500001340C2F302224A701A6AC2F302128A701A6A39
S31500001350C2F30202CA701A6AC2F302420A711A6A18
S31500001360C2F302724A711B6AC3F3026300208B71D7
S3150000137070470120704700BFFC00FE1F2DE9F843AF
S3150000138000295AD0002874D03D4DEB6993F8AA4045
S3150000139014F001046DD193F8A020196A1C6A1F6A23
S315000013A02E68C7F3021C1F6A07F0070E1F6AD3F8E0
S315000013B020901B6AC3F30268B36802F00302C1F30C
S315000013C00231C4F30224C7F30247C9F3027953B3C7
S315000013D0032A28D133698B422DD8A3422BD86345E3
S315000013E029D8734527D84B4525D8BB4223D8434532
S315000013F021D80146012001F01BF8EC69002001F01C
S31500001400FDF994F8403043F0800384F8403094F8B6
S31500001410403043F00103002084F8403001F0BEF96B
S315000014200020BDE8F883F368002BE2D0022AE0D161
S3150000143073698B42D1D90520F3E7114BDD6995F825
S315000014404130DB0718D408460C4601F0D7F995F869
S31500001450403064F3000385F8403095F8403064F37B
S31500001460C713204685F8403001F098F92046BDE8BC
S31500001470F8830120BDE8F8834FF4CB70BDE8F8830C
S31500001480FC00FE1F70B5434D88B0284600F0C2FF31
S31500001490414A00230321CDE90433CDE90633019106
S315000014A0D26804A901A89047049CEC614FF6FF732B
S315000014B0029394F83630DE0754D5002001F09EF9E9
S315000014C094F8A530062262F3020384F8A5300020C2
S315000014D001F064F92B68EC69D3E906232B612F4BE5
S315000014E0AB6000204FF400434FF6FF766A60A861B8
S315000014F0EB606B61029601F081F994F8803443F059
S31500001500010384F88034002001F048F9EC69039661
S3150000151094F88034D80714D5039BFBB12B68226A54
S3150000152093F8225094F82630002001F067F994F8D9
S315000015308034DB0727D4002001F030F9002008B002
S3150000154070BD039B002BE7D0039B013B039394F8EC
S315000015508034DA07F5D5039B002BDFD14FF4CD702D
S3150000156008B070BD94F83C30D90708D4029B33B15B
S31500001570029B013B029394F83C30D907F6D5029BB7
S31500001580002B9AD1EAE794F8813423EA050384F81C
S315000015908134D0E7FC00FE1F4C6D000000127A007B
S315000015A005292ED8DFE801F00A11181F260390F846
S315000015B02A0000F0010080F00100704790F8360024
S315000015C000F0010080F00100704790F8380000F04C
S315000015D0010080F00100704790F8900400F00100CF
S315000015E080F00100704790F8320000F0010080F0B2
S315000015F00100704790F8800400F0010080F00100BF
S3150000160070470020704700BF052867D870B5554D54
S315000016100446E86990F8263003F007039C4282B03E
S3150000162020D0052B11D090F82A30DB070DD5012CE0
S315000016301CD190F84030DB0978D12146FFF7B0FF86
S31500001640002866D1002002B070BD2B6893F82830C0
S315000016505E0669D5038D13F0100F0CBF032300231C
S315000016609C42E4D140F2911002B070BD2146FFF7D2
S3150000167097FF0028E6D0032CEE693CD0052C07D155
S3150000168096F83C309B0654D440F2931002B070BDDD
S3150000169034BB96F83C30D907F6D5204601F0AEF8B3
S315000016A096F8363043F0010386F83630002001F014
S315000016B075F84FF6FF73019304E0019B43B1019B5C
S315000016C0013B0193E8692146FFF76AFF0028F4D140
S315000016D0019B002BB6D14FF4CD70B4E703207047C1
S315000016E0002001F08BF8631E042BDFD8DFE803F03F
S315000016F015320A2B240096F83C301A07C4D5002070
S3150000170001F07CF896F8323043F0010386F8323067
S31500001710CCE70020EE6901F071F896F8383043F016
S31500001720010386F83830C1E7032399E740F29510A4
S3150000173089E7002001F062F896F82A3043F00103A9
S3150000174086F82A30B2E796F8803443F0010386F82B
S315000017508034ABE796F8903443F0010386F8903472
S31500001760A4E700BFFC00FE1F05281DD808B5431ED0
S31500001770012B014608D9042806D068B1032815D0E4
S3150000178005281FD0002008BD194BD869FFF708FFB0
S3150000179038B140F2911008BD154AD069FFF700FF35
S315000017A0F0B94FF4C87008BD03207047104AD069DD
S315000017B0FFF7F6FE0028F4D0D36993F83C301B07F8
S315000017C00BD512E00A4AD069FFF7EAFE0028E8D0F6
S315000017D0D36993F83C30990607D440F2931008BDBC
S315000017E0D36993F83C30DA07F7D54FF4C97008BDD2
S315000017F0FC00FE1F30B583B04FF6FF730446012090
S3150000180001930D4600F0FAFF00230DF103008DF859
S31500001810033000F0CBFC94F8AA30D80605D494F82F
S31500001820A030D906C3F300120AD5019B013B0193F0
S31500001830019B002BEFD1012000F0B0FF03B030BDBB
S3150000184094F8AA304FF6FF7162F3000384F8AA30C9
S31500001850019102E0019B013B019394F8AA30DA065C
S3150000186003D494F8A030DB0602D5019B002BF1D1FE
S3150000187094F8A030042D0CBF43F0030365F3010375
S3150000188084F8A0304FF6FF73019302E0019B013B01
S31500001890019394F8AA30D80603D494F8A030D90658
S315000018A002D5019B002BF1D194F8AA30042D0CBF70
S315000018B043F001036FF3000384F8AA304FF6FF7379
S315000018C0019302E0019B013B019394F8AA30DA06EA
S315000018D003D494F8A030DB0602D5019B002BF1D18E
S315000018E09DF8030000F076FC012000F057FF03B0DE
S315000018F030BD00BF0428124B0ED002280CD01A6847
S3150000190092688A4207D3D86990F82A30DB0702D555
S315000019100321FFF76FBF7047D86990F82A20D207D6
S31500001920EDD590F83220D207E9D590F83620D207C7
S31500001930E5D590F83820D207E1D50421FFF75ABF44
S31500001940FC00FE1F2DE9F041052888B02BD80C4677
S31500001950002900F0AE800B788A79934223D3497828
S31500001960994220D3E17899421DD8637993421AD3DC
S315000019702179914217D30428074619D0674EF0699A
S3150000198090F8263003F007039F4228D0002F00F07E
S31500001990BC80032F40F0AE8090F83C301A071ED46E
S315000019A040F2931500E00325284608B0BDE8F08113
S315000019B0134340F0A880594EF06990F84030DB0997
S315000019C040F0A18090F8263003F00703042B06D0E0
S315000019D03946FFF7E5FD002800F09D80F069036AAF
S315000019E0036A036A036A036A036A036A0021C3F38C
S315000019F00268FFF7FFFE00238DF810308DF81C30CB
S31500001A0006EB8703A2795B68D3400593F3691A6AEC
S31500001A1093F8263003F0070306EB8303C2F3026252
S31500001A205B6804A8D340069300F056FC05460028E0
S31500001A30BAD1A379984541D2039363790293237966
S31500001A400193E3780093A37862782178F069FFF731
S31500001A50FFFBF469284600F0D1FE94F8263067F3C0
S31500001A600203284684F8263000F098FEF3691A6AC5
S31500001A7093F8263003F0070306EB8306C2F30262EF
S31500001A8073680121D34004A88DF81010069300F066
S31500001A9023FC0546002887D100F00EFC204B0146AA
S31500001AA01860002837D03846FFF724FFFFF75AFBA7
S31500001AB07AE70125284608B0BDE8F081D6F81C80F3
S31500001AC000F09CFE98F8263067F30203284688F853
S31500001AD0263000F063FEA37903936379029323799A
S31500001AE00193E3780093A37862782178F069FFF791
S31500001AF0AFFBBBE7052F7FF46BAF90F83C309B063E
S31500001B003FF56DAF4CE705254EE790F83C30D90719
S31500001B103FF565AF44E74FF4C87545E7FC00FE1F87
S31500001B209C01FE1F2DE9F0432DED028B042883B0A6
S31500001B30044668D0012800F0498120BBB74DEE6904
S31500001B4096F83C30DB0700F1538196F8AA30DF07A0
S31500001B5000F1558196F8A030002000F04FFE96F86F
S31500001B6036306FF3000386F83630002000F016FE9C
S31500001B704FF6FF73EA690193052C1BD8DFE804F0E2
S31500001B80343E392F2016032800F0CE8005285BD07E
S31500001B90A24D0020EE6900F031FEA31E032BE4D80F
S31500001BA0DFE813F00D0106014400BB0092F82A306D
S31500001BB0DB0709D5019B3BB1019B013B0193DBE7A9
S31500001BC092F88034D907F5D4019B002B14BF00206E
S31500001BD04FF4CD7003B0BDEC028BBDE8F08392F8F4
S31500001BE03230DD07E6D4EFE792F83630DB07E1D492
S31500001BF0EAE792F89034DE07DCD4E5E792F838306D
S31500001C00DF07D7D4E0E7854D2B68EE6993F822709D
S31500001C10002000F0F3FD96F88034D9070DD400209B
S31500001C2000F0BCFD0020EE6900F0E8FD96F8803477
S31500001C306FF3000386F8803497E796F8813423EA39
S31500001C40070386F88134EAE70E46002900F0EE80A5
S31500001C50724D72782B6893F824109142C0F0DB80A5
S31500001C6093F8262096ED017A07EE902AF8EE677A29
S31500001C70F4EEC77AF1EE10FA00F1CD8093F8253034
S31500001C8007EE903AF8EE677AB4EEE77AF1EE10FADC
S31500001C9000F1C1803178032902D0002940F0BB80D1
S31500001CA0E869FFF77DFC002800F0C280EF6997F82D
S31500001CB03C30990600F19C8097F8AA30DA0700F1CB
S31500001CC0BA8097F8A03096F80080002000F096FDC4
S31500001CD03B8DB8F1030F0CBF6FF3041343F01003F1
S31500001CE03B85002000F05AFD2B68EF6993F82830F9
S31500001CF096F8018003F03003102B00F0D080202BE3
S31500001D0000F09F803846FFF7C9F8E8690021FFF721
S31500001D1071FD0020EE6900F071FD96F82A306FF330
S31500001D20000386F82A3020E73C4DEF6997F83C30EF
S31500001D301E075DD497F8AA30D80771D497F8A0305B
S31500001D402B68002093F8276093F8208093F8219061
S31500001D5000F054FD97F8133406FA09F25BB25A40C4
S31500001D6002EA08025340DBB287F81334002000F081
S31500001D7015FDEE69002000F041FD96F813346FF36F
S31500001D80861386F81334002000F008FDEE69002063
S31500001D9000F034FD96F8A230052262F3030386F8BC
S31500001DA0A230002000F0FAFC0020EE6900F026FDCB
S31500001DB096F832306FF3000386F83230D5E696F89F
S31500001DC090346FF3000386F89034CEE6134DEE6937
S31500001DD096F8AA30DA0718D496F8A030002000F05A
S31500001DE00DFD96F838306FF3000386F83830BCE600
S31500001DF040F2931003B0BDEC028BBDE8F083304691
S31500001E000321FFF7F7FCEE69A6E630460321FFF74C
S31500001E10F1FCEE69E2E70320DCE600BFFC00FE1FF2
S31500001E2038462146FFF7E6FCEF6989E70120D1E64F
S31500001E304FF4CA70CEE638460321FFF7DBFCEF69A4
S31500001E4041E72F4B002033F8188000F0D7FC97F8B5
S31500001E502B3068F3871387F82B30002000F09EFCA8
S31500001E602B68EF6993F8283096ED018A03F030036A
S31500001E70102B2ED0202B10D1002000F0BFFCFCEE42
S31500001E80C87A97F82B2017EE903A013B63F30402C9
S31500001E9087F82B20002000F081FCEF6932E7194B10
S31500001EA0002033F8189000F0A9FC3B8D69F301037C
S31500001EB03B85002000F072FC2B6893F8283003F075
S31500001EC03003202BBDD0102BEF697FF41BAF96EDAE
S31500001ED0018A002000F092FC78EE087A3A8DFCEE3A
S31500001EE0E77A002017EE903A013B63F30D223A851C
S31500001EF000F054FC2B6893F8283003F03003B9E760
S31500001F00E0670000F067000005280AD808B5194AFE
S31500001F10431ED269042B27D8DFE803F00D21171CD6
S31500001F2005000320704792F82A30DB0707D5BDE885
S31500001F300840FFF7F7BD92F83830DB07F7D41046B4
S31500001F40FEF7ACFF40F2911008BD92F83230DB0785
S31500001F50EDD4F4E792F88034DB07E8D4EFE792F8A3
S31500001F609034DB07E3D4EAE792F83630DB07DED4B9
S31500001F70E5E700BFFC00FE1F2DE9F04383B0012812
S31500001F8001910C461CD0022803D0002003B0BDE806
S31500001F90F0830529164619D0DFF8A080D8F81C0072
S31500001FA02146FFF7FDFA00283DD1311D2046FFF7F7
S31500001FB0B9FD0028E9D040F291139842E5D0E5E753
S31500001FC0084603B0BDE8F043FFF71EBB1279052AA9
S31500001FD027D8DFF868801146D8F81C00FFF7E0FA2A
S31500001FE030BB31461046FFF79DFDA8B996F8049020
S31500001FF04FF6FE7540F2931701E0013DC6D0484604
S31500002000FFF7B2FBB842F8D00028C7D06FF4C87308
S31500002010C318012BC2D9B9E740F291139842E5D013
S31500002020B4E70320B2E7D8F81C00FEF737FFACE7A9
S31500002030D8F81C00FEF732FFD8E700BFFC00FE1FF1
S315000020402DE9F04782B0002854D0DFF85C8106788D
S31500002050D8F81C3090F815A093F826701A6A1A6AF8
S315000020601A6A1A6A1A6A1A6A1B6AC37C8DF80230DF
S31500002070037D8DF80130C37D8DF803308146837D65
S31500002080007E8DF800A0052E07F007078DF80430B6
S315000020908DF8050029D806F108036B4413F8083CAF
S315000020A0012B22D0022809D199F80430052B1CD81F
S315000020B008336B4413F8083C012B16D04A46052119
S315000020C0FFF75AFF0446002849D140F29115E1B2C4
S315000020D04A4650460134FFF74FFF08B1A84249D19E
S315000020E0052C0CD01DF804A0F1E70324204602B00D
S315000020F0BDE8F0870124204602B0BDE8F0874FF620
S31500002100FE7540F2931A01E0013DEFD03046FFF72D
S315000021102BFB50450446F7D020B16FF4C875431920
S31500002120012BE3D8042E27D0002509F10C013046F7
S31500002130FFF708FC04460028D8D1BE4206D007F1B6
S3150000214008036B4413F8083C012B0ED0002DCDD0AC
S3150000215000F0B2F801463046FFF7CCFBC6E740F286
S3150000216091139842C2D10024AFE73846FFF74CFAE4
S315000021700028EBD00446B9E7D8F81C3093F82A209B
S31500002180D0070ED593F83220D1070AD593F836201A
S31500002190D20706D593F8385005F0010585F00105FC
S315000021A0C3E70125C1E700BFFC00FE1F034668B177
S315000021B0074AB2F80011C1F30001197092F8003114
S315000021C06FF30003002082F800317047012070474A
S315000021D000C00140104991F8043143F0010381F831
S315000021E00431B1F804318446D8070AD54FF0FF33DD
S315000021F000E07BB1B1F80421D20703F1FF33F8D434
S3150000220043B1054A92F800316CF30003002082F8CE
S31500002210003170471420704700C0014070B5244D4E
S3150000222082B02B6898470120FFF7D4FFAE680021E3
S315000022300320B0471F4AEC69019240F20313ADF840
S3150000224000300320A047B0F5C97FFAD169460520C2
S31500002250B04728B140F29113984201D000BEEC6914
S315000022600520A047B0F5C97FFAD10123022200213B
S315000022708DF806102C698DF800308DF801208DF848
S3150000228002208DF803308DF805208DF8043069465C
S315000022900520A04700B100BE2B6E04209847AB6A0C
S315000022A001209847EB6A9847AB6D984702B070BD1E
S315000022B0746700000000A04100B5064B83B0002201
S315000022C09B69019201A906209847019803B05DF821
S315000022D004FB00BF7467000010B403782BB1012B18
S315000022E03BD000205DF8044B704742683F498A4264
S315000022F04CD93F4B3F4C4FF0F10C83F804C0197A90
S3150000230041F004011972197A41F008011972197A1B
S3150000231041F001011972197A41F002011972A242C3
S315000023204FF0F00119715BD983F804C01A7A42F0B4
S3150000233010021A721971022303732F4991F81C2196
S3150000234002F007029A423EBF91F81C2163F3020293
S3150000235081F81C210378012BC3D18368234A934259
S315000023601FD9244A934231D9234A017B92F81C3162
S3150000237003F007039942B4D092F81C3161F30203CB
S3150000238082F81C3100205DF8044B70471B498A42D5
S3150000239029D8194A037392F81C315DF8044B0020C2
S315000023A07047134BF1221A711A7A6FF382021A726E
S315000023B01A7A6FF3C3021A721A7A6FF300021A724C
S315000023C01A7AF0216FF341021A721971084BF12241
S315000023D01A711A7AF0216FF304121A721971C3E78F
S315000023E0074B9A42A7D801230373A6E7000E2707D7
S315000023F00020004000C2EB0B00C0014000B4C40442
S3150000240000688909037823F0030343F0030303708C
S31500002410704700BF014B0360704700BF00680000B3
S3150000242002483022002102F057BD00BF5001FE1FB6
S31500002430024B43F820100020704700BF5001FE1FDA
S3150000244008B56F4BB3F84031D80700F1CB806C4B21
S31500002450B3F84031990700F1B880694BB3F84031C1
S315000024605A0700F1A580664BB3F840311B0700F10F
S315000024709280634BB3F84031D8067FD4604BB3F8F3
S3150000248040315906C3F380106CD45D4BB3F840312C
S315000024901A065AD45A4BB3F84031DB0548D4584B88
S315000024A0B3F84031980536D4554BB3F84031590549
S315000024B024D4534BB3F840311A0512D4504BB3F819
S315000024C04031DB0400D408BD4E4BDB6A0BB10B2058
S315000024D098474B4AB2F8303143F48053A2F8303172
S315000024E008BD484B9B6A0BB10A209847444AB2F88C
S315000024F0303143F40063A2F83031DFE7414B5B6AC9
S315000025000BB1092098473E4AB2F8303143F4806354
S31500002510A2F83031CDE73B4B1B6A0BB10820984738
S31500002520374AB2F8303143F40073A2F83031BBE7D2
S31500002530344BDB690BB107209847314AB2F830318A
S3150000254043F48073A2F83031A9E72E4B1B680BB118
S31500002550002098472A4AB2F8303143F08003A2F8A7
S31500002560303197E7274B5B6803B19847244AB2F8A6
S31500002570303143F04003A2F8303186E7214B9B69A6
S315000025800BB1062098471E4AB2F8303143F01003CB
S31500002590A2F8303172E71B4B5B690BB105209847F7
S315000025A0174AB2F8303143F00803A2F8303160E739
S315000025B0144B1B690BB104209847114AB2F830310D
S315000025C043F00403A2F830314DE70E4B9B680BB184
S315000025D0022098470A4AB2F8303143F00203A2F8C3
S315000025E030313AE7074BDB680BB103209847044AC2
S315000025F0B2F8303143F00103A2F8303127E700BFCB
S31500002600006000405001FE1F0278452A30D81E4B5C
S315000026109B5CFF2B35D010B590F801E0B0F802C0F6
S31500002620980603F01F0115D4F444A1EB0C01012018
S3150000263088409B09154A52F82320EFF310810123A5
S3150000264083F31088136823EA0003136081F310886C
S31500002650002010BD01242B2A04FA01F00AD0332AE7
S31500002660E7D1BEF1010F04BF01310EFA01F0E0E738
S3150000267001207047BCF1070FDBD9013104FA01F0E4
S31500002680D7E70320704700BF2C680000746800007D
S31500002690A0F101000028FBD1704700BF10B501FB77
S315000026A000F4FFF709FE4FF47A72A4FB02CE4FF056
S315000026B0FF331149B1FBF0F063454FF0000171EBB8
S315000026C00E0E07D3BCFBF0F0800878B1BDE81040D1
S315000026D0FFF7DEBF8000B4FBF0F4A4FB0242A34286
S315000026E071EB020203D320460028EFD110BDBDE8EE
S315000026F010401846FFF7CCBF00CA9A3B0B4A0C4B5A
S3150000270010B49B1A0B4CDB08236063B10A48002106
S315000027109388C3F3090340F8043B236801318B42D5
S3150000272002F10802F4D85DF8044B7047000500007A
S31500002730000500008001FE1F00630040F0B5114D4A
S31500002740114C1249124A134B134E0E60641BA40817
S3150000275015601C6084B105EB840EAC4600275CF85E
S31500002760040B2A46002352F8041B884205D0013385
S315000027709C42F8D1F445F2D1F0BDF445F754EED1C0
S31500002780FAE700BF00050000B00600008C01FE1F3E
S315000027908801FE1F8401FE1F7800FE1FEFF31081E3
S315000027A0012383F31088124B33F8102092B22AB11A
S315000027B033F81020013A92B223F8102033F8103083
S315000027C09BB293B910B40B4A0B4CB2F8FE3334F8F3
S315000027D010009BB243F4254323EA0003A2F8FE331C
S315000027E081F310885DF8044B704781F310887047B9
S315000027F09001FE1F00E001408868000030B4EFF34E
S315000028001081012383F310880E4A32F810309BB2F0
S315000028106BB90D4C0D4DB4F8FE3335F810C09BB2B4
S3150000282043EA0C0343F425439BB2A4F8FE3332F883
S31500002830103001339BB222F8103081F3108830BC7F
S31500002840704700BF9001FE1F00E00140886800004D
S31500002850024B00221A805A809A8070479001FE1F10
S3150000286008B50B4A0346106840B10333094923F003
S31500002870030303448B4204D8136008BD0648106066
S31500002880F3E702F015FB0C2303604FF0FF3008BDA1
S315000028909801FE1F6817FE1F6807FE1F00BE7047DF
S315000028A008B500F005F800F0A9FAFEE7704700BF8A
S315000028B0F8B5414AD2F8883043F47003C2F888303C
S315000028C000200446FFF7F2FFFFF7AAFD3B4B1B680B
S315000028D09847FFF7BDFFFFF7A1FC394A394B148033
S315000028E039481B689847394A3948121A02D0214696
S315000028F002F0F2FA374A3848121A02D0374902F083
S31500002900DDFA374B37493848384A00244FF4254515
S315000029109C801D809860DA60B1F8202192B2012572
S3150000292042F48052A1F820219D80FFF7C5FC304B70
S31500002930024628461A602F4DFFF7B8FF2E4B5B1B49
S31500002940A3424FEAA30605DD55F8043B0134984738
S31500002950A642F9DCFFF7F2FEFFF7D0FE274B284C24
S315000029601B682848284D9847D4E90001D4E900237C
S31500002970584002F02FFBD4E900232449561845EBB2
S315000029800307C4E90067D4E9006786F01E4287F0B2
S315000029907D4382F4120283F42D0382F4384283F4D9
S315000029A0A44383F02B0382F03702C4E900230020FE
S315000029B0BDE8F84000F02CB800ED00E04C6D0000DA
S315000029C04801FE1F1C670000EC6800006807FE1F38
S315000029D02C01FE1FE400FE1F0000FE1FF072000027
S315000029E0000D0040006000406817FE1F671FFE1FB5
S315000029F09C01FE1F7000FE1F7400FE1F586700003A
S31500002A002001FE1F90680000E34FE6F41654E7A18C
S31500002A1000F02CB882B04FF0C8429369D907FCD4B5
S31500002A2000210091009B536961F300035361936A8F
S31500002A304FF0200C6CF30F239362936A4FF0C04063
S31500002A4043F0800393620368009340F6FF714FF0F2
S31500002A50C842019104E0019B013B0193019B13B124
S31500002A60936A5B06F7D502B0704700BFF8B5684AAF
S31500002A7011684FF0C84400236FF3861110201160CF
S31500002A802063A36123626363C4F80438A26863F316
S31500002A900402A2606369FF2043F0010363612061C1
S31500002AA06369662143F00103636121616369012162
S31500002AB00B4399226361226163690B43232063619F
S31500002AC0FFF7ECFD9F2323612269524BD2B21A70A5
S31500002AD02169C9B259702069C0B298706569EF2A38
S31500002AE045F00105656101D1402903D000221A8015
S31500002AF09A70F8BD1728F9D1052121612569626907
S31500002B00352742F0010262612761434A206910704D
S31500002B10606940F001006061A66A042060F3030664
S31500002B20A662666860F303066660502626616669DB
S31500002B3046F00106666192F800C00126EDB24CF03F
S31500002B40020C82F800C02661256115782561656949
S31500002B50354365612061606930436061206861F3D7
S31500002B60020020602161206960693043606127614D
S31500002B70206910706269324362619B78182B3AD9DA
S31500002B80062323616369B722334363612261636964
S31500002B903343636121612269636943F00103636121
S31500002BA0D307F7D4636A43F003036362636A0622BA
S31500002BB043F01003636222616269E92142F0010277
S31500002BC062612161626942F001024FF0C84305204B
S31500002BD0626118611A69596912F0010241F0010136
S31500002BE05961F6D1596A022060F301015962596AA6
S31500002BF062F3041159624FF0C844236843F040035E
S31500002C002360FFF707FF63696FF300036361F8BD95
S31500002C1000700440A001FE1FA401FE1F08B500F0CD
S31500002C20BBF8BDE8084000F057B900BF30B5104CFE
S31500002C30104D226889B00123D018B4214FF4806268
S31500002C40CDE90433CDE902330691019220600A4AA8
S31500002C500A490B480095002300F07CFD08B909B02D
S31500002C6030BD0748002109B0BDE8304000F06AB821
S31500002C70B003FE1F681FFE1F1D2C00009C6800008D
S31500002C80A801FE1F08B500F087F8BDE8084000F06F
S31500002C903DB900BF30B51E4C1E4923681E485A1C5C
S31500002CA089B022603423002200F0A6FBF8B9142272
S31500002CB03824CDE90024194B19491A48012200F09D
S31500002CC035FC00BB184C194A19480123B4214FF4AE
S31500002CD08065CDE90531CDE903330293CDE90045A1
S31500002CE01449002300F036FD30B909B030BD0A485A
S31500002CF0002100F027F8DAE70D48002109B0BDE809
S31500002D00304000F01FB80748002100F01BF8D9E753
S31500002D10B003FE1FA86800001003FE1F7C03FE1F01
S31500002D20B46800004403FE1F6823FE1F852C0000C4
S31500002D305C02FE1FC0680000704700BFFFF7FCBFC3
S31500002D40704700BF00BE70470F4A104970B5002596
S31500002D500F4E157004461C230E483560012200F004
S31500002D6087FC58B9FFF796FF00F056F800F088F890
S31500002D70FFF75CFF2046FFF7E3FF70BD05482946D5
S31500002D80FFF7E0FFEEE700BF9003FE1FD8680000E4
S31500002D90B003FE1F9403FE1F38B515484FF0FF31F0
S31500002DA000F0B6FCF0B9134B1A7802B138BD124CDC
S31500002DB001221A70FFF7C2FF2368013B2360002B34
S31500002DC0F4D00B4D04E02368013B2360002BEDD0CB
S31500002DD0284600F0B3FC0028F5D000212846FFF76E
S31500002DE0B1FFF0E702480021FFF7ACFFDBE700BFC9
S31500002DF09403FE1F9003FE1FB003FE1F08B572B6B4
S31500002E0000F086FD002008BD08B5FFF7C5FFBDE848
S31500002E10084000F07DB800BF30B5104C104D226858
S31500002E2089B00123D018B4214FF48062CDE9043370
S31500002E30CDE902330691019220600A4A0A490B48FD
S31500002E400095002300F086FC08B909B030BD07489C
S31500002E50002109B0BDE83040FFF774BFB003FE1F84
S31500002E606827FE1F092E0000646C0000B403FE1FD5
S31500002E7008B5FFF791FFBDE8084000F08DB800BF28
S31500002E8030B5104C104D226889B00123D018B421FA
S31500002E904FF48062CDE90433CDE902330691019205
S31500002EA020600A4A0A490B480095002300F052FCAC
S31500002EB008B909B030BD0748002109B0BDE8304067
S31500002EC0FFF740BFB003FE1F682BFE1F712E0000E8
S31500002ED0746C00006804FE1F00B589B003F026FB81
S31500002EE0094C20220021684601F0F6FF4FF0FF3220
S31500002EF06946204600F07CFB684602F063F8012034
S31500002F0001F070FAEDE700BF4403FE1FFEE700BFC5
S31500002F1000B51D4B1D4E5C681D4D89B00023CDF8D4
S31500002F201930CDF8153007930FCEEC46ACE80F00FC
S31500002F3096E803004CF8040B8CF80010236A012174
S31500002F4040F2016098474FF0FF31284600F0A8FA9A
S31500002F50236A002140F201609847236A01214FF459
S31500002F60C0609847282001F03DFA236A00214FF4FB
S31500002F70C0609847284600F0BDFA00226946054819
S31500002F8000F056FBDAE700BFD0680000846C000052
S31500002F901003FE1F4403FE1F00B51D4B1D4E5C684B
S31500002FA01D4D89B00023CDF81930CDF815300793A3
S31500002FB00FCEEC46ACE80F0096E803004CF8040B85
S31500002FC08CF80010236A012140F2016098474FF007
S31500002FD0FF31284600F064FA236A002140F20160BE
S31500002FE09847236A012140F2026098473C2001F08D
S31500002FF0F9F9236A002140F202609847284600F05A
S3150000300079FA00226946054800F012FBDAE700BFAC
S31500003010D0680000A46C00001003FE1F4403FE1FCE
S31500003020034678B10849094A0968914208D1084A15
S31500003030D2F89C21516802EB810200201A60704789
S3150000304012207047012070472801FE1F494D460097
S3150000305000B07F4020B14FF002230360002070478C
S3150000306001207047B0B10C4A0C4B12689A420FD13E
S315000030700B4BD3F89C315A6800F1100103EB820325
S3150000308053F8042F40F8042B8842F9D100207047EA
S3150000309012207047012070472801FE1F494D460047
S315000030A000B07F4098B392B3F0B51D4C1D4B246819
S315000030B09C4201D01220F0BD1B4B1C684CB31B4B2D
S315000030C005781B684FF0000C05E00CF1010CA445D7
S315000030D003F108031DD093F806E0AE45F5D15E79FD
S315000030E0B0F802E0BEEB960FEFD1DE7990F801E082
S315000030F006F007077745E8D1B1EBD60FE5D182F8A0
S3150000310000C09B88C3F3090300205380F0BD012053
S315000031107047DF21FF23117053800B20F0BD00BFE5
S315000031202801FE1F494D46008001FE1F84680000ED
S315000031301E4B1A689AB103F57F71002001E053F81F
S31500003140042F8B421044FAD148B9194BD3F89C315D
S315000031501A0CB2F5807F05D000BE00BEFCE700BEAB
S3150000316000BEFCE71A68013A033208D8114A93F800
S31500003170241092F800C08C4504D000BEFDE700BEC6
S3150000318000BEFCE7517893F825C06145F5D19178EA
S3150000319093F826C06145F0D1D27893F827309A4249
S315000031A0EBD1054B054A1A60704700BF646D0000FD
S315000031B000B07F40886D00002801FE1F494D460083
S315000031C0002861D000295FD0864A874B12689A4250
S315000031D001D0122070472DE9F041844D0278AC6889
S315000031E005EB8404A3789A4280F0C980170904EBA2
S315000031F0870E02F00F0CBEF8086026FA0CF818F0DD
S31500003200010F00F0BC8012F0080F9EF80AE008D00B
S3150000321004EB870702F0070CFA7A02F00F02360A6F
S315000032209644734A12F80CC0724A0CEA06061B0949
S31500003230925D023372449B0003EB4203E218E35AA9
S3150000324092F90160C3F30903002E05EB83021DDB2F
S315000032504678002E40F08F806668D4784088C4F3A4
S3150000326003144C72D478C4F303048C7201248C804A
S31500003270002833D135F823409378CB8006EB04261B
S315000032800E600872C86078E00120704715F8233098
S3150000329044785B082CBB032B79D059D873D0D478EB
S315000032A04088C4F303144C72D478C4F303048C72BC
S315000032B014798C80A04211D2D6889568012B00FB28
S315000032C006550D6000F08580022B73D0B2F80150D0
S315000032D0CD8000230B72CB60002D56D140F27A5080
S315000032E04BE002254FF0010C4FF0040E1678F6075E
S315000032F004F1FF343FD5052B72D8DFE803F0032332
S315000033001914120A0C231A4413785B08002CEDD109
S31500003310C1E79378DE1C15FB03C303EB96039B0002
S31500003320F1E70823EFE793781EFB03C39B00EAE768
S315000033301679937813FB06F30333033603EB9603F0
S315000033409B00E0E71379033303F4FE730C33DAE7EB
S31500003350042B18D1D078547852680A60C0F303035E
S315000033608B720023C0F303128B800B72CB60A30712
S315000033704A72CC8009D440F27950BDE8F0814FF40E
S31500003380AF60BDE8F0816420F7E70020F5E7D0786C
S3150000339054780346C3F30303C0F3031004254872AD
S315000033A08B72002093788B802A440D72CC80086043
S315000033B0CA60E2E7131803341D7B93780B7200FB97
S315000033C003F3033303EB940402EB8402CD80CA605B
S315000033D082E702440023157BCD800B72CB607BE72E
S315000033E0002390E72801FE1F494D4600646D00004A
S315000033F0446D0000C46C000008B1342B01D01C20C1
S3150000340070472DE9F0410F4616468046EFF31081CE
S3150000341072B61F4A13680133136081F310881D4B7F
S315000034201C681D4B1D684DB1A04207D0002301E06A
S31500003430A04503D00133AB42246AF9D1EFF31081E2
S3150000344072B61368013B136081F3108800F0FAFF2F
S31500003450A04503D0012E04D91F2000E01C20BDE8A2
S31500003460F081EFF305820D4B19680A4306D0EFF39E
S3150000347005821B681343B3F1F03F06D33246394643
S315000034804046BDE8F04100F067BA1320E7E700BF09
S315000034906C05FE1F3C05FE1F3805FE1F0000FE1FC3
S315000034A018B1124B02689A4201D01C20704710B422
S315000034B081B90F4BEFF305821C68224306D0EFF368
S315000034C005821B681343B3F1F03F0DD35DF8044B3F
S315000034D000F072BAEFF30582054B1C682243E9D06F
S315000034E004205DF8044B70471320FAE74554554D08
S315000034F00000FE1F18B10B4B02689A4201D01C2037
S315000035007047EFF30583084A11680B4306D0EFF3C3
S31500003510058113680B43B3F1F03F01D300F026BBDE
S31500003520132070474554554D0000FE1F2DE9F04706
S31500003530DDF820901E46099B08B1382B02D00920E1
S31500003540BDE8F087884617460546EFF3108172B648
S31500003550234B1A6801321A6081F31088214A1068D9
S31500003560214A146858B1A54209D04FF0000C01E079
S31500003570A54204D00CF1010C8445246BF8D1EFF37D
S31500003580108172B61A68013A1A6081F3108800F049
S3150000359059FFA542D3D00EB37B1E0F2B11D8B7EB24
S315000035A0990F0ED8EFF30582104B19680A430BD01A
S315000035B0EFF305821B681343B3F1F03F04D21320E7
S315000035C0BEE70520BDE8F087CDF8209033463A46A1
S315000035D041462846BDE8F04700F0CCBB0320AFE7E4
S315000035E06C05FE1F4005FE1F4405FE1F0000FE1F62
S315000035F0B0B110B40C4B04689C4203D009205DF8AE
S31500003600044B704771B12AB1EFF30583074C246868
S31500003610234303D15DF8044B00F0E2BB0420EEE740
S31500003620092070470320EAE7554555510000FE1F63
S31500003630B0B110B40C4B04689C4203D009205DF86D
S31500003640044B704771B12AB1EFF30583074C246828
S31500003650234303D15DF8044B00F0AABC0420EEE737
S31500003660092070470320EAE7554555510000FE1F23
S3150000367008B11C2B01D00C2070472DE9F0410F46F4
S3150000368016468046EFF3108172B61D4A1368013361
S31500003690136081F310881B4B1C681B4B1D684DB1D2
S315000036A0A04207D0002301E0A04503D00133AB427E
S315000036B06469F9D1EFF3108172B61368013B1360A8
S315000036C081F3108800F0BEFEA04513D0EFF305820B
S315000036D00E4B19680A4306D0EFF305821B681343A5
S315000036E0B3F1F03F09D3324639464046BDE8F041D2
S315000036F000F0ECBC0C20BDE8F0811320FBE700BF16
S315000037006C05FE1F4C05FE1F4805FE1F0000FE1F30
S3150000371018B1084B02689A4201D00C20704729B1B3
S31500003720EFF30583044A1268134301D100F0F8BC95
S3150000373004207047414D45530000FE1F18B1044A4E
S315000037400368934201D00C20704700F02BBD00BFE8
S31500003750414D45532DE9F04F85B09A46119B019393
S31500003760129B0393139B0293DDE90F890E9D149B15
S3150000377008B1B42B03D00E2005B0BDE8F08F8B4600
S3150000378017460646EFF3108272B6DFF810C1DCF872
S3150000379000300133CCF8003082F310883C4B1A68B5
S315000037A03C4B08F1FF301C682844DAB1A64219D018
S315000037B000230097D4F80CE0AE454FF0000106D880
S315000037C02769AF424FF001018CBF002500218645D5
S315000037D003F1010343D82769874240D9009FD4F8F3
S315000037E088400025EFF3108272B6DCF80030013B0A
S315000037F0CCF8003082F3108800F024FEA642BAD03E
S31500003800002D38D0002F36D0B8F1C70F31D9B9F115
S315000038101F0F36D8019B994535D3029B012B2ED815
S31500003820EFF305821C4B19680A4306D0EFF30582B5
S315000038301B681343B3F1F03F27D3029B1393039BFB
S315000038401293019B3A46CDE91093594653463046AA
S31500003850CDE90E5805B0BDE8F04F00F0CDBC93425F
S31500003860D4F8884003D0A64201D00029A2D0009FF8
S31500003870B8E7052080E7032005B0BDE8F08F1020EB
S315000038807AE70F2078E7182076E7132074E700BF61
S315000038905405FE1F5805FE1F0000FE1F6C05FE1F87
S315000038A038B500F043FD00F0F9FE0D480D490E4A0B
S315000038B00E4C0F4D002303600B6013600D480E493C
S315000038C00E4A236003600B6013600D4C0D480E49D1
S315000038D00E4A2B60236003600B60136038BD00BF87
S315000038E04805FE1F4405FE1F4005FE1F3005FE1F4E
S315000038F04C05FE1F2C05FE1F2005FE1F1C05FE1F86
S315000039002805FE1F2405FE1F3C05FE1F3805FE1F69
S3150000391010B50E4C236813F10F3F0AD04FF0F03369
S31500003920236000F035FFFFF7BBFF094A1368013338
S315000039301360084A4FF0F03310682360FFF704FA6B
S3150000394000232360BDE8104000F066BF0000FE1FA4
S315000039506C05FE1F3405FE1F70B504460E4615465F
S315000039600021342201F0B8FA66602561EFF3108178
S3150000397072B60C4B0C480D4A20600D48186013684F
S315000039800C4843B92462046064620133136081F316
S315000039901088002070BD0068456A44622C62C4E944
S315000039A00805F2E76805FE1F4554554D3805FE1F0C
S315000039B05D4B00003C05FE1FF8B5EFF3108C72B6A8
S315000039C03A4A83681468E3B90122C0E90224A4B123
S315000039D00269012A03D1E26A426120228262D4F896
S315000039E0A420002A43D0116B1063C862C0E90B21E2
S315000039F0D4F8A0200132C4F8A0208CF31088184611
S31500003A00F8BDC268A2422BD029B3294D2B6813BB3F
S31500003A10D4F8B030274EE0660133C4F8B030C3693D
S31500003A20A6664BBB8461C4E91C440133C3612B68A1
S31500003A30E16401332B600D2323630123A3638CF31D
S31500003A4010880369012B1ED0204600F08FFDD4F8A4
S31500003A5084301846F8BD8CF310881D231846F8BD2F
S31500003A60013383608CF3108800231846F8BDC4F830
S31500003A70A400C0E90B00BBE786692667776F676716
S31500003A803C677467D1E7E16A836A8B42D2F89C305F
S31500003A9088BF81629942D36A38BFC2F89C109942A6
S31500003AA0D2D2104600F008F8CEE700BF5C05FE1F34
S31500003AB06C05FE1FDD4A00002DE9F04104460D4667
S31500003AC0EFF3108272B6036B53B1D0F89810C5624B
S31500003AD0A94228BF2946C16382F31088BDE8F08158
S31500003AE01F49C3640B681F4ED0F82C803768023319
S31500003AF00B600E2303630123836382F3108800F0B7
S31500003B0035FDEFF3108272B6D4F89830E562AB4219
S31500003B1028BF2B46E36382F31088204600F0B0FCF2
S31500003B20EFF3108272B633689C4207D0216B29B935
S31500003B30D96AE36A8B4205D8BC4208D082F3108862
S31500003B40BDE8F081E06B8342F8D98142F6D3A845FF
S31500003B5038BF0549346038BF41F82340EEE700BF5F
S31500003B606C05FE1F6005FE1F7005FE1F2DE9F8435C
S31500003B700446EFF3108372B685688DB17B49E2681F
S31500003B8009688A42184602D0794E316841B1013D32
S31500003B90A5605DB183F3108800252846BDE8F8834B
S31500003BA083F310881E252846BDE8F883002A43D0F3
S31500003BB0D2F8A0100139C2F8A01000293FD1C2F8EE
S31500003BC0A450A169002960D02169D2F89480684E7A
S31500003BD0012900F09180E369012B49D92269012A64
S31500003BE038D0A769002F58D04FF00009D7F8A02089
S31500003BF0002A77D1C7F8A440C4E90B440132C7F8BC
S31500003C00A020013B0122E760E361A260002B63D1A3
S31500003C10A3613368013333600023BB66C7F8843081
S31500003C2080F310882369012B00F08780384600F066
S31500003C3027FC2846BDE8F88383F31088B3E7D4E968
S31500003C400B160E63F162D2F8A460A64208BFC2F852
S31500003C50A410B6E733680133336080F3108820463A
S31500003C6000F09EFFEFF3108072B63368013B3360BD
S31500003C70A76997B12369012B2AD1FB6A63612023C7
S31500003C80A362D4F80C90E369B0E7216900299CD1BE
S31500003C90E16083F310880D4685E7336801333360AE
S31500003CA080F31088E0682023A362C36A434502D0EC
S31500003CB04146FFF701FFEFF3108272B63368013B0E
S31500003CC033600023E36082F3108800F0BBFB6AE7F1
S31500003CD0E3694FF0000989E73B6F7A6FA3615A6782
S31500003CE0136796E7D7F8A410D1F830C00C63CCF868
S31500003CF02C40C4E90B1C81E731680131316083F344
S31500003D001088D2F8A41020270B464BB11869012859
S31500003D1003D1986A874228BF0746DB6A9942F4D1E5
S31500003D20EFF3108072B63368C2F89C70B84503F1A1
S31500003D30FF3328BFB84633604DE7E3694BB9D9F87E
S31500003D402C3043453FF472AF41464846FFF7B4FE78
S31500003D506CE7204600F024FFEFF3108272B6A369E9
S31500003D600BB1DB6AA36282F31088E8E75C05FE1FED
S31500003D706C05FE1FF8B516460F463822002104468C
S31500003D801D4601F0A9F8B200069BB3FBF2F303FB54
S31500003D900252C4E908556760E261A660A5616361E5
S31500003DA0E360EFF3108172B60A4A0B48136820608D
S31500003DB00A4843B92463046064630133136081F3E2
S31500003DC010880020F8BD0068456B44632C63C4E985
S31500003DD00C05F2E74005FE1F554555514405FE1FEB
S31500003DE02DE9F8430346EFF3108E72B61D69C06ADB
S31500003DF015B300284AD11E6A9F6856F8044B0C601A
S31500003E00012F0BD9013F8C463A46314651F8044BF7
S31500003E104CF8044F013AF9D106EB8706DA6959697D
S31500003E20B24208BF9E691E62013D01311D615961A2
S31500003E308EF31088BDE8F883002A7AD0594D2E6893
S31500003E40002E76D1584C2468C4E91F16D4F8B01059
S31500003E50E3660131C4F8B0105449A16600286DD15B
S31500003E609C62C4E91C440130D86205232363012304
S31500003E70A3632B68E26401332B608EF3108820461F
S31500003E8000F074FBD4F88400BDE8F8839E6AD6F887
S31500003E908020012A59D01F6AD3F8089057F8042BBE
S31500003EA00A60B9F1010F0BD909F1FF3842463C46C9
S31500003EB054F8045B41F8045F013AF9D107EB88072F
S31500003EC0384DD3F81C802A68596AF46F01322A608B
S31500003ED02A68B84508BF9F691F62013A0F462A60E3
S31500003EE0B9F1010F226847F8042B0BD909F1FF3904
S31500003EF004344A4654F804CB41F804CF013AF9D1C8
S31500003F0007EB8907B84508BF9F695F62013841D151
S31500003F109862D8622B6800240133B466C6F88440E0
S31500003F202B608EF31088304600F0AAFA2046BDE8D2
S31500003F30F8838EF310880A20BDE8F883996A216712
S31500003F404E6F666734674C678DE7F46F9A6825682D
S31500003F500D60012A07D90434013A54F8045B41F88C
S31500003F60045F013AF9D101381AD0326F716F9A6243
S31500003F7051670A670B4AD862136800240133B46696
S31500003F80C6F8844013608EF31088304600F078FA45
S31500003F902046D1E7326F716F9A6251670A67B8E7B8
S31500003FA09862E7E76C05FE1F5C05FE1F394C0000B2
S31500003FB070B50546EFF3108C72B66B69C06A13B321
S31500003FC000284CD1013B6B612B696A6A0C6801338E
S31500003FD02B61AB681646012B46F8044B0BD903F14F
S31500003FE0FF3E0431734651F8044B42F8044F013B3F
S31500003FF0F9D106EB8E06EB69B34208BFAE696E6275
S315000040008CF3108870BD002A50D02D4B1E68002EF0
S315000040104CD12C4C2468C4E91F16D4F8B010E566C0
S315000040200131C4F8B0102849A166002844D0A96A15
S3150000403021674E6F666734674C6701300521E86279
S3150000404021630121A1631968E264013119608CF3CF
S315000040501088204600F08AFAD4F8840070BD013832
S31500004060AE6A27D0336F726FAB625A671367AB685D
S31500004070E8620022B266F26F08681060012B07D969
S315000040800431013B51F8044B42F8044F013BF9D18E
S315000040900B4A136800240133C6F8844013608CF37E
S315000040A01088304600F0ECF9204670BD8CF310887D
S315000040B00B2070BDA862DAE7AC62C4E91C44BCE719
S315000040C06C05FE1F5C05FE1F394C0000002330B452
S315000040D0C0E901120360C360036143618361EFF3CA
S315000040E0108172B60B4A0C4C136804600B4C4BB92A
S315000040F04061206080610133136081F310880020E5
S3150000410030BC70472468A569A0616861C0E90545AF
S31500004110F1E700BF4805FE1F414D45534C05FE1F04
S31500004120F8B5EFF3108272B683682BB1013B83605A
S3150000413082F310880020F8BD31B3174B1C681CBBF6
S31500004140164C174E2468D4F8B050E0660135C4F812
S31500004150B0500569A666DDB1C6682667776F6767E2
S315000041603C67746701350561062020630120A06362
S315000041701868E1640130186082F31088204600F068
S31500004180F5F9D4F88400F8BD82F310880D20F8BD47
S31500004190C460C4E91C44E5E76C05FE1F5C05FE1F10
S315000041A0C14C000038B5EFF3108172B6036933B91C
S315000041B083680133836081F31088002038BD013B9A
S315000041C0C26814D0146F556FC46065672C67094CBC
S315000041D003612368002501339566C2F88450236085
S315000041E081F31088104600F04BF9002038BDC360FB
S315000041F0EDE700BF6C05FE1F2DE9F84F0A9D0B9EEB
S315000042000C9FDDF838B004468A469146EF213246C7
S315000042102846984600F060FEB4220021204600F0B1
S315000042205BFE2023C4F89C300D9B66619F4206F11D
S31500004230FF36364BE5604FF003023544C4E911986A
S31500004240C4E906BBC4E915343149C4F828A0256180
S31500004250E762C4F8947004BFE763C4F898702263F9
S31500004260204600F0B3FBEFF3108072B6294A2A4BC2
S31500004270236013686BBB2949C4E922440C600133EF
S315000042801360274A1368013313600F9B012B2BD150
S31500004290EFF30582234B1B681343B3F1F03F07D2BC
S315000042A080F31088204600F0EBF80020BDE8F88F78
S315000042B01D4B1D683DB3EB6AEE6BEB6380F3108814
S315000042C0204600F0DDF8002DEFD0EE630020BDE8BB
S315000042D0F88F12490968D1F88C50C1F88C40C5F89E
S315000042E08840C4E92215CAE780F31088EFF31081ED
S315000042F072B61368013B136081F3108800F0A2F8D0
S315000043000020BDE8F88F2E46D8E700BF6D460000B6
S31500004310914300005405FE1F445248545805FE1FA1
S315000043206C05FE1F0000FE1F6005FE1F0E490F4BA9
S315000043300F48104A10B500240C6020211960046053
S315000043401460214680220C4800F0C6FD0B490C4A39
S315000043500C600C4913680C600B480C49046043F070
S31500004360C57313600C6010BD6005FE1F6405FE1F5B
S315000043705C05FE1FF005FE1F7005FE1F5805FE1F9B
S315000043805005FE1F6C05FE1F5405FE1F6805FE1F27
S31500004390114B10B51C68D4E9113098470F4B1B68B8
S315000043A00BB120469847EFF3108172B60C4A0123F1
S315000043B02363A363136800200133E064136081F371
S315000043C01088EFF3148323F0040383F31488204644
S315000043D0BDE8104000F0CAB85C05FE1F6805FE1F68
S315000043E06C05FE1F10B5EFF3108272B6124B1C68F7
S315000043F064B1EFF30583114909680B4306D110B97F
S3150000440082F3108810BD0E4B196819B182F310881B
S31500004410132010BDC4F884101968E06401311960D6
S31500004420042101232163A36382F31088204600F050
S315000044309DF8D4F8840010BD5C05FE1F0000FE1F29
S315000044406C05FE1F0A4B1B688BB90A4A0A4B126899
S315000044501B689A420BD0094B4FF080525A60EFF31B
S31500004460058323B9EFF3108362B683F31088704790
S315000044706C05FE1F5C05FE1F6005FE1F00ED00E0DB
S31500004480F8B50446EFF3108572B6436E002B3AD0AA
S315000044904C3000F067F92E4AA16B1368013B13609C
S315000044A0236B31BBB3B92B492B4B1B6885F31088A3
S315000044B0096899420DD013685BB9284B4FF08052BA
S315000044C05A60EFF3058323B9EFF3108362B683F3E3
S315000044D01088F8BD636B8BB9E06A2149236351F8F4
S315000044E02030B3B1596A0C625C6261622362194979
S315000044F0DAE7013B012BD6D9636B33B103230021E5
S31500004500C4E90C31CFE7C364C5E71249A36323634B
S31500004510CAE7144E41F820403368134F0121814009
S315000045200B4333603B688342C4E90844BBD909495D
S3150000453038600B684BB1DB6B8342B5D90C6085F3F1
S3150000454010881368002BC4D1B7E70C60ACE700BF36
S315000045506C05FE1F6005FE1F5C05FE1F00ED00E0FA
S315000045607005FE1FF005FE1F6405FE1FF8B5374BEC
S3150000457004461D68EFF3108672B685423AD0344A77
S315000045801368013B1360A36B012B14D0314B86F3E8
S3150000459010881B68AB420DD013685BB92E4B4FF0E9
S315000045A080525A60EFF3058323B9EFF3108362B6A6
S315000045B083F31088F8BD216AE06A4FF0000C8C4244
S315000045C0C4F838C025D0636A244F4B62196257F885
S315000045D02030A3421AD01F4B1968A142D7D12049D7
S315000045E0096857F82110196086F310881368002BA4
S315000045F0E0D1D3E7EB6C013B033303D805F14C0064
S3150000460000F086F8174BE2691A60B8E747F8201001
S31500004610E1E71549114F834047F820C0086820EAB2
S3150000462003030B6033B193FAA3F3B3FA83F30C4994
S315000046300B60D0E70A492020086006490B6086F324
S3150000464010881368002BB5D1A8E700BF5C05FE1FD4
S315000046506C05FE1F6005FE1F00ED00E07005FE1FE5
S315000046606405FE1FA006FE1FF005FE1FEFF3108C6B
S3150000467072B6026B042A07D0826ED0F8B0108CF3A3
S31500004680108802B110477047034A1368013313605C
S315000046908CF31088FFF7F4BE6C05FE1F1048114A14
S315000046A0114B124910B50024046014601048114AD9
S315000046B00C601460214680220460184600F00CFC51
S315000046C00D490E4A03460E480B60136080330D49B0
S315000046D00D4A03600D4B0C6014601C6010BD00BFDA
S315000046E09C06FE1FA006FE1F1006FE1F0806FE1FE4
S315000046F00C06FE1F0406FE1F9406FE1F0006FE1F84
S315000047009006FE1F9806FE1FFC05FE1FF805FE1FFD
S315000047100268531ED91C01D8816901B17047202A4D
S315000047200D4A0E491268096894BF9B007C23134406
S31500004730994208D91A685AB1516908615061C0E9AD
S3150000474004218361EAE7064A12685B1A1344F1E71B
S31500004750C0E904001860F4E70006FE1F9006FE1F7D
S315000047609406FE1F836963B1026990420AD04169CB
S3150000477051610A611968814204BF93611A6000237E
S31500004780836170471A688242F9D100221A60F6E7FF
S3150000479010B472B6184A194B1168194A1960136891
S315000047A01848194C1949046043F0010313600B685B
S315000047B0174AA2FB03235B09013BB3F1807F0AD2B0
S315000047C04FF0E02213485361F0240021072380F8BC
S315000047D02340916113610F4BF0220021DA7783F8B1
S315000047E0222083F82310EFF3148C2CF0040C8CF3A6
S315000047F014885DF8044B704700000000F405FE1FA6
S31500004800001000E03405FE1F6C2FFE1F9C01FE1FEA
S315000048101F85EB5100ED00E0114B124C1248134975
S31500004820002222609A809A821A801A829860D96041
S315000048309861D961EFF3088282F309880C48B0F8D1
S31500004840202192B2012142F48052A0F820219980C1
S31500004850998262B6074B4FF080525A60FEE700BF5E
S31500004860000D00406C05FE1F6817FE1F671FFE1F28
S315000048700060004000ED00E070B42349234D244C55
S31500004880244A254E4AF2025C1FE08B89C3F3C033EB
S3150000489013601368012B0FD1B1F8FE339BB233605E
S315000048A0A1F8FEC38B8960F3CF338B81336843F461
S315000048B025439BB2A1F8FE33BFF34F8F30BFBFF342
S315000048C06F8F62B61368012B0BD072B62B6823600C
S315000048D020680028D9D0114B4FF0006270BC5A6096
S315000048E0704772B6B1F8FE339BB23360A1F8FEC3CF
S315000048F08B8943F400438B81336843F425439BB291
S31500004900A1F8FE3362B6E0E700E001406005FE1F55
S315000049105C05FE1FA806FE1FA406FE1F00ED00E0B4
S3150000492025480168002945D0EFF30983A3F1200348
S3150000493083F3098803F1200323E9F00F1EF0100F1B
S3150000494007D1A3F1400383F3098803F1400323ED64
S31500004950108A43F804ED8B60184C236813B18B6101
S3150000496000232360164E72B633680BB1036001E074
S31500004970FFF782FF366862B6706801307060B06912
S31500004980206010484FF000014161F1688161316992
S31500004990C161B36853F804EB1EF0100F01D1B3ECFC
S315000049A0108AB3E8F00F83F309884FF001014161E3
S315000049B07047FEE7014CD5E75C05FE1FA006FE1F0B
S315000049C06005FE1F000D004000F028B8026922F0C5
S315000049D00702A2F144026FF00203136002F104021F
S315000049E04FF00003136053609360D360136153610B
S315000049F0C36893614FF00003D361136253629362FD
S31500004A00D36213634FF0FF33536391634FF08073A8
S31500004A10D363A2F104028260704700BF244925488F
S31500004A200A680368013210B50A60DBB9224C2168B6
S31500004A30224A1368186800B3214B01221A6000F05D
S31500004A40B5F9236823BB1F4B1B6853B11E4A126876
S31500004A50934206D01D4B1B681BB91D4B4FF080526D
S31500004A605A6010BD013B144C0360A3B9134A136886
S31500004A701868012121600028DED116480068043339
S31500004A80834213600CD00E4B1B6831B1002BD6D17C
S31500004A9000F056F9D7E72168CAE7002BD3D0CEE756
S31500004AA00D48074B00681B6810600029EED1F4E73B
S31500004AB09C06FE1FA006FE1F0806FE1F0006FE1F20
S31500004AC00406FE1F6005FE1F5C05FE1F6C05FE1F2B
S31500004AD000ED00E09006FE1F9406FE1F10B5EFF3F2
S31500004AE0108372B61A4A846E944202D083F31088F9
S31500004AF010BDD0F8B0208A42F8D1C26E002AF5D097
S31500004B00144914688C42F1D1D1690029EED00024F1
S31500004B1001398466D161C1B1D0E91C144C672167A3
S31500004B209469844211D0026B0D2ADFD10A490A68C2
S31500004B301D240132C0F884400A6083F31088FFF711
S31500004B409FFCEFF3108372B6D0E79161EBE700BFED
S31500004B50DD4A00004554554D6C05FE1F70B50446F0
S31500004B60EFF3108372B60D4ED0F8A400326801320E
S31500004B703260012558B1856083F31088FEF7F6FF91
S31500004B80EFF3108372B6D4F8A4000028F2D132688D
S31500004B90013A326083F3108870BD00BF6C05FE1FBA
S31500004BA0F8B5EFF3108C72B6C569012D26D9836965
S31500004BB0022D1A6F1DD01F4F3C68013419463C6008
S31500004BC005E0C569226F214623468A421AD0D66A75
S31500004BD0DC6AA64238BF13468CF31088EFF3108CBC
S31500004BE072B684698C42ECD1C669AE4220D0354695
S31500004BF0E8E7DB6AD16A994238BF82618CF3108894
S31500004C000020F8BD3968934201F1FF31396009D0BF
S31500004C10D3E91C4161670C67516FC3E91C210B671F
S31500004C20536783618CF31088FFF70CFC0020F8BDF6
S31500004C30126FCAE76C05FE1F10B5EFF3108372B64C
S31500004C401C4A846E944202D083F3108810BDD0F8BB
S31500004C50B0208A42F8D1C26E002AF5D016491468EF
S31500004C608C42F1D1D16A0029EED000240139846644
S31500004C70D162E9B1D0E91C144C672167946A844279
S31500004C8016D0016B0529DFD10C4914690A68002C7E
S31500004C9002F1010214BF0B240A24C0F884400A6002
S31500004CA083F31088FFF7ECFBEFF3108372B6CBE7C4
S31500004CB09162E6E7394C0000554555516C05FE1FDB
S31500004CC010B5EFF3108372B61A4A846E944202D07E
S31500004CD083F3108810BDD0F8B0208A42F8D1C26E96
S31500004CE0002AF5D0144914688C42F1D111690029C3
S31500004CF0EED00024013984661161C1B1D0E91C14DB
S31500004D004C672167D468844211D0026B062ADFD132
S31500004D100A490A680D240132C0F884400A6083F308
S31500004D201088FFF7ADFBEFF3108372B6D0E7D160C2
S31500004D30EBE700BFC14C0000414D45536C05FE1F1B
S31500004D40144B1B68EFF3108272B6134900200860FB
S31500004D5093B1196B81B9D3E9071010B40F4C99615F
S31500004D609842216003D0D96ADB6B994207D082F35F
S31500004D7010885DF8044B704782F310887047084B23
S31500004D80084C43F821002068074953F820300B608F
S31500004D90EDE700BF5C05FE1F0806FE1FA006FE1F0E
S31500004DA07005FE1F6405FE1F6005FE1F2DE9F04F0E
S31500004DB083B0EFF3108A72B6374A1768002F5DD1B9
S31500004DC0364E3368002B59D00123DFF8D880DFF840
S31500004DD0D8B0DFF8D8901360314B1B681868009084
S31500004DE008B1C0F818D0D8F8000043F8047B2C4A64
S31500004DF037608342136004BFDBF8003013608AF328
S31500004E001088EFF3108A72B6009C002C31D001ADE9
S31500004E1012E0203B2360A56124610194C9F800409B
S31500004E208AF31088EFF3108A72B6019BC9F80070F6
S31500004E309C422CD0009CE4B1236901979C4222D06D
S31500004E406069586100930361C3F818D02368202B6A
S31500004E50DFD862682260D4E90230B2B1A56124616C
S31500004E600194C9F800408AF31088002BDAD09847DD
S31500004E70D8E73368002BAFD1074A13608AF310884E
S31500004E8003B0BDE8F08F0097E0E7A261E9E7A7610C
S31500004E902046FFF73DFCCDE79806FE1F0406FE1FE1
S31500004EA00006FE1F9006FE1F9406FE1F0C06FE1F40
S31500004EB0014B1868704700BF0400FE1F0A44914268
S31500004EC000F1FF3300D1704710B511F8014B03F81C
S31500004ED0014F9142F9D110BD02440346934200D1DD
S31500004EE0704703F8011BF9E770B50E46054618B181
S31500004EF083690BB900F094FAAB69AC6813B928461C
S31500004F0000F08EFA2C4B9C4220D16C68636EDB0756
S31500004F1005D4A389980502D4A06D00F031FBA389BE
S31500004F2019071DD52369DBB1013EA36816F8011FD9
S31500004F30013BA36039BB002B38DA22460A212846FA
S31500004F4000F076F8013011D00A2511E01B4B9C4287
S31500004F5001D1AC68DAE71A4B9C4208BFEC68D5E78A
S31500004F602146284600F0B6F80028DDD04FF0FF3580
S31500004F70636EDA0705D4A3899B0502D4A06D00F001
S31500004F8000FB284670BD002B04DAA2699A4206DCB3
S31500004F900A2904D023685A1C22601970C5E72246E4
S31500004FA0284600F045F80130BFD1DFE723680A251F
S31500004FB05A1C22601D70DBE75C7200007C720000E8
S31500004FC03C720000024B01461868FFF78DBF00BF18
S31500004FD00400FE1F38B5104B1D68AB6B0446B3B911
S31500004FE0182000F035FB0246A86320B90B4B0C488D
S31500004FF0422100F0DDF80B490B4BC0E900130B4BC7
S3150000500083600B23838100210120C2E90401AB6B7D
S3150000501000221C615A6138BD0400FE1F6871000041
S315000050207F7100000E33CDAB34126DE6ECDE050069
S31500005030F8B50E461446054618B183690BB900F05B
S31500005040EFF9214B9C422BD16C68A369A360A3891D
S315000050501A072FD523696BB323692068C01A6369C1
S31500005060F6B28342374604DC2146284600F044F96E
S3150000507030BBA368013BA36023685A1C22601E70E4
S3150000508063690130834204D0A389DB0706D50A2E63
S3150000509004D12146284600F02FF988B93846F8BDD4
S315000050A00A4B9C4201D1AC68CFE7094B9C4208BF32
S315000050B0EC68CAE72146284600F00CF80028CBD059
S315000050C04FF0FF37EAE700BF5C7200007C72000019
S315000050D03C720000324B70B51D6806460C4625B181
S315000050E0AB6913B9284600F09BF92E4B9C420FD1B1
S315000050F06C68A389B4F90C2019072CD4DD0611D4E9
S315000051000923336042F04003A3814FF0FF303EE0B5
S31500005110254B9C4201D1AC68EBE7244B9C4208BF6F
S31500005120EC68E6E7580712D5616B41B104F1440318
S31500005130994202D0304600F093FA00236363A389B4
S3150000514023F02403A3810023636023692360A389DA
S3150000515043F00803A38123694BB9A38903F42073A1
S31500005160B3F5007F03D02146304600F031FAA0891E
S31500005170B4F90C2010F001030AD00023A360636980
S315000051805B42A361236943B910F08000BAD170BDB8
S31500005190810758BF6369A360F4E70020F7E700BF03
S315000051A00400FE1F5C7200007C7200003C7200006E
S315000051B01FB514461A46094B1B680546D8684CB1FC
S315000051C0074B0091CDE9013406492B4600F0A6F9BC
S315000051D000F07AFE044B1C46F3E700BF0400FE1FF6
S315000051E0FD7100000A720000387200008A892DE9FC
S315000051F0F041054610070C4658D44B68002B05DCD9
S315000052000B6C002B02DC0020BDE8F081E66A002E64
S31500005210F9D0002312F480522F682B6032D0606DD3
S31500005220A3895A0705D56368C01A636B0BB1236C53
S31500005230C01A00230246E66A216A2846B047431C84
S31500005240A38906D129681D292CD82A4ACA40D6071F
S3150000525028D500226260D9042269226004D5421C46
S3150000526001D12B6803B96065616B2F600029CAD034
S3150000527004F14403994202D0284600F0F1F90020D7
S315000052806063C1E7216A01232846B047411CC7D1A4
S315000052902B68002BC4D01D2B01D0162B01D12F60FB
S315000052A0B1E7A38943F04003A381ADE70F69002F5F
S315000052B0A9D093070E6808BF4B690F6018BF00237B
S315000052C0A6EB07088B60B8F1000F9CDD216AA66A81
S315000052D043463A462846B047002806DCA38943F0F1
S315000052E04003A3814FF0FF308EE70744A8EB000888
S315000052F0E9E700BF0100402038B50B6905460C46BA
S3150000530013B90025284638BD18B183690BB900F0DA
S3150000531087F8144B9C421BD16C68B4F90C30002BF7
S31500005320EFD0626ED00704D4990502D4A06D00F0C8
S3150000533027F928462146FFF759FF636EDA07054627
S31500005340E0D4A3899B05DDD4A06D00F01AF9D9E756
S31500005350054B9C4201D1AC68DFE7044B9C4208BF79
S31500005360EC68DAE75C7200007C7200003C720000B8
S31500005370002310B50446C0E90033C0E90433836056
S3150000538081814366C2818361194608225C30FFF73A
S31500005390A3FD054B6362054BA362054BE362054B18
S315000053A02462236310BD00BF1D5E00003F5E000047
S315000053B0775E00009B5E0000014900F0C1B800BFA7
S315000053C0F952000070B568224D1E55430E4605F190
S315000053D0740100F0B1F9044640B10021C0E900169D
S315000053E00C30A06005F16802FFF776FD204670BD1F
S315000053F0014800F0C5B800BFAD06FE1F014800F029
S31500005400C0B800BFAD06FE1F014800F0B9B800BF26
S31500005410AE06FE1F014800F0B4B800BFAE06FE1F80
S3150000542010B50446FFF7F0FFA3691BB1BDE81040B5
S31500005430FFF7F0BFC4E912332365134B134A1B6809
S31500005440A262A34204BF0123A361204600F020F814
S315000054506060204600F01CF8A060204600F018F8B6
S315000054600022E06004216068FFF782FFA068012245
S315000054700921FFF77DFFE06802221221FFF778FF7E
S315000054800123A361D2E700BF64710000B953000095
S31500005490F8B50746FFF7ACFF1E4B1E68B36913B994
S315000054A03046FFF7BDFF4836D6E90134013B03D548
S315000054B033680BB33668F7E7B4F90C50D5B9164B19
S315000054C0E36004F15800656600F059F8FFF796FFAF
S315000054D0C4E90155C4E904552560A5610822294699
S315000054E004F15C00FFF7F8FCC4E90D55C4E9125558
S315000054F02046F8BD6834D9E704213846FFF762FF35
S31500005500044630600028D5D1FFF778FF0C233B60B6
S31500005510EEE700BF647100000100FFFF0EB403B5A3
S31500005520014603AB054853F8042B0068019300F0CD
S31500005530A1F902B05DF804EB03B070470400FE1F4A
S315000055402DE9F8430646884600F148040027D4E9C9
S315000055500195B9F1010905D52468002CF7D1384623
S31500005560BDE8F883AB89012B07D9B5F90E300133B5
S3150000557003D029463046C04707436835E9E77047F8
S315000055807047704770B50E46B1F90E10002996B0F7
S3150000559014461D4608DAB6F90C3000222A601A06AF
S315000055A010D44FF480630EE06A4600F0A5FC002894
S315000055B0F1DB019A02F47042A2F500535A425A41B5
S315000055C02A60EEE740230020236016B070BDFFFF7F
S315000055D08B8973B59D0706460C4607D504F147032C
S315000055E0236023610123636102B070BD01AB6A468B
S315000055F0FFF7C8FF00990546304600F09DF848B908
S31500005600B4F90C309A05EFD423F0030343F00203F8
S31500005610A381E3E70D4BB362A389206043F08003C7
S31500005620A381009B6361019B20615BB1B4F90E10FD
S31500005630304600F073FC28B1A38923F0030343F03E
S315000056400103A381A0890543A581CDE7B9530000D5
S31500005650024B0146186800F06FB800BF0400FE1F39
S3150000566037B5002944D051F8043C0190002BA1F134
S315000056700404B8BFE41800F0C3FC1E4A019813687E
S3150000568033B96360146003B0BDE8304000F0BEBCBF
S31500005690A34208D9256861198B4201BF19685B6866
S315000056A049192160EDE71A465B680BB1A342FAD9A6
S315000056B011685518A5420BD1246821445418A342F9
S315000056C01160E0D11C685B68536021441160DAE721
S315000056D002D90C230360D6E7256861198B4204BF03
S315000056E019685B68636004BF491921605460CAE7A2
S315000056F003B030BDB006FE1F70B50E4E0C463168C5
S31500005700054611B900F07AFB30602146284600F0C4
S3150000571075FB431C0AD0C41C24F00304A04207D026
S31500005720211A284600F06AFB013001D14FF0FF3400
S31500005730204670BDB406FE1F2DE9F041CD1C25F0B4
S31500005740030508350C2D38BF0C25002D074601DB57
S31500005750A94205D90C233B6000263046BDE8F081FE
S315000057602E4E00F04DFC33681C4634BB29463846A5
S31500005770FFF7C2FF431C04464DD134682646002E6F
S3150000578040D123683146384604EB030800F036FB67
S3150000579080453AD1216803356D1A25F00305083591
S315000057A00C2D38BF0C2529463846FFF7A5FF0130DA
S315000057B02BD023682B4423600EE02268521B1ED494
S315000057C00B2A16D96119A342256018BF5960636870
S315000057D008BF316062514B60384604F10B0600F099
S315000057E015FC26F00706231DF21AB6D09B1BA35004
S315000057F0B3E76268A3420CBF32605A60ECE7234607
S315000058006468B2E734467668B9E70C233B603846ED
S3150000581000F0FCFBA1E72560DEE700BFB006FE1F37
S315000058209368013B002B10B4936008DA9469A34295
S3150000583001DB0A2903D15DF8044BFFF7F9BB1368B6
S31500005840581C1060197008465DF8044B7047F8B58F
S3150000585006460F461446D518AC4201D1002007E093
S3150000586014F8011B3A463046FFF7DAFF431CF3D122
S31500005870F8BDFFFF2DE9F04F0D469DB01446984642
S31500005880064618B183690BB9FFF7CAFD894B9D42DD
